{
  "_format": "hh-sol-artifact-1",
  "contractName": "NftMarket",
  "sourceName": "contracts/NftMarket.sol",
  "abi": [
    {
      "inputs": [],
      "stateMutability": "nonpayable",
      "type": "constructor"
    },
    {
      "anonymous": false,
      "inputs": [
        {
          "indexed": true,
          "internalType": "address",
          "name": "nftContract",
          "type": "address"
        },
        {
          "indexed": true,
          "internalType": "address",
          "name": "Seller",
          "type": "address"
        },
        {
          "indexed": true,
          "internalType": "address",
          "name": "Owner",
          "type": "address"
        }
      ],
      "name": "MarketCreated",
      "type": "event"
    },
    {
      "anonymous": false,
      "inputs": [
        {
          "indexed": false,
          "internalType": "string",
          "name": "Faculty_Name",
          "type": "string"
        },
        {
          "indexed": false,
          "internalType": "string",
          "name": "e_mail",
          "type": "string"
        },
        {
          "indexed": false,
          "internalType": "uint256",
          "name": "Token_Id",
          "type": "uint256"
        }
      ],
      "name": "Sig_Verified",
      "type": "event"
    },
    {
      "inputs": [
        {
          "internalType": "string",
          "name": "Faculty_Name",
          "type": "string"
        },
        {
          "internalType": "string",
          "name": "_Signature",
          "type": "string"
        },
        {
          "internalType": "uint256",
          "name": "ItemId",
          "type": "uint256"
        }
      ],
      "name": "AddSingnature",
      "outputs": [],
      "stateMutability": "nonpayable",
      "type": "function"
    },
    {
      "inputs": [
        {
          "internalType": "address",
          "name": "nftContract",
          "type": "address"
        },
        {
          "internalType": "uint256",
          "name": "Price",
          "type": "uint256"
        },
        {
          "internalType": "uint256",
          "name": "tokenId",
          "type": "uint256"
        }
      ],
      "name": "CreatMarketItem",
      "outputs": [],
      "stateMutability": "payable",
      "type": "function"
    },
    {
      "inputs": [
        {
          "internalType": "address",
          "name": "_to",
          "type": "address"
        },
        {
          "internalType": "uint256",
          "name": "ItemId",
          "type": "uint256"
        }
      ],
      "name": "GiftNft",
      "outputs": [],
      "stateMutability": "nonpayable",
      "type": "function"
    },
    {
      "inputs": [
        {
          "internalType": "uint256",
          "name": "ItemId",
          "type": "uint256"
        }
      ],
      "name": "creatMarketSale",
      "outputs": [],
      "stateMutability": "payable",
      "type": "function"
    },
    {
      "inputs": [],
      "name": "fetchItemsCreated",
      "outputs": [
        {
          "components": [
            {
              "internalType": "uint256",
              "name": "itemId",
              "type": "uint256"
            },
            {
              "internalType": "address",
              "name": "nftContract",
              "type": "address"
            },
            {
              "internalType": "address payable",
              "name": "creater",
              "type": "address"
            },
            {
              "internalType": "address payable",
              "name": "Owner",
              "type": "address"
            },
            {
              "internalType": "uint256",
              "name": "TokenId",
              "type": "uint256"
            },
            {
              "internalType": "uint256",
              "name": "Price",
              "type": "uint256"
            },
            {
              "internalType": "bool",
              "name": "Sold",
              "type": "bool"
            },
            {
              "internalType": "bool",
              "name": "Gifted",
              "type": "bool"
            },
            {
              "internalType": "string",
              "name": "Signature",
              "type": "string"
            },
            {
              "components": [
                {
                  "internalType": "string",
                  "name": "Event",
                  "type": "string"
                },
                {
                  "internalType": "address",
                  "name": "_from",
                  "type": "address"
                },
                {
                  "internalType": "address",
                  "name": "_to",
                  "type": "address"
                }
              ],
              "internalType": "struct NftMarket.Transaction_Part[]",
              "name": "Transaction_History",
              "type": "tuple[]"
            }
          ],
          "internalType": "struct NftMarket.MarketItem[]",
          "name": "",
          "type": "tuple[]"
        }
      ],
      "stateMutability": "view",
      "type": "function"
    },
    {
      "inputs": [],
      "name": "fetchMyNfts",
      "outputs": [
        {
          "components": [
            {
              "internalType": "uint256",
              "name": "itemId",
              "type": "uint256"
            },
            {
              "internalType": "address",
              "name": "nftContract",
              "type": "address"
            },
            {
              "internalType": "address payable",
              "name": "creater",
              "type": "address"
            },
            {
              "internalType": "address payable",
              "name": "Owner",
              "type": "address"
            },
            {
              "internalType": "uint256",
              "name": "TokenId",
              "type": "uint256"
            },
            {
              "internalType": "uint256",
              "name": "Price",
              "type": "uint256"
            },
            {
              "internalType": "bool",
              "name": "Sold",
              "type": "bool"
            },
            {
              "internalType": "bool",
              "name": "Gifted",
              "type": "bool"
            },
            {
              "internalType": "string",
              "name": "Signature",
              "type": "string"
            },
            {
              "components": [
                {
                  "internalType": "string",
                  "name": "Event",
                  "type": "string"
                },
                {
                  "internalType": "address",
                  "name": "_from",
                  "type": "address"
                },
                {
                  "internalType": "address",
                  "name": "_to",
                  "type": "address"
                }
              ],
              "internalType": "struct NftMarket.Transaction_Part[]",
              "name": "Transaction_History",
              "type": "tuple[]"
            }
          ],
          "internalType": "struct NftMarket.MarketItem[]",
          "name": "",
          "type": "tuple[]"
        }
      ],
      "stateMutability": "view",
      "type": "function"
    },
    {
      "inputs": [],
      "name": "fetchNftsGift",
      "outputs": [
        {
          "components": [
            {
              "internalType": "uint256",
              "name": "itemId",
              "type": "uint256"
            },
            {
              "internalType": "address",
              "name": "nftContract",
              "type": "address"
            },
            {
              "internalType": "address payable",
              "name": "creater",
              "type": "address"
            },
            {
              "internalType": "address payable",
              "name": "Owner",
              "type": "address"
            },
            {
              "internalType": "uint256",
              "name": "TokenId",
              "type": "uint256"
            },
            {
              "internalType": "uint256",
              "name": "Price",
              "type": "uint256"
            },
            {
              "internalType": "bool",
              "name": "Sold",
              "type": "bool"
            },
            {
              "internalType": "bool",
              "name": "Gifted",
              "type": "bool"
            },
            {
              "internalType": "string",
              "name": "Signature",
              "type": "string"
            },
            {
              "components": [
                {
                  "internalType": "string",
                  "name": "Event",
                  "type": "string"
                },
                {
                  "internalType": "address",
                  "name": "_from",
                  "type": "address"
                },
                {
                  "internalType": "address",
                  "name": "_to",
                  "type": "address"
                }
              ],
              "internalType": "struct NftMarket.Transaction_Part[]",
              "name": "Transaction_History",
              "type": "tuple[]"
            }
          ],
          "internalType": "struct NftMarket.MarketItem[]",
          "name": "",
          "type": "tuple[]"
        }
      ],
      "stateMutability": "view",
      "type": "function"
    },
    {
      "inputs": [],
      "name": "fetchSignNfts",
      "outputs": [
        {
          "components": [
            {
              "internalType": "uint256",
              "name": "itemId",
              "type": "uint256"
            },
            {
              "internalType": "address",
              "name": "nftContract",
              "type": "address"
            },
            {
              "internalType": "address payable",
              "name": "creater",
              "type": "address"
            },
            {
              "internalType": "address payable",
              "name": "Owner",
              "type": "address"
            },
            {
              "internalType": "uint256",
              "name": "TokenId",
              "type": "uint256"
            },
            {
              "internalType": "uint256",
              "name": "Price",
              "type": "uint256"
            },
            {
              "internalType": "bool",
              "name": "Sold",
              "type": "bool"
            },
            {
              "internalType": "bool",
              "name": "Gifted",
              "type": "bool"
            },
            {
              "internalType": "string",
              "name": "Signature",
              "type": "string"
            },
            {
              "components": [
                {
                  "internalType": "string",
                  "name": "Event",
                  "type": "string"
                },
                {
                  "internalType": "address",
                  "name": "_from",
                  "type": "address"
                },
                {
                  "internalType": "address",
                  "name": "_to",
                  "type": "address"
                }
              ],
              "internalType": "struct NftMarket.Transaction_Part[]",
              "name": "Transaction_History",
              "type": "tuple[]"
            }
          ],
          "internalType": "struct NftMarket.MarketItem[]",
          "name": "",
          "type": "tuple[]"
        }
      ],
      "stateMutability": "view",
      "type": "function"
    },
    {
      "inputs": [],
      "name": "fetchUnsoldMarketItems",
      "outputs": [
        {
          "components": [
            {
              "internalType": "uint256",
              "name": "itemId",
              "type": "uint256"
            },
            {
              "internalType": "address",
              "name": "nftContract",
              "type": "address"
            },
            {
              "internalType": "address payable",
              "name": "creater",
              "type": "address"
            },
            {
              "internalType": "address payable",
              "name": "Owner",
              "type": "address"
            },
            {
              "internalType": "uint256",
              "name": "TokenId",
              "type": "uint256"
            },
            {
              "internalType": "uint256",
              "name": "Price",
              "type": "uint256"
            },
            {
              "internalType": "bool",
              "name": "Sold",
              "type": "bool"
            },
            {
              "internalType": "bool",
              "name": "Gifted",
              "type": "bool"
            },
            {
              "internalType": "string",
              "name": "Signature",
              "type": "string"
            },
            {
              "components": [
                {
                  "internalType": "string",
                  "name": "Event",
                  "type": "string"
                },
                {
                  "internalType": "address",
                  "name": "_from",
                  "type": "address"
                },
                {
                  "internalType": "address",
                  "name": "_to",
                  "type": "address"
                }
              ],
              "internalType": "struct NftMarket.Transaction_Part[]",
              "name": "Transaction_History",
              "type": "tuple[]"
            }
          ],
          "internalType": "struct NftMarket.MarketItem[]",
          "name": "",
          "type": "tuple[]"
        }
      ],
      "stateMutability": "view",
      "type": "function"
    },
    {
      "inputs": [],
      "name": "getListingPrice",
      "outputs": [
        {
          "internalType": "uint256",
          "name": "",
          "type": "uint256"
        }
      ],
      "stateMutability": "view",
      "type": "function"
    }
  ],
  "bytecode": "0x6080604052670de0b6b3a764000060045534801561001c57600080fd5b50600160008190555033600360006101000a81548173ffffffffffffffffffffffffffffffffffffffff021916908373ffffffffffffffffffffffffffffffffffffffff160217905550613a1d806100756000396000f3fe6080604052600436106100915760003560e01c80637628ff55116100595780637628ff551461015c57806384ddf88c146101875780638be8dda4146101b0578063cfab5038146101cc578063f064c32e146101f757610091565b8063128ae7121461009657806312e85585146100c1578063189c5e8b146100ec5780634f5465d91461011757806372b5a1ce14610133575b600080fd5b3480156100a257600080fd5b506100ab610222565b6040516100b89190612f80565b60405180910390f35b3480156100cd57600080fd5b506100d6610727565b6040516100e39190612fb1565b60405180910390f35b3480156100f857600080fd5b50610101610731565b60405161010e9190612f80565b60405180910390f35b610131600480360381019061012c919061300c565b610bfc565b005b34801561013f57600080fd5b5061015a6004803603810190610155919061316e565b6110e8565b005b34801561016857600080fd5b506101716112f5565b60405161017e9190612f80565b60405180910390f35b34801561019357600080fd5b506101ae60048036038101906101a99190613225565b6117d9565b005b6101ca60048036038101906101c59190613265565b611b80565b005b3480156101d857600080fd5b506101e1611f66565b6040516101ee9190612f80565b60405180910390f35b34801561020357600080fd5b5061020c61242b565b6040516102199190612f80565b60405180910390f35b606060006102306001612930565b90506000808167ffffffffffffffff81111561024f5761024e613043565b5b60405190808252806020026020018201604052801561028857816020015b610275612a60565b81526020019060019003908161026d5790505b50905060005b8381101561071d573373ffffffffffffffffffffffffffffffffffffffff16600560006001846102be91906132e7565b815260200190815260200160002060030160009054906101000a900473ffffffffffffffffffffffffffffffffffffffff1673ffffffffffffffffffffffffffffffffffffffff16141561070a5760006005600060018461031f91906132e7565b815260200190815260200160002060000154905060006005600083815260200190815260200160002090508060405180610140016040529081600082015481526020016001820160009054906101000a900473ffffffffffffffffffffffffffffffffffffffff1673ffffffffffffffffffffffffffffffffffffffff1673ffffffffffffffffffffffffffffffffffffffff1681526020016002820160009054906101000a900473ffffffffffffffffffffffffffffffffffffffff1673ffffffffffffffffffffffffffffffffffffffff1673ffffffffffffffffffffffffffffffffffffffff1681526020016003820160009054906101000a900473ffffffffffffffffffffffffffffffffffffffff1673ffffffffffffffffffffffffffffffffffffffff1673ffffffffffffffffffffffffffffffffffffffff16815260200160048201548152602001600582015481526020016006820160009054906101000a900460ff161515151581526020016006820160019054906101000a900460ff161515151581526020016007820180546104bd9061336c565b80601f01602080910402602001604051908101604052809291908181526020018280546104e99061336c565b80156105365780601f1061050b57610100808354040283529160200191610536565b820191906000526020600020905b81548152906001019060200180831161051957829003601f168201915b5050505050815260200160088201805480602002602001604051908101604052809291908181526020016000905b828210156106d457838290600052602060002090600302016040518060600160405290816000820180546105979061336c565b80601f01602080910402602001604051908101604052809291908181526020018280546105c39061336c565b80156106105780601f106105e557610100808354040283529160200191610610565b820191906000526020600020905b8154815290600101906020018083116105f357829003601f168201915b505050505081526020016001820160009054906101000a900473ffffffffffffffffffffffffffffffffffffffff1673ffffffffffffffffffffffffffffffffffffffff1673ffffffffffffffffffffffffffffffffffffffff1681526020016002820160009054906101000a900473ffffffffffffffffffffffffffffffffffffffff1673ffffffffffffffffffffffffffffffffffffffff1673ffffffffffffffffffffffffffffffffffffffff168152505081526020019060010190610564565b50505050815250508486815181106106ef576106ee61339e565b5b602002602001018190525061070585600161293e565b945050505b8080610715906133cd565b91505061028e565b5080935050505090565b6000600454905090565b6060600061073f6001612930565b90506000808167ffffffffffffffff81111561075e5761075d613043565b5b60405190808252806020026020018201604052801561079757816020015b610784612a60565b81526020019060019003908161077c5790505b50905060005b83811015610bf25760011515600560006001846107ba91906132e7565b815260200190815260200160002060060160019054906101000a900460ff1615151415610bdf576000600560006001846107f491906132e7565b815260200190815260200160002060000154905060006005600083815260200190815260200160002090508060405180610140016040529081600082015481526020016001820160009054906101000a900473ffffffffffffffffffffffffffffffffffffffff1673ffffffffffffffffffffffffffffffffffffffff1673ffffffffffffffffffffffffffffffffffffffff1681526020016002820160009054906101000a900473ffffffffffffffffffffffffffffffffffffffff1673ffffffffffffffffffffffffffffffffffffffff1673ffffffffffffffffffffffffffffffffffffffff1681526020016003820160009054906101000a900473ffffffffffffffffffffffffffffffffffffffff1673ffffffffffffffffffffffffffffffffffffffff1673ffffffffffffffffffffffffffffffffffffffff16815260200160048201548152602001600582015481526020016006820160009054906101000a900460ff161515151581526020016006820160019054906101000a900460ff161515151581526020016007820180546109929061336c565b80601f01602080910402602001604051908101604052809291908181526020018280546109be9061336c565b8015610a0b5780601f106109e057610100808354040283529160200191610a0b565b820191906000526020600020905b8154815290600101906020018083116109ee57829003601f168201915b5050505050815260200160088201805480602002602001604051908101604052809291908181526020016000905b82821015610ba95783829060005260206000209060030201604051806060016040529081600082018054610a6c9061336c565b80601f0160208091040260200160405190810160405280929190818152602001828054610a989061336c565b8015610ae55780601f10610aba57610100808354040283529160200191610ae5565b820191906000526020600020905b815481529060010190602001808311610ac857829003601f168201915b505050505081526020016001820160009054906101000a900473ffffffffffffffffffffffffffffffffffffffff1673ffffffffffffffffffffffffffffffffffffffff1673ffffffffffffffffffffffffffffffffffffffff1681526020016002820160009054906101000a900473ffffffffffffffffffffffffffffffffffffffff1673ffffffffffffffffffffffffffffffffffffffff1673ffffffffffffffffffffffffffffffffffffffff168152505081526020019060010190610a39565b5050505081525050848681518110610bc457610bc361339e565b5b6020026020010181905250610bda85600161293e565b945050505b8080610bea906133cd565b91505061079d565b5080935050505090565b60026000541415610c42576040517f08c379a0000000000000000000000000000000000000000000000000000000008152600401610c3990613473565b60405180910390fd5b6002600081905550600060056000838152602001908152602001600020905060008160050154905060008260040154905060008360010160009054906101000a900473ffffffffffffffffffffffffffffffffffffffff169050823414610cde576040517f08c379a0000000000000000000000000000000000000000000000000000000008152600401610cd590613505565b60405180910390fd5b60008460030160009054906101000a900473ffffffffffffffffffffffffffffffffffffffff169050338560030160006101000a81548173ffffffffffffffffffffffffffffffffffffffff021916908373ffffffffffffffffffffffffffffffffffffffff16021790555060018560060160006101000a81548160ff0219169083151502179055508460080160405180606001604052806040518060400160405280600881526020017f73656c6c2f42757900000000000000000000000000000000000000000000000081525081526020018373ffffffffffffffffffffffffffffffffffffffff1681526020013373ffffffffffffffffffffffffffffffffffffffff1681525090806001815401808255809150506001900390600052602060002090600302016000909190919091506000820151816000019080519060200190610e2c929190612af9565b5060208201518160010160006101000a81548173ffffffffffffffffffffffffffffffffffffffff021916908373ffffffffffffffffffffffffffffffffffffffff16021790555060408201518160020160006101000a81548173ffffffffffffffffffffffffffffffffffffffff021916908373ffffffffffffffffffffffffffffffffffffffff1602179055505050610ec7600261299c565b8173ffffffffffffffffffffffffffffffffffffffff166323b872dd8373ffffffffffffffffffffffffffffffffffffffff16636352211e866040518263ffffffff1660e01b8152600401610f1c9190612fb1565b60206040518083038186803b158015610f3457600080fd5b505afa158015610f48573d6000803e3d6000fd5b505050506040513d601f19601f82011682018060405250810190610f6c919061353a565b33866040518463ffffffff1660e01b8152600401610f8c93929190613576565b600060405180830381600087803b158015610fa657600080fd5b505af1158015610fba573d6000803e3d6000fd5b505050508073ffffffffffffffffffffffffffffffffffffffff166108fc349081150290604051600060405180830381858888f19350505050158015611004573d6000803e3d6000fd5b5060008560020160009054906101000a900473ffffffffffffffffffffffffffffffffffffffff1673ffffffffffffffffffffffffffffffffffffffff16600454604051611051906135de565b60006040518083038185875af1925050503d806000811461108e576040519150601f19603f3d011682016040523d82523d6000602084013e611093565b606091505b50509050806110d7576040517f08c379a00000000000000000000000000000000000000000000000000000000081526004016110ce90613665565b60405180910390fd5b505050505050600160008190555050565b6002600054141561112e576040517f08c379a000000000000000000000000000000000000000000000000000000000815260040161112590613473565b60405180910390fd5b60026000819055506005600082815260200190815260200160002060010160009054906101000a900473ffffffffffffffffffffffffffffffffffffffff1660056000838152602001908152602001600020600401548173ffffffffffffffffffffffffffffffffffffffff16636352211e826040518263ffffffff1660e01b81526004016111bd9190612fb1565b60206040518083038186803b1580156111d557600080fd5b505afa1580156111e9573d6000803e3d6000fd5b505050506040513d601f19601f8201168201806040525081019061120d919061353a565b73ffffffffffffffffffffffffffffffffffffffff163373ffffffffffffffffffffffffffffffffffffffff161461127a576040517f08c379a0000000000000000000000000000000000000000000000000000000008152600401611271906136d1565b60405180910390fd5b6000600560008581526020019081526020016000209050848160070190805190602001906112a9929190612af9565b507f1a0923a4d84ecf9a541f86d8590689ead46730c692317a27addb8fa94685957e8686866040516112dd9392919061372a565b60405180910390a15050506001600081905550505050565b606060006113036001612930565b905060006113236113146001612930565b61131e6002612930565b6129b2565b90506000808267ffffffffffffffff81111561134257611341613043565b5b60405190808252806020026020018201604052801561137b57816020015b611368612a60565b8152602001906001900390816113605790505b50905060005b848110156117ce576005600060018361139a91906132e7565b815260200190815260200160002060060160009054906101000a900460ff166117bb576000600560006001846113d091906132e7565b815260200190815260200160002060000154905060006005600083815260200190815260200160002090508060405180610140016040529081600082015481526020016001820160009054906101000a900473ffffffffffffffffffffffffffffffffffffffff1673ffffffffffffffffffffffffffffffffffffffff1673ffffffffffffffffffffffffffffffffffffffff1681526020016002820160009054906101000a900473ffffffffffffffffffffffffffffffffffffffff1673ffffffffffffffffffffffffffffffffffffffff1673ffffffffffffffffffffffffffffffffffffffff1681526020016003820160009054906101000a900473ffffffffffffffffffffffffffffffffffffffff1673ffffffffffffffffffffffffffffffffffffffff1673ffffffffffffffffffffffffffffffffffffffff16815260200160048201548152602001600582015481526020016006820160009054906101000a900460ff161515151581526020016006820160019054906101000a900460ff1615151515815260200160078201805461156e9061336c565b80601f016020809104026020016040519081016040528092919081815260200182805461159a9061336c565b80156115e75780601f106115bc576101008083540402835291602001916115e7565b820191906000526020600020905b8154815290600101906020018083116115ca57829003601f168201915b5050505050815260200160088201805480602002602001604051908101604052809291908181526020016000905b8282101561178557838290600052602060002090600302016040518060600160405290816000820180546116489061336c565b80601f01602080910402602001604051908101604052809291908181526020018280546116749061336c565b80156116c15780601f10611696576101008083540402835291602001916116c1565b820191906000526020600020905b8154815290600101906020018083116116a457829003601f168201915b505050505081526020016001820160009054906101000a900473ffffffffffffffffffffffffffffffffffffffff1673ffffffffffffffffffffffffffffffffffffffff1673ffffffffffffffffffffffffffffffffffffffff1681526020016002820160009054906101000a900473ffffffffffffffffffffffffffffffffffffffff1673ffffffffffffffffffffffffffffffffffffffff1673ffffffffffffffffffffffffffffffffffffffff168152505081526020019060010190611615565b50505050815250508486815181106117a05761179f61339e565b5b60200260200101819052506117b685600161293e565b945050505b80806117c6906133cd565b915050611381565b508094505050505090565b6002600054141561181f576040517f08c379a000000000000000000000000000000000000000000000000000000000815260040161181690613473565b60405180910390fd5b60026000819055506000600560008381526020019081526020016000209050600081600701805461184f9061336c565b90501415611892576040517f08c379a0000000000000000000000000000000000000000000000000000000008152600401611889906137e1565b60405180910390fd5b60008160040154905060008260010160009054906101000a900473ffffffffffffffffffffffffffffffffffffffff169050848360030160006101000a81548173ffffffffffffffffffffffffffffffffffffffff021916908373ffffffffffffffffffffffffffffffffffffffff16021790555060018360060160016101000a81548160ff0219169083151502179055508260080160405180606001604052806040518060400160405280600681526020017f476966746564000000000000000000000000000000000000000000000000000081525081526020013373ffffffffffffffffffffffffffffffffffffffff1681526020018773ffffffffffffffffffffffffffffffffffffffff16815250908060018154018082558091505060019003906000526020600020906003020160009091909190915060008201518160000190805190602001906119e9929190612af9565b5060208201518160010160006101000a81548173ffffffffffffffffffffffffffffffffffffffff021916908373ffffffffffffffffffffffffffffffffffffffff16021790555060408201518160020160006101000a81548173ffffffffffffffffffffffffffffffffffffffff021916908373ffffffffffffffffffffffffffffffffffffffff16021790555050508073ffffffffffffffffffffffffffffffffffffffff166323b872dd8273ffffffffffffffffffffffffffffffffffffffff16636352211e856040518263ffffffff1660e01b8152600401611acf9190612fb1565b60206040518083038186803b158015611ae757600080fd5b505afa158015611afb573d6000803e3d6000fd5b505050506040513d601f19601f82011682018060405250810190611b1f919061353a565b33856040518463ffffffff1660e01b8152600401611b3f93929190613576565b600060405180830381600087803b158015611b5957600080fd5b505af1158015611b6d573d6000803e3d6000fd5b5050505050505060016000819055505050565b60026000541415611bc6576040517f08c379a0000000000000000000000000000000000000000000000000000000008152600401611bbd90613473565b60405180910390fd5b600260008190555060003411611c11576040517f08c379a0000000000000000000000000000000000000000000000000000000008152600401611c0890613873565b60405180910390fd5b6004543414611c55576040517f08c379a0000000000000000000000000000000000000000000000000000000008152600401611c4c90613905565b60405180910390fd5b611c5f600161299c565b6000611c6b6001612930565b90506000600560008381526020019081526020016000209050818160000181905550848160010160006101000a81548173ffffffffffffffffffffffffffffffffffffffff021916908373ffffffffffffffffffffffffffffffffffffffff160217905550338160020160006101000a81548173ffffffffffffffffffffffffffffffffffffffff021916908373ffffffffffffffffffffffffffffffffffffffff160217905550338160030160006101000a81548173ffffffffffffffffffffffffffffffffffffffff021916908373ffffffffffffffffffffffffffffffffffffffff16021790555083816005018190555082816004018190555060405180602001604052806000815250816007019080519060200190611d8f929190612af9565b508060080160405180606001604052806040518060400160405280600781526020017f437265617465640000000000000000000000000000000000000000000000000081525081526020013373ffffffffffffffffffffffffffffffffffffffff1681526020013373ffffffffffffffffffffffffffffffffffffffff1681525090806001815401808255809150506001900390600052602060002090600302016000909190919091506000820151816000019080519060200190611e55929190612af9565b5060208201518160010160006101000a81548173ffffffffffffffffffffffffffffffffffffffff021916908373ffffffffffffffffffffffffffffffffffffffff16021790555060408201518160020160006101000a81548173ffffffffffffffffffffffffffffffffffffffff021916908373ffffffffffffffffffffffffffffffffffffffff16021790555050503373ffffffffffffffffffffffffffffffffffffffff163373ffffffffffffffffffffffffffffffffffffffff168673ffffffffffffffffffffffffffffffffffffffff167fe63e6130091e2155004c4b5ac35e8fb9be704d6637ff3068a8f710ba36c9f41a60405160405180910390a450506001600081905550505050565b60606000611f746001612930565b90506000808167ffffffffffffffff811115611f9357611f92613043565b5b604051908082528060200260200182016040528015611fcc57816020015b611fb9612a60565b815260200190600190039081611fb15790505b50905060005b8381101561242157600060056000600184611fed91906132e7565b815260200190815260200160002060070180546120099061336c565b90501461240e5760006005600060018461202391906132e7565b815260200190815260200160002060000154905060006005600083815260200190815260200160002090508060405180610140016040529081600082015481526020016001820160009054906101000a900473ffffffffffffffffffffffffffffffffffffffff1673ffffffffffffffffffffffffffffffffffffffff1673ffffffffffffffffffffffffffffffffffffffff1681526020016002820160009054906101000a900473ffffffffffffffffffffffffffffffffffffffff1673ffffffffffffffffffffffffffffffffffffffff1673ffffffffffffffffffffffffffffffffffffffff1681526020016003820160009054906101000a900473ffffffffffffffffffffffffffffffffffffffff1673ffffffffffffffffffffffffffffffffffffffff1673ffffffffffffffffffffffffffffffffffffffff16815260200160048201548152602001600582015481526020016006820160009054906101000a900460ff161515151581526020016006820160019054906101000a900460ff161515151581526020016007820180546121c19061336c565b80601f01602080910402602001604051908101604052809291908181526020018280546121ed9061336c565b801561223a5780601f1061220f5761010080835404028352916020019161223a565b820191906000526020600020905b81548152906001019060200180831161221d57829003601f168201915b5050505050815260200160088201805480602002602001604051908101604052809291908181526020016000905b828210156123d8578382906000526020600020906003020160405180606001604052908160008201805461229b9061336c565b80601f01602080910402602001604051908101604052809291908181526020018280546122c79061336c565b80156123145780601f106122e957610100808354040283529160200191612314565b820191906000526020600020905b8154815290600101906020018083116122f757829003601f168201915b505050505081526020016001820160009054906101000a900473ffffffffffffffffffffffffffffffffffffffff1673ffffffffffffffffffffffffffffffffffffffff1673ffffffffffffffffffffffffffffffffffffffff1681526020016002820160009054906101000a900473ffffffffffffffffffffffffffffffffffffffff1673ffffffffffffffffffffffffffffffffffffffff1673ffffffffffffffffffffffffffffffffffffffff168152505081526020019060010190612268565b50505050815250508486815181106123f3576123f261339e565b5b602002602001018190525061240985600161293e565b945050505b8080612419906133cd565b915050611fd2565b5080935050505090565b606060006124396001612930565b90506000808167ffffffffffffffff81111561245857612457613043565b5b60405190808252806020026020018201604052801561249157816020015b61247e612a60565b8152602001906001900390816124765790505b50905060005b83811015612926573373ffffffffffffffffffffffffffffffffffffffff16600560006001846124c791906132e7565b815260200190815260200160002060020160009054906101000a900473ffffffffffffffffffffffffffffffffffffffff1673ffffffffffffffffffffffffffffffffffffffff1614156129135760006005600060018461252891906132e7565b815260200190815260200160002060000154905060006005600083815260200190815260200160002090508060405180610140016040529081600082015481526020016001820160009054906101000a900473ffffffffffffffffffffffffffffffffffffffff1673ffffffffffffffffffffffffffffffffffffffff1673ffffffffffffffffffffffffffffffffffffffff1681526020016002820160009054906101000a900473ffffffffffffffffffffffffffffffffffffffff1673ffffffffffffffffffffffffffffffffffffffff1673ffffffffffffffffffffffffffffffffffffffff1681526020016003820160009054906101000a900473ffffffffffffffffffffffffffffffffffffffff1673ffffffffffffffffffffffffffffffffffffffff1673ffffffffffffffffffffffffffffffffffffffff16815260200160048201548152602001600582015481526020016006820160009054906101000a900460ff161515151581526020016006820160019054906101000a900460ff161515151581526020016007820180546126c69061336c565b80601f01602080910402602001604051908101604052809291908181526020018280546126f29061336c565b801561273f5780601f106127145761010080835404028352916020019161273f565b820191906000526020600020905b81548152906001019060200180831161272257829003601f168201915b5050505050815260200160088201805480602002602001604051908101604052809291908181526020016000905b828210156128dd57838290600052602060002090600302016040518060600160405290816000820180546127a09061336c565b80601f01602080910402602001604051908101604052809291908181526020018280546127cc9061336c565b80156128195780601f106127ee57610100808354040283529160200191612819565b820191906000526020600020905b8154815290600101906020018083116127fc57829003601f168201915b505050505081526020016001820160009054906101000a900473ffffffffffffffffffffffffffffffffffffffff1673ffffffffffffffffffffffffffffffffffffffff1673ffffffffffffffffffffffffffffffffffffffff1681526020016002820160009054906101000a900473ffffffffffffffffffffffffffffffffffffffff1673ffffffffffffffffffffffffffffffffffffffff1673ffffffffffffffffffffffffffffffffffffffff16815250508152602001906001019061276d565b50505050815250508486815181106128f8576128f761339e565b5b602002602001018190525061290e85600161293e565b945050505b808061291e906133cd565b915050612497565b5080935050505090565b600081600001549050919050565b600080828461294d91906132e7565b905083811015612992576040517f08c379a000000000000000000000000000000000000000000000000000000000815260040161298990613971565b60405180910390fd5b8091505092915050565b6001816000016000828254019250508190555050565b60006129f483836040518060400160405280601e81526020017f536166654d6174683a207375627472616374696f6e206f766572666c6f7700008152506129fc565b905092915050565b6000838311158290612a44576040517f08c379a0000000000000000000000000000000000000000000000000000000008152600401612a3b9190613991565b60405180910390fd5b5060008385612a5391906139b3565b9050809150509392505050565b60405180610140016040528060008152602001600073ffffffffffffffffffffffffffffffffffffffff168152602001600073ffffffffffffffffffffffffffffffffffffffff168152602001600073ffffffffffffffffffffffffffffffffffffffff168152602001600081526020016000815260200160001515815260200160001515815260200160608152602001606081525090565b828054612b059061336c565b90600052602060002090601f016020900481019282612b275760008555612b6e565b82601f10612b4057805160ff1916838001178555612b6e565b82800160010185558215612b6e579182015b82811115612b6d578251825591602001919060010190612b52565b5b509050612b7b9190612b7f565b5090565b5b80821115612b98576000816000905550600101612b80565b5090565b600081519050919050565b600082825260208201905092915050565b6000819050602082019050919050565b6000819050919050565b612bdb81612bc8565b82525050565b600073ffffffffffffffffffffffffffffffffffffffff82169050919050565b6000612c0c82612be1565b9050919050565b612c1c81612c01565b82525050565b6000612c2d82612be1565b9050919050565b612c3d81612c22565b82525050565b60008115159050919050565b612c5881612c43565b82525050565b600081519050919050565b600082825260208201905092915050565b60005b83811015612c98578082015181840152602081019050612c7d565b83811115612ca7576000848401525b50505050565b6000601f19601f8301169050919050565b6000612cc982612c5e565b612cd38185612c69565b9350612ce3818560208601612c7a565b612cec81612cad565b840191505092915050565b600081519050919050565b600082825260208201905092915050565b6000819050602082019050919050565b60006060830160008301518482036000860152612d408282612cbe565b9150506020830151612d556020860182612c13565b506040830151612d686040860182612c13565b508091505092915050565b6000612d7f8383612d23565b905092915050565b6000602082019050919050565b6000612d9f82612cf7565b612da98185612d02565b935083602082028501612dbb85612d13565b8060005b85811015612df75784840389528151612dd88582612d73565b9450612de383612d87565b925060208a01995050600181019050612dbf565b50829750879550505050505092915050565b600061014083016000830151612e226000860182612bd2565b506020830151612e356020860182612c13565b506040830151612e486040860182612c34565b506060830151612e5b6060860182612c34565b506080830151612e6e6080860182612bd2565b5060a0830151612e8160a0860182612bd2565b5060c0830151612e9460c0860182612c4f565b5060e0830151612ea760e0860182612c4f565b50610100830151848203610100860152612ec18282612cbe565b915050610120830151848203610120860152612edd8282612d94565b9150508091505092915050565b6000612ef68383612e09565b905092915050565b6000602082019050919050565b6000612f1682612b9c565b612f208185612ba7565b935083602082028501612f3285612bb8565b8060005b85811015612f6e5784840389528151612f4f8582612eea565b9450612f5a83612efe565b925060208a01995050600181019050612f36565b50829750879550505050505092915050565b60006020820190508181036000830152612f9a8184612f0b565b905092915050565b612fab81612bc8565b82525050565b6000602082019050612fc66000830184612fa2565b92915050565b6000604051905090565b600080fd5b600080fd5b612fe981612bc8565b8114612ff457600080fd5b50565b60008135905061300681612fe0565b92915050565b60006020828403121561302257613021612fd6565b5b600061303084828501612ff7565b91505092915050565b600080fd5b600080fd5b7f4e487b7100000000000000000000000000000000000000000000000000000000600052604160045260246000fd5b61307b82612cad565b810181811067ffffffffffffffff8211171561309a57613099613043565b5b80604052505050565b60006130ad612fcc565b90506130b98282613072565b919050565b600067ffffffffffffffff8211156130d9576130d8613043565b5b6130e282612cad565b9050602081019050919050565b82818337600083830152505050565b600061311161310c846130be565b6130a3565b90508281526020810184848401111561312d5761312c61303e565b5b6131388482856130ef565b509392505050565b600082601f83011261315557613154613039565b5b81356131658482602086016130fe565b91505092915050565b60008060006060848603121561318757613186612fd6565b5b600084013567ffffffffffffffff8111156131a5576131a4612fdb565b5b6131b186828701613140565b935050602084013567ffffffffffffffff8111156131d2576131d1612fdb565b5b6131de86828701613140565b92505060406131ef86828701612ff7565b9150509250925092565b61320281612c01565b811461320d57600080fd5b50565b60008135905061321f816131f9565b92915050565b6000806040838503121561323c5761323b612fd6565b5b600061324a85828601613210565b925050602061325b85828601612ff7565b9150509250929050565b60008060006060848603121561327e5761327d612fd6565b5b600061328c86828701613210565b935050602061329d86828701612ff7565b92505060406132ae86828701612ff7565b9150509250925092565b7f4e487b7100000000000000000000000000000000000000000000000000000000600052601160045260246000fd5b60006132f282612bc8565b91506132fd83612bc8565b9250827fffffffffffffffffffffffffffffffffffffffffffffffffffffffffffffffff03821115613332576133316132b8565b5b828201905092915050565b7f4e487b7100000000000000000000000000000000000000000000000000000000600052602260045260246000fd5b6000600282049050600182168061338457607f821691505b602082108114156133985761339761333d565b5b50919050565b7f4e487b7100000000000000000000000000000000000000000000000000000000600052603260045260246000fd5b60006133d882612bc8565b91507fffffffffffffffffffffffffffffffffffffffffffffffffffffffffffffffff82141561340b5761340a6132b8565b5b600182019050919050565b600082825260208201905092915050565b7f5265656e7472616e637947756172643a207265656e7472616e742063616c6c00600082015250565b600061345d601f83613416565b915061346882613427565b602082019050919050565b6000602082019050818103600083015261348c81613450565b9050919050565b7f706c65617365207375626d6974207468652061736b696e67207072696365206960008201527f6e206f7264657220746f20636f6d706c65746520746865207075726368617365602082015250565b60006134ef604083613416565b91506134fa82613493565b604082019050919050565b6000602082019050818103600083015261351e816134e2565b9050919050565b600081519050613534816131f9565b92915050565b6000602082840312156135505761354f612fd6565b5b600061355e84828501613525565b91505092915050565b61357081612c01565b82525050565b600060608201905061358b6000830186613567565b6135986020830185613567565b6135a56040830184612fa2565b949350505050565b600081905092915050565b50565b60006135c86000836135ad565b91506135d3826135b8565b600082019050919050565b60006135e9826135bb565b9150819050919050565b7f4661696c656420746f2073656e6420457468657220746f20637265617465722060008201527f6f6620204e667400000000000000000000000000000000000000000000000000602082015250565b600061364f602783613416565b915061365a826135f3565b604082019050919050565b6000602082019050818103600083015261367e81613642565b9050919050565b7f4f6e6c79204f776e65722063616e207369676e6564206f6e204e465427730000600082015250565b60006136bb601e83613416565b91506136c682613685565b602082019050919050565b600060208201905081810360008301526136ea816136ae565b9050919050565b60006136fc82612c5e565b6137068185613416565b9350613716818560208601612c7a565b61371f81612cad565b840191505092915050565b6000606082019050818103600083015261374481866136f1565b9050818103602083015261375881856136f1565b90506137676040830184612fa2565b949350505050565b7f4e465473206973206e6f74207369676e617475726564206469676974616c6c7960008201527f2e00000000000000000000000000000000000000000000000000000000000000602082015250565b60006137cb602183613416565b91506137d68261376f565b604082019050919050565b600060208201905081810360008301526137fa816137be565b9050919050565b7f73656c6c696e67207072696365206d757374206265206772656174657220746860008201527f616e205a45524f20776569000000000000000000000000000000000000000000602082015250565b600061385d602b83613416565b915061386882613801565b604082019050919050565b6000602082019050818103600083015261388c81613850565b9050919050565b7f5072696365206d75737420626520657175616c20746f206c697374696e67207060008201527f7269636500000000000000000000000000000000000000000000000000000000602082015250565b60006138ef602483613416565b91506138fa82613893565b604082019050919050565b6000602082019050818103600083015261391e816138e2565b9050919050565b7f536166654d6174683a206164646974696f6e206f766572666c6f770000000000600082015250565b600061395b601b83613416565b915061396682613925565b602082019050919050565b6000602082019050818103600083015261398a8161394e565b9050919050565b600060208201905081810360008301526139ab81846136f1565b905092915050565b60006139be82612bc8565b91506139c983612bc8565b9250828210156139dc576139db6132b8565b5b82820390509291505056fea2646970667358221220410f3e7fc235c3438ac3bb769135ac34c903897e3f9dd6fa6fa68df7f805ffee64736f6c63430008090033",
  "linkReferences": {},
  "deployedLinkReferences": {}
}