{
  "contractName": "MyNft",
  "abi": [
    {
      "inputs": [
        {
          "internalType": "string",
          "name": "_NftName",
          "type": "string"
        },
        {
          "internalType": "string",
          "name": "_nftSymbol",
          "type": "string"
        },
        {
          "internalType": "address",
          "name": "MarketPlaceAddress",
          "type": "address"
        }
      ],
      "stateMutability": "nonpayable",
      "type": "constructor"
    },
    {
      "anonymous": false,
      "inputs": [
        {
          "indexed": true,
          "internalType": "address",
          "name": "owner",
          "type": "address"
        },
        {
          "indexed": true,
          "internalType": "address",
          "name": "approved",
          "type": "address"
        },
        {
          "indexed": true,
          "internalType": "uint256",
          "name": "tokenId",
          "type": "uint256"
        }
      ],
      "name": "Approval",
      "type": "event"
    },
    {
      "anonymous": false,
      "inputs": [
        {
          "indexed": true,
          "internalType": "address",
          "name": "owner",
          "type": "address"
        },
        {
          "indexed": true,
          "internalType": "address",
          "name": "operator",
          "type": "address"
        },
        {
          "indexed": false,
          "internalType": "bool",
          "name": "approved",
          "type": "bool"
        }
      ],
      "name": "ApprovalForAll",
      "type": "event"
    },
    {
      "anonymous": false,
      "inputs": [
        {
          "indexed": true,
          "internalType": "address",
          "name": "from",
          "type": "address"
        },
        {
          "indexed": true,
          "internalType": "address",
          "name": "to",
          "type": "address"
        },
        {
          "indexed": true,
          "internalType": "uint256",
          "name": "tokenId",
          "type": "uint256"
        }
      ],
      "name": "Transfer",
      "type": "event"
    },
    {
      "inputs": [
        {
          "internalType": "address",
          "name": "to",
          "type": "address"
        },
        {
          "internalType": "uint256",
          "name": "tokenId",
          "type": "uint256"
        }
      ],
      "name": "approve",
      "outputs": [],
      "stateMutability": "nonpayable",
      "type": "function"
    },
    {
      "inputs": [
        {
          "internalType": "address",
          "name": "owner",
          "type": "address"
        }
      ],
      "name": "balanceOf",
      "outputs": [
        {
          "internalType": "uint256",
          "name": "",
          "type": "uint256"
        }
      ],
      "stateMutability": "view",
      "type": "function"
    },
    {
      "inputs": [
        {
          "internalType": "uint256",
          "name": "tokenId",
          "type": "uint256"
        }
      ],
      "name": "getApproved",
      "outputs": [
        {
          "internalType": "address",
          "name": "",
          "type": "address"
        }
      ],
      "stateMutability": "view",
      "type": "function"
    },
    {
      "inputs": [
        {
          "internalType": "address",
          "name": "owner",
          "type": "address"
        },
        {
          "internalType": "address",
          "name": "operator",
          "type": "address"
        }
      ],
      "name": "isApprovedForAll",
      "outputs": [
        {
          "internalType": "bool",
          "name": "",
          "type": "bool"
        }
      ],
      "stateMutability": "view",
      "type": "function"
    },
    {
      "inputs": [],
      "name": "name",
      "outputs": [
        {
          "internalType": "string",
          "name": "",
          "type": "string"
        }
      ],
      "stateMutability": "view",
      "type": "function"
    },
    {
      "inputs": [
        {
          "internalType": "uint256",
          "name": "tokenId",
          "type": "uint256"
        }
      ],
      "name": "ownerOf",
      "outputs": [
        {
          "internalType": "address",
          "name": "",
          "type": "address"
        }
      ],
      "stateMutability": "view",
      "type": "function"
    },
    {
      "inputs": [
        {
          "internalType": "address",
          "name": "from",
          "type": "address"
        },
        {
          "internalType": "address",
          "name": "to",
          "type": "address"
        },
        {
          "internalType": "uint256",
          "name": "tokenId",
          "type": "uint256"
        }
      ],
      "name": "safeTransferFrom",
      "outputs": [],
      "stateMutability": "nonpayable",
      "type": "function"
    },
    {
      "inputs": [
        {
          "internalType": "address",
          "name": "from",
          "type": "address"
        },
        {
          "internalType": "address",
          "name": "to",
          "type": "address"
        },
        {
          "internalType": "uint256",
          "name": "tokenId",
          "type": "uint256"
        },
        {
          "internalType": "bytes",
          "name": "data",
          "type": "bytes"
        }
      ],
      "name": "safeTransferFrom",
      "outputs": [],
      "stateMutability": "nonpayable",
      "type": "function"
    },
    {
      "inputs": [
        {
          "internalType": "address",
          "name": "operator",
          "type": "address"
        },
        {
          "internalType": "bool",
          "name": "approved",
          "type": "bool"
        }
      ],
      "name": "setApprovalForAll",
      "outputs": [],
      "stateMutability": "nonpayable",
      "type": "function"
    },
    {
      "inputs": [
        {
          "internalType": "bytes4",
          "name": "interfaceId",
          "type": "bytes4"
        }
      ],
      "name": "supportsInterface",
      "outputs": [
        {
          "internalType": "bool",
          "name": "",
          "type": "bool"
        }
      ],
      "stateMutability": "view",
      "type": "function"
    },
    {
      "inputs": [],
      "name": "symbol",
      "outputs": [
        {
          "internalType": "string",
          "name": "",
          "type": "string"
        }
      ],
      "stateMutability": "view",
      "type": "function"
    },
    {
      "inputs": [
        {
          "internalType": "uint256",
          "name": "tokenId",
          "type": "uint256"
        }
      ],
      "name": "tokenURI",
      "outputs": [
        {
          "internalType": "string",
          "name": "",
          "type": "string"
        }
      ],
      "stateMutability": "view",
      "type": "function"
    },
    {
      "inputs": [
        {
          "internalType": "address",
          "name": "from",
          "type": "address"
        },
        {
          "internalType": "address",
          "name": "to",
          "type": "address"
        },
        {
          "internalType": "uint256",
          "name": "tokenId",
          "type": "uint256"
        }
      ],
      "name": "transferFrom",
      "outputs": [],
      "stateMutability": "nonpayable",
      "type": "function"
    },
    {
      "inputs": [
        {
          "internalType": "string",
          "name": "tokenURI",
          "type": "string"
        }
      ],
      "name": "CreatToken",
      "outputs": [
        {
          "internalType": "uint256",
          "name": "",
          "type": "uint256"
        }
      ],
      "stateMutability": "nonpayable",
      "type": "function"
    }
  ],
  "bytecode": "0x60806040523480156200001157600080fd5b5060405162003102380380620031028339818101604052810190620000379190620002ab565b828281600090816200004a919062000590565b5080600190816200005c919062000590565b50505080600860006101000a81548173ffffffffffffffffffffffffffffffffffffffff021916908373ffffffffffffffffffffffffffffffffffffffff16021790555050505062000677565b6000604051905090565b600080fd5b600080fd5b600080fd5b600080fd5b6000601f19601f8301169050919050565b7f4e487b7100000000000000000000000000000000000000000000000000000000600052604160045260246000fd5b6200011282620000c7565b810181811067ffffffffffffffff82111715620001345762000133620000d8565b5b80604052505050565b600062000149620000a9565b905062000157828262000107565b919050565b600067ffffffffffffffff8211156200017a5762000179620000d8565b5b6200018582620000c7565b9050602081019050919050565b60005b83811015620001b257808201518184015260208101905062000195565b83811115620001c2576000848401525b50505050565b6000620001df620001d9846200015c565b6200013d565b905082815260208101848484011115620001fe57620001fd620000c2565b5b6200020b84828562000192565b509392505050565b600082601f8301126200022b576200022a620000bd565b5b81516200023d848260208601620001c8565b91505092915050565b600073ffffffffffffffffffffffffffffffffffffffff82169050919050565b6000620002738262000246565b9050919050565b620002858162000266565b81146200029157600080fd5b50565b600081519050620002a5816200027a565b92915050565b600080600060608486031215620002c757620002c6620000b3565b5b600084015167ffffffffffffffff811115620002e857620002e7620000b8565b5b620002f68682870162000213565b935050602084015167ffffffffffffffff8111156200031a5762000319620000b8565b5b620003288682870162000213565b92505060406200033b8682870162000294565b9150509250925092565b600081519050919050565b7f4e487b7100000000000000000000000000000000000000000000000000000000600052602260045260246000fd5b600060028204905060018216806200039857607f821691505b602082108103620003ae57620003ad62000350565b5b50919050565b60008190508160005260206000209050919050565b60006020601f8301049050919050565b600082821b905092915050565b600060088302620004187fffffffffffffffffffffffffffffffffffffffffffffffffffffffffffffffff82620003d9565b620004248683620003d9565b95508019841693508086168417925050509392505050565b6000819050919050565b6000819050919050565b6000620004716200046b62000465846200043c565b62000446565b6200043c565b9050919050565b6000819050919050565b6200048d8362000450565b620004a56200049c8262000478565b848454620003e6565b825550505050565b600090565b620004bc620004ad565b620004c981848462000482565b505050565b5b81811015620004f157620004e5600082620004b2565b600181019050620004cf565b5050565b601f82111562000540576200050a81620003b4565b6200051584620003c9565b8101602085101562000525578190505b6200053d6200053485620003c9565b830182620004ce565b50505b505050565b600082821c905092915050565b6000620005656000198460080262000545565b1980831691505092915050565b600062000580838362000552565b9150826002028217905092915050565b6200059b8262000345565b67ffffffffffffffff811115620005b757620005b6620000d8565b5b620005c382546200037f565b620005d0828285620004f5565b600060209050601f831160018114620006085760008415620005f3578287015190505b620005ff858262000572565b8655506200066f565b601f1984166200061886620003b4565b60005b8281101562000642578489015182556001820191506020850194506020810190506200061b565b868310156200066257848901516200065e601f89168262000552565b8355505b6001600288020188555050505b505050505050565b612a7b80620006876000396000f3fe608060405234801561001057600080fd5b50600436106100ea5760003560e01c80636352211e1161008c578063a22cb46511610066578063a22cb4651461026f578063b88d4fde1461028b578063c87b56dd146102a7578063e985e9c5146102d7576100ea565b80636352211e146101f157806370a082311461022157806395d89b4114610251576100ea565b8063095ea7b3116100c8578063095ea7b31461016d57806323b872dd1461018957806329924514146101a557806342842e0e146101d5576100ea565b806301ffc9a7146100ef57806306fdde031461011f578063081812fc1461013d575b600080fd5b610109600480360381019061010491906117e2565b610307565b604051610116919061182a565b60405180910390f35b6101276103e9565b60405161013491906118de565b60405180910390f35b61015760048036038101906101529190611936565b61047b565b60405161016491906119a4565b60405180910390f35b610187600480360381019061018291906119eb565b6104c1565b005b6101a3600480360381019061019e9190611a2b565b6105d8565b005b6101bf60048036038101906101ba9190611bb3565b610638565b6040516101cc9190611c0b565b60405180910390f35b6101ef60048036038101906101ea9190611a2b565b61069c565b005b61020b60048036038101906102069190611936565b6106bc565b60405161021891906119a4565b60405180910390f35b61023b60048036038101906102369190611c26565b61076d565b6040516102489190611c0b565b60405180910390f35b610259610824565b60405161026691906118de565b60405180910390f35b61028960048036038101906102849190611c7f565b6108b6565b005b6102a560048036038101906102a09190611d60565b6108cc565b005b6102c160048036038101906102bc9190611936565b61092e565b6040516102ce91906118de565b60405180910390f35b6102f160048036038101906102ec9190611de3565b610a40565b6040516102fe919061182a565b60405180910390f35b60007f80ac58cd000000000000000000000000000000000000000000000000000000007bffffffffffffffffffffffffffffffffffffffffffffffffffffffff1916827bffffffffffffffffffffffffffffffffffffffffffffffffffffffff191614806103d257507f5b5e139f000000000000000000000000000000000000000000000000000000007bffffffffffffffffffffffffffffffffffffffffffffffffffffffff1916827bffffffffffffffffffffffffffffffffffffffffffffffffffffffff1916145b806103e257506103e182610ad4565b5b9050919050565b6060600080546103f890611e52565b80601f016020809104026020016040519081016040528092919081815260200182805461042490611e52565b80156104715780601f1061044657610100808354040283529160200191610471565b820191906000526020600020905b81548152906001019060200180831161045457829003601f168201915b5050505050905090565b600061048682610b3e565b6004600083815260200190815260200160002060009054906101000a900473ffffffffffffffffffffffffffffffffffffffff169050919050565b60006104cc826106bc565b90508073ffffffffffffffffffffffffffffffffffffffff168373ffffffffffffffffffffffffffffffffffffffff160361053c576040517f08c379a000000000000000000000000000000000000000000000000000000000815260040161053390611ef5565b60405180910390fd5b8073ffffffffffffffffffffffffffffffffffffffff1661055b610b89565b73ffffffffffffffffffffffffffffffffffffffff16148061058a575061058981610584610b89565b610a40565b5b6105c9576040517f08c379a00000000000000000000000000000000000000000000000000000000081526004016105c090611f87565b60405180910390fd5b6105d38383610b91565b505050565b6105e96105e3610b89565b82610c4a565b610628576040517f08c379a000000000000000000000000000000000000000000000000000000000815260040161061f90612019565b60405180910390fd5b610633838383610cdf565b505050565b60006106446007610f45565b60006106506007610f5b565b905061065c3382610f69565b6106668184611142565b610693600860009054906101000a900473ffffffffffffffffffffffffffffffffffffffff1660016108b6565b80915050919050565b6106b7838383604051806020016040528060008152506108cc565b505050565b6000806002600084815260200190815260200160002060009054906101000a900473ffffffffffffffffffffffffffffffffffffffff169050600073ffffffffffffffffffffffffffffffffffffffff168173ffffffffffffffffffffffffffffffffffffffff1603610764576040517f08c379a000000000000000000000000000000000000000000000000000000000815260040161075b90612085565b60405180910390fd5b80915050919050565b60008073ffffffffffffffffffffffffffffffffffffffff168273ffffffffffffffffffffffffffffffffffffffff16036107dd576040517f08c379a00000000000000000000000000000000000000000000000000000000081526004016107d490612117565b60405180910390fd5b600360008373ffffffffffffffffffffffffffffffffffffffff1673ffffffffffffffffffffffffffffffffffffffff168152602001908152602001600020549050919050565b60606001805461083390611e52565b80601f016020809104026020016040519081016040528092919081815260200182805461085f90611e52565b80156108ac5780601f10610881576101008083540402835291602001916108ac565b820191906000526020600020905b81548152906001019060200180831161088f57829003601f168201915b5050505050905090565b6108c86108c1610b89565b83836111af565b5050565b6108dd6108d7610b89565b83610c4a565b61091c576040517f08c379a000000000000000000000000000000000000000000000000000000000815260040161091390612019565b60405180910390fd5b6109288484848461131b565b50505050565b606061093982610b3e565b600060066000848152602001908152602001600020805461095990611e52565b80601f016020809104026020016040519081016040528092919081815260200182805461098590611e52565b80156109d25780601f106109a7576101008083540402835291602001916109d2565b820191906000526020600020905b8154815290600101906020018083116109b557829003601f168201915b5050505050905060006109e3611377565b905060008151036109f8578192505050610a3b565b600082511115610a2d578082604051602001610a15929190612173565b60405160208183030381529060405292505050610a3b565b610a368461138e565b925050505b919050565b6000600560008473ffffffffffffffffffffffffffffffffffffffff1673ffffffffffffffffffffffffffffffffffffffff16815260200190815260200160002060008373ffffffffffffffffffffffffffffffffffffffff1673ffffffffffffffffffffffffffffffffffffffff16815260200190815260200160002060009054906101000a900460ff16905092915050565b60007f01ffc9a7000000000000000000000000000000000000000000000000000000007bffffffffffffffffffffffffffffffffffffffffffffffffffffffff1916827bffffffffffffffffffffffffffffffffffffffffffffffffffffffff1916149050919050565b610b47816113f6565b610b86576040517f08c379a0000000000000000000000000000000000000000000000000000000008152600401610b7d90612085565b60405180910390fd5b50565b600033905090565b816004600083815260200190815260200160002060006101000a81548173ffffffffffffffffffffffffffffffffffffffff021916908373ffffffffffffffffffffffffffffffffffffffff160217905550808273ffffffffffffffffffffffffffffffffffffffff16610c04836106bc565b73ffffffffffffffffffffffffffffffffffffffff167f8c5be1e5ebec7d5bd14f71427d1e84f3dd0314c0f7b2291e5b200ac8c7c3b92560405160405180910390a45050565b600080610c56836106bc565b90508073ffffffffffffffffffffffffffffffffffffffff168473ffffffffffffffffffffffffffffffffffffffff161480610c985750610c978185610a40565b5b80610cd657508373ffffffffffffffffffffffffffffffffffffffff16610cbe8461047b565b73ffffffffffffffffffffffffffffffffffffffff16145b91505092915050565b8273ffffffffffffffffffffffffffffffffffffffff16610cff826106bc565b73ffffffffffffffffffffffffffffffffffffffff1614610d55576040517f08c379a0000000000000000000000000000000000000000000000000000000008152600401610d4c90612209565b60405180910390fd5b600073ffffffffffffffffffffffffffffffffffffffff168273ffffffffffffffffffffffffffffffffffffffff1603610dc4576040517f08c379a0000000000000000000000000000000000000000000000000000000008152600401610dbb9061229b565b60405180910390fd5b610dcf838383611462565b610dda600082610b91565b6001600360008573ffffffffffffffffffffffffffffffffffffffff1673ffffffffffffffffffffffffffffffffffffffff1681526020019081526020016000206000828254610e2a91906122ea565b925050819055506001600360008473ffffffffffffffffffffffffffffffffffffffff1673ffffffffffffffffffffffffffffffffffffffff1681526020019081526020016000206000828254610e81919061231e565b92505081905550816002600083815260200190815260200160002060006101000a81548173ffffffffffffffffffffffffffffffffffffffff021916908373ffffffffffffffffffffffffffffffffffffffff160217905550808273ffffffffffffffffffffffffffffffffffffffff168473ffffffffffffffffffffffffffffffffffffffff167fddf252ad1be2c89b69c2b068fc378daa952ba7f163c4a11628f55a4df523b3ef60405160405180910390a4610f40838383611467565b505050565b6001816000016000828254019250508190555050565b600081600001549050919050565b600073ffffffffffffffffffffffffffffffffffffffff168273ffffffffffffffffffffffffffffffffffffffff1603610fd8576040517f08c379a0000000000000000000000000000000000000000000000000000000008152600401610fcf906123c0565b60405180910390fd5b610fe1816113f6565b15611021576040517f08c379a00000000000000000000000000000000000000000000000000000000081526004016110189061242c565b60405180910390fd5b61102d60008383611462565b6001600360008473ffffffffffffffffffffffffffffffffffffffff1673ffffffffffffffffffffffffffffffffffffffff168152602001908152602001600020600082825461107d919061231e565b92505081905550816002600083815260200190815260200160002060006101000a81548173ffffffffffffffffffffffffffffffffffffffff021916908373ffffffffffffffffffffffffffffffffffffffff160217905550808273ffffffffffffffffffffffffffffffffffffffff16600073ffffffffffffffffffffffffffffffffffffffff167fddf252ad1be2c89b69c2b068fc378daa952ba7f163c4a11628f55a4df523b3ef60405160405180910390a461113e60008383611467565b5050565b61114b826113f6565b61118a576040517f08c379a0000000000000000000000000000000000000000000000000000000008152600401611181906124be565b60405180910390fd5b806006600084815260200190815260200160002090816111aa919061268a565b505050565b8173ffffffffffffffffffffffffffffffffffffffff168373ffffffffffffffffffffffffffffffffffffffff160361121d576040517f08c379a0000000000000000000000000000000000000000000000000000000008152600401611214906127a8565b60405180910390fd5b80600560008573ffffffffffffffffffffffffffffffffffffffff1673ffffffffffffffffffffffffffffffffffffffff16815260200190815260200160002060008473ffffffffffffffffffffffffffffffffffffffff1673ffffffffffffffffffffffffffffffffffffffff16815260200190815260200160002060006101000a81548160ff0219169083151502179055508173ffffffffffffffffffffffffffffffffffffffff168373ffffffffffffffffffffffffffffffffffffffff167f17307eab39ab6107e8899845ad3d59bd9653f200f220920489ca2b5937696c318360405161130e919061182a565b60405180910390a3505050565b611326848484610cdf565b6113328484848461146c565b611371576040517f08c379a00000000000000000000000000000000000000000000000000000000081526004016113689061283a565b60405180910390fd5b50505050565b606060405180602001604052806000815250905090565b606061139982610b3e565b60006113a3611377565b905060008151116113c357604051806020016040528060008152506113ee565b806113cd846115f3565b6040516020016113de929190612173565b6040516020818303038152906040525b915050919050565b60008073ffffffffffffffffffffffffffffffffffffffff166002600084815260200190815260200160002060009054906101000a900473ffffffffffffffffffffffffffffffffffffffff1673ffffffffffffffffffffffffffffffffffffffff1614159050919050565b505050565b505050565b600061148d8473ffffffffffffffffffffffffffffffffffffffff16611753565b156115e6578373ffffffffffffffffffffffffffffffffffffffff1663150b7a026114b6610b89565b8786866040518563ffffffff1660e01b81526004016114d894939291906128af565b6020604051808303816000875af192505050801561151457506040513d601f19601f820116820180604052508101906115119190612910565b60015b611596573d8060008114611544576040519150601f19603f3d011682016040523d82523d6000602084013e611549565b606091505b50600081510361158e576040517f08c379a00000000000000000000000000000000000000000000000000000000081526004016115859061283a565b60405180910390fd5b805181602001fd5b63150b7a0260e01b7bffffffffffffffffffffffffffffffffffffffffffffffffffffffff1916817bffffffffffffffffffffffffffffffffffffffffffffffffffffffff1916149150506115eb565b600190505b949350505050565b60606000820361163a576040518060400160405280600181526020017f3000000000000000000000000000000000000000000000000000000000000000815250905061174e565b600082905060005b6000821461166c5780806116559061293d565b915050600a8261166591906129b4565b9150611642565b60008167ffffffffffffffff81111561168857611687611a88565b5b6040519080825280601f01601f1916602001820160405280156116ba5781602001600182028036833780820191505090505b5090505b60008514611747576001826116d391906122ea565b9150600a856116e291906129e5565b60306116ee919061231e565b60f81b81838151811061170457611703612a16565b5b60200101907effffffffffffffffffffffffffffffffffffffffffffffffffffffffffffff1916908160001a905350600a8561174091906129b4565b94506116be565b8093505050505b919050565b6000808273ffffffffffffffffffffffffffffffffffffffff163b119050919050565b6000604051905090565b600080fd5b600080fd5b60007fffffffff0000000000000000000000000000000000000000000000000000000082169050919050565b6117bf8161178a565b81146117ca57600080fd5b50565b6000813590506117dc816117b6565b92915050565b6000602082840312156117f8576117f7611780565b5b6000611806848285016117cd565b91505092915050565b60008115159050919050565b6118248161180f565b82525050565b600060208201905061183f600083018461181b565b92915050565b600081519050919050565b600082825260208201905092915050565b60005b8381101561187f578082015181840152602081019050611864565b8381111561188e576000848401525b50505050565b6000601f19601f8301169050919050565b60006118b082611845565b6118ba8185611850565b93506118ca818560208601611861565b6118d381611894565b840191505092915050565b600060208201905081810360008301526118f881846118a5565b905092915050565b6000819050919050565b61191381611900565b811461191e57600080fd5b50565b6000813590506119308161190a565b92915050565b60006020828403121561194c5761194b611780565b5b600061195a84828501611921565b91505092915050565b600073ffffffffffffffffffffffffffffffffffffffff82169050919050565b600061198e82611963565b9050919050565b61199e81611983565b82525050565b60006020820190506119b96000830184611995565b92915050565b6119c881611983565b81146119d357600080fd5b50565b6000813590506119e5816119bf565b92915050565b60008060408385031215611a0257611a01611780565b5b6000611a10858286016119d6565b9250506020611a2185828601611921565b9150509250929050565b600080600060608486031215611a4457611a43611780565b5b6000611a52868287016119d6565b9350506020611a63868287016119d6565b9250506040611a7486828701611921565b9150509250925092565b600080fd5b600080fd5b7f4e487b7100000000000000000000000000000000000000000000000000000000600052604160045260246000fd5b611ac082611894565b810181811067ffffffffffffffff82111715611adf57611ade611a88565b5b80604052505050565b6000611af2611776565b9050611afe8282611ab7565b919050565b600067ffffffffffffffff821115611b1e57611b1d611a88565b5b611b2782611894565b9050602081019050919050565b82818337600083830152505050565b6000611b56611b5184611b03565b611ae8565b905082815260208101848484011115611b7257611b71611a83565b5b611b7d848285611b34565b509392505050565b600082601f830112611b9a57611b99611a7e565b5b8135611baa848260208601611b43565b91505092915050565b600060208284031215611bc957611bc8611780565b5b600082013567ffffffffffffffff811115611be757611be6611785565b5b611bf384828501611b85565b91505092915050565b611c0581611900565b82525050565b6000602082019050611c206000830184611bfc565b92915050565b600060208284031215611c3c57611c3b611780565b5b6000611c4a848285016119d6565b91505092915050565b611c5c8161180f565b8114611c6757600080fd5b50565b600081359050611c7981611c53565b92915050565b60008060408385031215611c9657611c95611780565b5b6000611ca4858286016119d6565b9250506020611cb585828601611c6a565b9150509250929050565b600067ffffffffffffffff821115611cda57611cd9611a88565b5b611ce382611894565b9050602081019050919050565b6000611d03611cfe84611cbf565b611ae8565b905082815260208101848484011115611d1f57611d1e611a83565b5b611d2a848285611b34565b509392505050565b600082601f830112611d4757611d46611a7e565b5b8135611d57848260208601611cf0565b91505092915050565b60008060008060808587031215611d7a57611d79611780565b5b6000611d88878288016119d6565b9450506020611d99878288016119d6565b9350506040611daa87828801611921565b925050606085013567ffffffffffffffff811115611dcb57611dca611785565b5b611dd787828801611d32565b91505092959194509250565b60008060408385031215611dfa57611df9611780565b5b6000611e08858286016119d6565b9250506020611e19858286016119d6565b9150509250929050565b7f4e487b7100000000000000000000000000000000000000000000000000000000600052602260045260246000fd5b60006002820490506001821680611e6a57607f821691505b602082108103611e7d57611e7c611e23565b5b50919050565b7f4552433732313a20617070726f76616c20746f2063757272656e74206f776e6560008201527f7200000000000000000000000000000000000000000000000000000000000000602082015250565b6000611edf602183611850565b9150611eea82611e83565b604082019050919050565b60006020820190508181036000830152611f0e81611ed2565b9050919050565b7f4552433732313a20617070726f76652063616c6c6572206973206e6f7420746f60008201527f6b656e206f776e6572206e6f7220617070726f76656420666f7220616c6c0000602082015250565b6000611f71603e83611850565b9150611f7c82611f15565b604082019050919050565b60006020820190508181036000830152611fa081611f64565b9050919050565b7f4552433732313a2063616c6c6572206973206e6f7420746f6b656e206f776e6560008201527f72206e6f7220617070726f766564000000000000000000000000000000000000602082015250565b6000612003602e83611850565b915061200e82611fa7565b604082019050919050565b6000602082019050818103600083015261203281611ff6565b9050919050565b7f4552433732313a20696e76616c696420746f6b656e2049440000000000000000600082015250565b600061206f601883611850565b915061207a82612039565b602082019050919050565b6000602082019050818103600083015261209e81612062565b9050919050565b7f4552433732313a2061646472657373207a65726f206973206e6f74206120766160008201527f6c6964206f776e65720000000000000000000000000000000000000000000000602082015250565b6000612101602983611850565b915061210c826120a5565b604082019050919050565b60006020820190508181036000830152612130816120f4565b9050919050565b600081905092915050565b600061214d82611845565b6121578185612137565b9350612167818560208601611861565b80840191505092915050565b600061217f8285612142565b915061218b8284612142565b91508190509392505050565b7f4552433732313a207472616e736665722066726f6d20696e636f72726563742060008201527f6f776e6572000000000000000000000000000000000000000000000000000000602082015250565b60006121f3602583611850565b91506121fe82612197565b604082019050919050565b60006020820190508181036000830152612222816121e6565b9050919050565b7f4552433732313a207472616e7366657220746f20746865207a65726f2061646460008201527f7265737300000000000000000000000000000000000000000000000000000000602082015250565b6000612285602483611850565b915061229082612229565b604082019050919050565b600060208201905081810360008301526122b481612278565b9050919050565b7f4e487b7100000000000000000000000000000000000000000000000000000000600052601160045260246000fd5b60006122f582611900565b915061230083611900565b925082821015612313576123126122bb565b5b828203905092915050565b600061232982611900565b915061233483611900565b9250827fffffffffffffffffffffffffffffffffffffffffffffffffffffffffffffffff03821115612369576123686122bb565b5b828201905092915050565b7f4552433732313a206d696e7420746f20746865207a65726f2061646472657373600082015250565b60006123aa602083611850565b91506123b582612374565b602082019050919050565b600060208201905081810360008301526123d98161239d565b9050919050565b7f4552433732313a20746f6b656e20616c7265616479206d696e74656400000000600082015250565b6000612416601c83611850565b9150612421826123e0565b602082019050919050565b6000602082019050818103600083015261244581612409565b9050919050565b7f45524337323155524953746f726167653a2055524920736574206f66206e6f6e60008201527f6578697374656e7420746f6b656e000000000000000000000000000000000000602082015250565b60006124a8602e83611850565b91506124b38261244c565b604082019050919050565b600060208201905081810360008301526124d78161249b565b9050919050565b60008190508160005260206000209050919050565b60006020601f8301049050919050565b600082821b905092915050565b6000600883026125407fffffffffffffffffffffffffffffffffffffffffffffffffffffffffffffffff82612503565b61254a8683612503565b95508019841693508086168417925050509392505050565b6000819050919050565b600061258761258261257d84611900565b612562565b611900565b9050919050565b6000819050919050565b6125a18361256c565b6125b56125ad8261258e565b848454612510565b825550505050565b600090565b6125ca6125bd565b6125d5818484612598565b505050565b5b818110156125f9576125ee6000826125c2565b6001810190506125db565b5050565b601f82111561263e5761260f816124de565b612618846124f3565b81016020851015612627578190505b61263b612633856124f3565b8301826125da565b50505b505050565b600082821c905092915050565b600061266160001984600802612643565b1980831691505092915050565b600061267a8383612650565b9150826002028217905092915050565b61269382611845565b67ffffffffffffffff8111156126ac576126ab611a88565b5b6126b68254611e52565b6126c18282856125fd565b600060209050601f8311600181146126f457600084156126e2578287015190505b6126ec858261266e565b865550612754565b601f198416612702866124de565b60005b8281101561272a57848901518255600182019150602085019450602081019050612705565b868310156127475784890151612743601f891682612650565b8355505b6001600288020188555050505b505050505050565b7f4552433732313a20617070726f766520746f2063616c6c657200000000000000600082015250565b6000612792601983611850565b915061279d8261275c565b602082019050919050565b600060208201905081810360008301526127c181612785565b9050919050565b7f4552433732313a207472616e7366657220746f206e6f6e20455243373231526560008201527f63656976657220696d706c656d656e7465720000000000000000000000000000602082015250565b6000612824603283611850565b915061282f826127c8565b604082019050919050565b6000602082019050818103600083015261285381612817565b9050919050565b600081519050919050565b600082825260208201905092915050565b60006128818261285a565b61288b8185612865565b935061289b818560208601611861565b6128a481611894565b840191505092915050565b60006080820190506128c46000830187611995565b6128d16020830186611995565b6128de6040830185611bfc565b81810360608301526128f08184612876565b905095945050505050565b60008151905061290a816117b6565b92915050565b60006020828403121561292657612925611780565b5b6000612934848285016128fb565b91505092915050565b600061294882611900565b91507fffffffffffffffffffffffffffffffffffffffffffffffffffffffffffffffff820361297a576129796122bb565b5b600182019050919050565b7f4e487b7100000000000000000000000000000000000000000000000000000000600052601260045260246000fd5b60006129bf82611900565b91506129ca83611900565b9250826129da576129d9612985565b5b828204905092915050565b60006129f082611900565b91506129fb83611900565b925082612a0b57612a0a612985565b5b828206905092915050565b7f4e487b7100000000000000000000000000000000000000000000000000000000600052603260045260246000fdfea26469706673582212200c755b75ff66224c7b38c154795eb788bc28d9ddd545b1fb8db8eb9d6f9322b164736f6c634300080f0033",
  "immutableReferences": {},
  "source": "//SPDX-License-Identifier: Unlicense\r\npragma solidity ^0.8.9;\r\nimport \"@openzeppelin/contracts/token/ERC721/extensions/ERC721URIStorage.sol\";\r\n\r\nimport \"@openzeppelin/contracts/utils/Counters.sol\";\r\n\r\ncontract MyNft is ERC721URIStorage {\r\n    using Counters for Counters.Counter;\r\n    Counters.Counter private _tokenIds;\r\n    address contractAddress;\r\n\r\n    constructor(\r\n        string memory _NftName,\r\n        string memory _nftSymbol,\r\n        address MarketPlaceAddress\r\n    ) ERC721(_NftName, _nftSymbol) {\r\n        contractAddress = MarketPlaceAddress;\r\n    }\r\n\r\n    function CreatToken(string memory tokenURI) public returns (uint256) {\r\n        _tokenIds.increment();\r\n        uint256 newItemId = _tokenIds.current();\r\n        _mint(msg.sender, newItemId);\r\n        _setTokenURI(newItemId, tokenURI);\r\n        setApprovalForAll(contractAddress, true);\r\n\r\n        return newItemId;\r\n    }\r\n}\r\n",
  "sourcePath": "C:\\Users\\Anandkumar\\OneDrive\\Desktop\\solidity\\ERC721\\contracts\\MyNft.sol",
  "compiler": {
    "name": "solc",
    "version": "0.8.15+commit.e14f2714.Emscripten.clang"
  },
  "schemaVersion": "3.4.8",
  "updatedAt": "2022-09-17T18:24:52.583Z",
  "devdoc": {
    "kind": "dev",
    "methods": {
      "approve(address,uint256)": {
        "details": "See {IERC721-approve}."
      },
      "balanceOf(address)": {
        "details": "See {IERC721-balanceOf}."
      },
      "getApproved(uint256)": {
        "details": "See {IERC721-getApproved}."
      },
      "isApprovedForAll(address,address)": {
        "details": "See {IERC721-isApprovedForAll}."
      },
      "name()": {
        "details": "See {IERC721Metadata-name}."
      },
      "ownerOf(uint256)": {
        "details": "See {IERC721-ownerOf}."
      },
      "safeTransferFrom(address,address,uint256)": {
        "details": "See {IERC721-safeTransferFrom}."
      },
      "safeTransferFrom(address,address,uint256,bytes)": {
        "details": "See {IERC721-safeTransferFrom}."
      },
      "setApprovalForAll(address,bool)": {
        "details": "See {IERC721-setApprovalForAll}."
      },
      "supportsInterface(bytes4)": {
        "details": "See {IERC165-supportsInterface}."
      },
      "symbol()": {
        "details": "See {IERC721Metadata-symbol}."
      },
      "tokenURI(uint256)": {
        "details": "See {IERC721Metadata-tokenURI}."
      },
      "transferFrom(address,address,uint256)": {
        "details": "See {IERC721-transferFrom}."
      }
    },
    "version": 1
  },
  "userdoc": {
    "kind": "user",
    "methods": {},
    "version": 1
  }
}