{
  "contractName": "NftMarket",
  "abi": [
    {
      "inputs": [],
      "stateMutability": "nonpayable",
      "type": "constructor"
    },
    {
      "anonymous": false,
      "inputs": [
        {
          "indexed": true,
          "internalType": "address",
          "name": "nftContract",
          "type": "address"
        },
        {
          "indexed": true,
          "internalType": "address",
          "name": "Seller",
          "type": "address"
        },
        {
          "indexed": true,
          "internalType": "address",
          "name": "Owner",
          "type": "address"
        }
      ],
      "name": "MarketCreated",
      "type": "event"
    },
    {
      "anonymous": false,
      "inputs": [
        {
          "indexed": false,
          "internalType": "address",
          "name": "account",
          "type": "address"
        }
      ],
      "name": "Paused",
      "type": "event"
    },
    {
      "anonymous": false,
      "inputs": [
        {
          "indexed": false,
          "internalType": "string",
          "name": "Faculty_Name",
          "type": "string"
        },
        {
          "indexed": false,
          "internalType": "string",
          "name": "e_mail",
          "type": "string"
        },
        {
          "indexed": false,
          "internalType": "uint256",
          "name": "Token_Id",
          "type": "uint256"
        }
      ],
      "name": "Sig_Verified",
      "type": "event"
    },
    {
      "anonymous": false,
      "inputs": [
        {
          "indexed": false,
          "internalType": "address",
          "name": "account",
          "type": "address"
        }
      ],
      "name": "Unpaused",
      "type": "event"
    },
    {
      "inputs": [],
      "name": "paused",
      "outputs": [
        {
          "internalType": "bool",
          "name": "",
          "type": "bool"
        }
      ],
      "stateMutability": "view",
      "type": "function",
      "constant": true
    },
    {
      "inputs": [],
      "name": "getListingPrice",
      "outputs": [
        {
          "internalType": "uint256",
          "name": "",
          "type": "uint256"
        }
      ],
      "stateMutability": "view",
      "type": "function",
      "constant": true
    },
    {
      "inputs": [
        {
          "internalType": "address",
          "name": "nftContract",
          "type": "address"
        },
        {
          "internalType": "uint256",
          "name": "Price",
          "type": "uint256"
        },
        {
          "internalType": "uint256",
          "name": "tokenId",
          "type": "uint256"
        }
      ],
      "name": "CreatMarketItem",
      "outputs": [],
      "stateMutability": "payable",
      "type": "function",
      "payable": true
    },
    {
      "inputs": [
        {
          "internalType": "uint256",
          "name": "ItemId",
          "type": "uint256"
        }
      ],
      "name": "creatMarketSale",
      "outputs": [],
      "stateMutability": "payable",
      "type": "function",
      "payable": true
    },
    {
      "inputs": [
        {
          "internalType": "string",
          "name": "Faculty_Name",
          "type": "string"
        },
        {
          "internalType": "string",
          "name": "_Signature",
          "type": "string"
        },
        {
          "internalType": "uint256",
          "name": "ItemId",
          "type": "uint256"
        }
      ],
      "name": "AddSingnature",
      "outputs": [],
      "stateMutability": "nonpayable",
      "type": "function"
    },
    {
      "inputs": [
        {
          "internalType": "address",
          "name": "_to",
          "type": "address"
        },
        {
          "internalType": "uint256",
          "name": "ItemId",
          "type": "uint256"
        }
      ],
      "name": "GiftNft",
      "outputs": [],
      "stateMutability": "nonpayable",
      "type": "function"
    },
    {
      "inputs": [],
      "name": "fetchUnsoldMarketItems",
      "outputs": [
        {
          "components": [
            {
              "internalType": "uint256",
              "name": "itemId",
              "type": "uint256"
            },
            {
              "internalType": "address",
              "name": "nftContract",
              "type": "address"
            },
            {
              "internalType": "address payable",
              "name": "creater",
              "type": "address"
            },
            {
              "internalType": "address payable",
              "name": "Owner",
              "type": "address"
            },
            {
              "internalType": "uint256",
              "name": "TokenId",
              "type": "uint256"
            },
            {
              "internalType": "uint256",
              "name": "Price",
              "type": "uint256"
            },
            {
              "internalType": "bool",
              "name": "Sold",
              "type": "bool"
            },
            {
              "internalType": "bool",
              "name": "Gifted",
              "type": "bool"
            },
            {
              "internalType": "string",
              "name": "Signature",
              "type": "string"
            },
            {
              "components": [
                {
                  "internalType": "string",
                  "name": "Event",
                  "type": "string"
                },
                {
                  "internalType": "address",
                  "name": "_from",
                  "type": "address"
                },
                {
                  "internalType": "address",
                  "name": "_to",
                  "type": "address"
                }
              ],
              "internalType": "struct NftMarket.Transaction_Part[]",
              "name": "Transaction_History",
              "type": "tuple[]"
            }
          ],
          "internalType": "struct NftMarket.MarketItem[]",
          "name": "",
          "type": "tuple[]"
        }
      ],
      "stateMutability": "view",
      "type": "function",
      "constant": true
    },
    {
      "inputs": [],
      "name": "fetchMyNfts",
      "outputs": [
        {
          "components": [
            {
              "internalType": "uint256",
              "name": "itemId",
              "type": "uint256"
            },
            {
              "internalType": "address",
              "name": "nftContract",
              "type": "address"
            },
            {
              "internalType": "address payable",
              "name": "creater",
              "type": "address"
            },
            {
              "internalType": "address payable",
              "name": "Owner",
              "type": "address"
            },
            {
              "internalType": "uint256",
              "name": "TokenId",
              "type": "uint256"
            },
            {
              "internalType": "uint256",
              "name": "Price",
              "type": "uint256"
            },
            {
              "internalType": "bool",
              "name": "Sold",
              "type": "bool"
            },
            {
              "internalType": "bool",
              "name": "Gifted",
              "type": "bool"
            },
            {
              "internalType": "string",
              "name": "Signature",
              "type": "string"
            },
            {
              "components": [
                {
                  "internalType": "string",
                  "name": "Event",
                  "type": "string"
                },
                {
                  "internalType": "address",
                  "name": "_from",
                  "type": "address"
                },
                {
                  "internalType": "address",
                  "name": "_to",
                  "type": "address"
                }
              ],
              "internalType": "struct NftMarket.Transaction_Part[]",
              "name": "Transaction_History",
              "type": "tuple[]"
            }
          ],
          "internalType": "struct NftMarket.MarketItem[]",
          "name": "",
          "type": "tuple[]"
        }
      ],
      "stateMutability": "view",
      "type": "function",
      "constant": true
    },
    {
      "inputs": [],
      "name": "fetchItemsCreated",
      "outputs": [
        {
          "components": [
            {
              "internalType": "uint256",
              "name": "itemId",
              "type": "uint256"
            },
            {
              "internalType": "address",
              "name": "nftContract",
              "type": "address"
            },
            {
              "internalType": "address payable",
              "name": "creater",
              "type": "address"
            },
            {
              "internalType": "address payable",
              "name": "Owner",
              "type": "address"
            },
            {
              "internalType": "uint256",
              "name": "TokenId",
              "type": "uint256"
            },
            {
              "internalType": "uint256",
              "name": "Price",
              "type": "uint256"
            },
            {
              "internalType": "bool",
              "name": "Sold",
              "type": "bool"
            },
            {
              "internalType": "bool",
              "name": "Gifted",
              "type": "bool"
            },
            {
              "internalType": "string",
              "name": "Signature",
              "type": "string"
            },
            {
              "components": [
                {
                  "internalType": "string",
                  "name": "Event",
                  "type": "string"
                },
                {
                  "internalType": "address",
                  "name": "_from",
                  "type": "address"
                },
                {
                  "internalType": "address",
                  "name": "_to",
                  "type": "address"
                }
              ],
              "internalType": "struct NftMarket.Transaction_Part[]",
              "name": "Transaction_History",
              "type": "tuple[]"
            }
          ],
          "internalType": "struct NftMarket.MarketItem[]",
          "name": "",
          "type": "tuple[]"
        }
      ],
      "stateMutability": "view",
      "type": "function",
      "constant": true
    },
    {
      "inputs": [],
      "name": "fetchNftsGift",
      "outputs": [
        {
          "components": [
            {
              "internalType": "uint256",
              "name": "itemId",
              "type": "uint256"
            },
            {
              "internalType": "address",
              "name": "nftContract",
              "type": "address"
            },
            {
              "internalType": "address payable",
              "name": "creater",
              "type": "address"
            },
            {
              "internalType": "address payable",
              "name": "Owner",
              "type": "address"
            },
            {
              "internalType": "uint256",
              "name": "TokenId",
              "type": "uint256"
            },
            {
              "internalType": "uint256",
              "name": "Price",
              "type": "uint256"
            },
            {
              "internalType": "bool",
              "name": "Sold",
              "type": "bool"
            },
            {
              "internalType": "bool",
              "name": "Gifted",
              "type": "bool"
            },
            {
              "internalType": "string",
              "name": "Signature",
              "type": "string"
            },
            {
              "components": [
                {
                  "internalType": "string",
                  "name": "Event",
                  "type": "string"
                },
                {
                  "internalType": "address",
                  "name": "_from",
                  "type": "address"
                },
                {
                  "internalType": "address",
                  "name": "_to",
                  "type": "address"
                }
              ],
              "internalType": "struct NftMarket.Transaction_Part[]",
              "name": "Transaction_History",
              "type": "tuple[]"
            }
          ],
          "internalType": "struct NftMarket.MarketItem[]",
          "name": "",
          "type": "tuple[]"
        }
      ],
      "stateMutability": "view",
      "type": "function",
      "constant": true
    },
    {
      "inputs": [],
      "name": "fetchSignNfts",
      "outputs": [
        {
          "components": [
            {
              "internalType": "uint256",
              "name": "itemId",
              "type": "uint256"
            },
            {
              "internalType": "address",
              "name": "nftContract",
              "type": "address"
            },
            {
              "internalType": "address payable",
              "name": "creater",
              "type": "address"
            },
            {
              "internalType": "address payable",
              "name": "Owner",
              "type": "address"
            },
            {
              "internalType": "uint256",
              "name": "TokenId",
              "type": "uint256"
            },
            {
              "internalType": "uint256",
              "name": "Price",
              "type": "uint256"
            },
            {
              "internalType": "bool",
              "name": "Sold",
              "type": "bool"
            },
            {
              "internalType": "bool",
              "name": "Gifted",
              "type": "bool"
            },
            {
              "internalType": "string",
              "name": "Signature",
              "type": "string"
            },
            {
              "components": [
                {
                  "internalType": "string",
                  "name": "Event",
                  "type": "string"
                },
                {
                  "internalType": "address",
                  "name": "_from",
                  "type": "address"
                },
                {
                  "internalType": "address",
                  "name": "_to",
                  "type": "address"
                }
              ],
              "internalType": "struct NftMarket.Transaction_Part[]",
              "name": "Transaction_History",
              "type": "tuple[]"
            }
          ],
          "internalType": "struct NftMarket.MarketItem[]",
          "name": "",
          "type": "tuple[]"
        }
      ],
      "stateMutability": "view",
      "type": "function",
      "constant": true
    }
  ],
  "bytecode": "0x6080604052670de0b6b3a764000060055534801561001c57600080fd5b5060016000819055506000600160006101000a81548160ff02191690831515021790555033600460006101000a81548173ffffffffffffffffffffffffffffffffffffffff021916908373ffffffffffffffffffffffffffffffffffffffff160217905550613d54806100906000396000f3fe60806040526004361061009c5760003560e01c806372b5a1ce1161006457806372b5a1ce146101695780637628ff551461019257806384ddf88c146101bd5780638be8dda4146101e6578063cfab503814610202578063f064c32e1461022d5761009c565b8063128ae712146100a157806312e85585146100cc578063189c5e8b146100f75780634f5465d9146101225780635c975abb1461013e575b600080fd5b3480156100ad57600080fd5b506100b6610258565b6040516100c39190612f13565b60405180910390f35b3480156100d857600080fd5b506100e161075c565b6040516100ee9190612f44565b60405180910390f35b34801561010357600080fd5b5061010c610766565b6040516101199190612f13565b60405180910390f35b61013c60048036038101906101379190612f9f565b610c30565b005b34801561014a57600080fd5b506101536110ec565b6040516101609190612fdb565b60405180910390f35b34801561017557600080fd5b50610190600480360381019061018b919061312b565b611103565b005b34801561019e57600080fd5b506101a76112f9565b6040516101b49190612f13565b60405180910390f35b3480156101c957600080fd5b506101e460048036038101906101df91906131e2565b6117dd565b005b61020060048036038101906101fb9190613222565b611b74565b005b34801561020e57600080fd5b50610217611f53565b6040516102249190612f13565b60405180910390f35b34801561023957600080fd5b50610242612418565b60405161024f9190612f13565b60405180910390f35b60606000610266600261291c565b90506000808167ffffffffffffffff81111561028557610284613000565b5b6040519080825280602002602001820160405280156102be57816020015b6102ab612a96565b8152602001906001900390816102a35790505b50905060005b83811015610752573373ffffffffffffffffffffffffffffffffffffffff16600660006001846102f491906132a4565b815260200190815260200160002060030160009054906101000a900473ffffffffffffffffffffffffffffffffffffffff1673ffffffffffffffffffffffffffffffffffffffff160361073f5760006006600060018461035491906132a4565b815260200190815260200160002060000154905060006006600083815260200190815260200160002090508060405180610140016040529081600082015481526020016001820160009054906101000a900473ffffffffffffffffffffffffffffffffffffffff1673ffffffffffffffffffffffffffffffffffffffff1673ffffffffffffffffffffffffffffffffffffffff1681526020016002820160009054906101000a900473ffffffffffffffffffffffffffffffffffffffff1673ffffffffffffffffffffffffffffffffffffffff1673ffffffffffffffffffffffffffffffffffffffff1681526020016003820160009054906101000a900473ffffffffffffffffffffffffffffffffffffffff1673ffffffffffffffffffffffffffffffffffffffff1673ffffffffffffffffffffffffffffffffffffffff16815260200160048201548152602001600582015481526020016006820160009054906101000a900460ff161515151581526020016006820160019054906101000a900460ff161515151581526020016007820180546104f290613329565b80601f016020809104026020016040519081016040528092919081815260200182805461051e90613329565b801561056b5780601f106105405761010080835404028352916020019161056b565b820191906000526020600020905b81548152906001019060200180831161054e57829003601f168201915b5050505050815260200160088201805480602002602001604051908101604052809291908181526020016000905b8282101561070957838290600052602060002090600302016040518060600160405290816000820180546105cc90613329565b80601f01602080910402602001604051908101604052809291908181526020018280546105f890613329565b80156106455780601f1061061a57610100808354040283529160200191610645565b820191906000526020600020905b81548152906001019060200180831161062857829003601f168201915b505050505081526020016001820160009054906101000a900473ffffffffffffffffffffffffffffffffffffffff1673ffffffffffffffffffffffffffffffffffffffff1673ffffffffffffffffffffffffffffffffffffffff1681526020016002820160009054906101000a900473ffffffffffffffffffffffffffffffffffffffff1673ffffffffffffffffffffffffffffffffffffffff1673ffffffffffffffffffffffffffffffffffffffff168152505081526020019060010190610599565b50505050815250508486815181106107245761072361335a565b5b602002602001018190525061073a85600161292a565b945050505b808061074a90613389565b9150506102c4565b5080935050505090565b6000600554905090565b60606000610774600261291c565b90506000808167ffffffffffffffff81111561079357610792613000565b5b6040519080825280602002602001820160405280156107cc57816020015b6107b9612a96565b8152602001906001900390816107b15790505b50905060005b83811015610c265760011515600660006001846107ef91906132a4565b815260200190815260200160002060060160019054906101000a900460ff16151503610c135760006006600060018461082891906132a4565b815260200190815260200160002060000154905060006006600083815260200190815260200160002090508060405180610140016040529081600082015481526020016001820160009054906101000a900473ffffffffffffffffffffffffffffffffffffffff1673ffffffffffffffffffffffffffffffffffffffff1673ffffffffffffffffffffffffffffffffffffffff1681526020016002820160009054906101000a900473ffffffffffffffffffffffffffffffffffffffff1673ffffffffffffffffffffffffffffffffffffffff1673ffffffffffffffffffffffffffffffffffffffff1681526020016003820160009054906101000a900473ffffffffffffffffffffffffffffffffffffffff1673ffffffffffffffffffffffffffffffffffffffff1673ffffffffffffffffffffffffffffffffffffffff16815260200160048201548152602001600582015481526020016006820160009054906101000a900460ff161515151581526020016006820160019054906101000a900460ff161515151581526020016007820180546109c690613329565b80601f01602080910402602001604051908101604052809291908181526020018280546109f290613329565b8015610a3f5780601f10610a1457610100808354040283529160200191610a3f565b820191906000526020600020905b815481529060010190602001808311610a2257829003601f168201915b5050505050815260200160088201805480602002602001604051908101604052809291908181526020016000905b82821015610bdd5783829060005260206000209060030201604051806060016040529081600082018054610aa090613329565b80601f0160208091040260200160405190810160405280929190818152602001828054610acc90613329565b8015610b195780601f10610aee57610100808354040283529160200191610b19565b820191906000526020600020905b815481529060010190602001808311610afc57829003601f168201915b505050505081526020016001820160009054906101000a900473ffffffffffffffffffffffffffffffffffffffff1673ffffffffffffffffffffffffffffffffffffffff1673ffffffffffffffffffffffffffffffffffffffff1681526020016002820160009054906101000a900473ffffffffffffffffffffffffffffffffffffffff1673ffffffffffffffffffffffffffffffffffffffff1673ffffffffffffffffffffffffffffffffffffffff168152505081526020019060010190610a6d565b5050505081525050848681518110610bf857610bf761335a565b5b6020026020010181905250610c0e85600161292a565b945050505b8080610c1e90613389565b9150506107d2565b5080935050505090565b600260005403610c75576040517f08c379a0000000000000000000000000000000000000000000000000000000008152600401610c6c9061342e565b60405180910390fd5b6002600081905550610c85612988565b80610c90600261291c565b1015610cd1576040517f08c379a0000000000000000000000000000000000000000000000000000000008152600401610cc8906134c0565b60405180910390fd5b600060066000838152602001908152602001600020905060008160050154905060008260040154905060008360010160009054906101000a900473ffffffffffffffffffffffffffffffffffffffff169050823414610d65576040517f08c379a0000000000000000000000000000000000000000000000000000000008152600401610d5c90613552565b60405180910390fd5b60008460030160009054906101000a900473ffffffffffffffffffffffffffffffffffffffff169050338560030160006101000a81548173ffffffffffffffffffffffffffffffffffffffff021916908373ffffffffffffffffffffffffffffffffffffffff16021790555060018560060160006101000a81548160ff0219169083151502179055508460080160405180606001604052806040518060400160405280600881526020017f73656c6c2f42757900000000000000000000000000000000000000000000000081525081526020018373ffffffffffffffffffffffffffffffffffffffff1681526020013373ffffffffffffffffffffffffffffffffffffffff1681525090806001815401808255809150506001900390600052602060002090600302016000909190919091506000820151816000019081610eac919061371e565b5060208201518160010160006101000a81548173ffffffffffffffffffffffffffffffffffffffff021916908373ffffffffffffffffffffffffffffffffffffffff16021790555060408201518160020160006101000a81548173ffffffffffffffffffffffffffffffffffffffff021916908373ffffffffffffffffffffffffffffffffffffffff1602179055505050610f4760036129d2565b8173ffffffffffffffffffffffffffffffffffffffff166323b872dd8373ffffffffffffffffffffffffffffffffffffffff16636352211e866040518263ffffffff1660e01b8152600401610f9c9190612f44565b602060405180830381865afa158015610fb9573d6000803e3d6000fd5b505050506040513d601f19601f82011682018060405250810190610fdd9190613805565b33866040518463ffffffff1660e01b8152600401610ffd93929190613841565b600060405180830381600087803b15801561101757600080fd5b505af115801561102b573d6000803e3d6000fd5b5050505060008173ffffffffffffffffffffffffffffffffffffffff1634604051611055906138a9565b60006040518083038185875af1925050503d8060008114611092576040519150601f19603f3d011682016040523d82523d6000602084013e611097565b606091505b50509050806110db576040517f08c379a00000000000000000000000000000000000000000000000000000000081526004016110d290613930565b60405180910390fd5b505050505050600160008190555050565b6000600160009054906101000a900460ff16905090565b600260005403611148576040517f08c379a000000000000000000000000000000000000000000000000000000000815260040161113f9061342e565b60405180910390fd5b60026000819055506006600082815260200190815260200160002060010160009054906101000a900473ffffffffffffffffffffffffffffffffffffffff1660066000838152602001908152602001600020600401548173ffffffffffffffffffffffffffffffffffffffff16636352211e826040518263ffffffff1660e01b81526004016111d79190612f44565b602060405180830381865afa1580156111f4573d6000803e3d6000fd5b505050506040513d601f19601f820116820180604052508101906112189190613805565b73ffffffffffffffffffffffffffffffffffffffff163373ffffffffffffffffffffffffffffffffffffffff1614611285576040517f08c379a000000000000000000000000000000000000000000000000000000000815260040161127c9061399c565b60405180910390fd5b6000600660008581526020019081526020016000209050848160070190816112ad919061371e565b507f1a0923a4d84ecf9a541f86d8590689ead46730c692317a27addb8fa94685957e8686866040516112e1939291906139f5565b60405180910390a15050506001600081905550505050565b60606000611307600261291c565b90506000611327611318600261291c565b611322600361291c565b6129e8565b90506000808267ffffffffffffffff81111561134657611345613000565b5b60405190808252806020026020018201604052801561137f57816020015b61136c612a96565b8152602001906001900390816113645790505b50905060005b848110156117d2576006600060018361139e91906132a4565b815260200190815260200160002060060160009054906101000a900460ff166117bf576000600660006001846113d491906132a4565b815260200190815260200160002060000154905060006006600083815260200190815260200160002090508060405180610140016040529081600082015481526020016001820160009054906101000a900473ffffffffffffffffffffffffffffffffffffffff1673ffffffffffffffffffffffffffffffffffffffff1673ffffffffffffffffffffffffffffffffffffffff1681526020016002820160009054906101000a900473ffffffffffffffffffffffffffffffffffffffff1673ffffffffffffffffffffffffffffffffffffffff1673ffffffffffffffffffffffffffffffffffffffff1681526020016003820160009054906101000a900473ffffffffffffffffffffffffffffffffffffffff1673ffffffffffffffffffffffffffffffffffffffff1673ffffffffffffffffffffffffffffffffffffffff16815260200160048201548152602001600582015481526020016006820160009054906101000a900460ff161515151581526020016006820160019054906101000a900460ff1615151515815260200160078201805461157290613329565b80601f016020809104026020016040519081016040528092919081815260200182805461159e90613329565b80156115eb5780601f106115c0576101008083540402835291602001916115eb565b820191906000526020600020905b8154815290600101906020018083116115ce57829003601f168201915b5050505050815260200160088201805480602002602001604051908101604052809291908181526020016000905b82821015611789578382906000526020600020906003020160405180606001604052908160008201805461164c90613329565b80601f016020809104026020016040519081016040528092919081815260200182805461167890613329565b80156116c55780601f1061169a576101008083540402835291602001916116c5565b820191906000526020600020905b8154815290600101906020018083116116a857829003601f168201915b505050505081526020016001820160009054906101000a900473ffffffffffffffffffffffffffffffffffffffff1673ffffffffffffffffffffffffffffffffffffffff1673ffffffffffffffffffffffffffffffffffffffff1681526020016002820160009054906101000a900473ffffffffffffffffffffffffffffffffffffffff1673ffffffffffffffffffffffffffffffffffffffff1673ffffffffffffffffffffffffffffffffffffffff168152505081526020019060010190611619565b50505050815250508486815181106117a4576117a361335a565b5b60200260200101819052506117ba85600161292a565b945050505b80806117ca90613389565b915050611385565b508094505050505090565b600260005403611822576040517f08c379a00000000000000000000000000000000000000000000000000000000081526004016118199061342e565b60405180910390fd5b6002600081905550611832612988565b6000600660008381526020019081526020016000209050600081600701805461185a90613329565b90500361189c576040517f08c379a000000000000000000000000000000000000000000000000000000000815260040161189390613aac565b60405180910390fd5b60008160040154905060008260010160009054906101000a900473ffffffffffffffffffffffffffffffffffffffff169050848360030160006101000a81548173ffffffffffffffffffffffffffffffffffffffff021916908373ffffffffffffffffffffffffffffffffffffffff16021790555060018360060160016101000a81548160ff0219169083151502179055508260080160405180606001604052806040518060400160405280600681526020017f476966746564000000000000000000000000000000000000000000000000000081525081526020013373ffffffffffffffffffffffffffffffffffffffff1681526020018773ffffffffffffffffffffffffffffffffffffffff16815250908060018154018082558091505060019003906000526020600020906003020160009091909190915060008201518160000190816119ec919061371e565b5060208201518160010160006101000a81548173ffffffffffffffffffffffffffffffffffffffff021916908373ffffffffffffffffffffffffffffffffffffffff16021790555060408201518160020160006101000a81548173ffffffffffffffffffffffffffffffffffffffff021916908373ffffffffffffffffffffffffffffffffffffffff16021790555050508073ffffffffffffffffffffffffffffffffffffffff166323b872dd8273ffffffffffffffffffffffffffffffffffffffff16636352211e856040518263ffffffff1660e01b8152600401611ad29190612f44565b602060405180830381865afa158015611aef573d6000803e3d6000fd5b505050506040513d601f19601f82011682018060405250810190611b139190613805565b33856040518463ffffffff1660e01b8152600401611b3393929190613841565b600060405180830381600087803b158015611b4d57600080fd5b505af1158015611b61573d6000803e3d6000fd5b5050505050505060016000819055505050565b600260005403611bb9576040517f08c379a0000000000000000000000000000000000000000000000000000000008152600401611bb09061342e565b60405180910390fd5b6002600081905550611bc9612988565b60003411611c0c576040517f08c379a0000000000000000000000000000000000000000000000000000000008152600401611c0390613b3e565b60405180910390fd5b6005543414611c50576040517f08c379a0000000000000000000000000000000000000000000000000000000008152600401611c4790613bd0565b60405180910390fd5b611c5a60026129d2565b6000611c66600261291c565b90506000600660008381526020019081526020016000209050818160000181905550848160010160006101000a81548173ffffffffffffffffffffffffffffffffffffffff021916908373ffffffffffffffffffffffffffffffffffffffff160217905550338160020160006101000a81548173ffffffffffffffffffffffffffffffffffffffff021916908373ffffffffffffffffffffffffffffffffffffffff160217905550338160030160006101000a81548173ffffffffffffffffffffffffffffffffffffffff021916908373ffffffffffffffffffffffffffffffffffffffff16021790555083816005018190555082816004018190555060405180602001604052806000815250816007019081611d83919061371e565b508060080160405180606001604052806040518060400160405280600781526020017f437265617465640000000000000000000000000000000000000000000000000081525081526020013373ffffffffffffffffffffffffffffffffffffffff1681526020013373ffffffffffffffffffffffffffffffffffffffff1681525090806001815401808255809150506001900390600052602060002090600302016000909190919091506000820151816000019081611e42919061371e565b5060208201518160010160006101000a81548173ffffffffffffffffffffffffffffffffffffffff021916908373ffffffffffffffffffffffffffffffffffffffff16021790555060408201518160020160006101000a81548173ffffffffffffffffffffffffffffffffffffffff021916908373ffffffffffffffffffffffffffffffffffffffff16021790555050503373ffffffffffffffffffffffffffffffffffffffff163373ffffffffffffffffffffffffffffffffffffffff168673ffffffffffffffffffffffffffffffffffffffff167fe63e6130091e2155004c4b5ac35e8fb9be704d6637ff3068a8f710ba36c9f41a60405160405180910390a450506001600081905550505050565b60606000611f61600261291c565b90506000808167ffffffffffffffff811115611f8057611f7f613000565b5b604051908082528060200260200182016040528015611fb957816020015b611fa6612a96565b815260200190600190039081611f9e5790505b50905060005b8381101561240e57600060066000600184611fda91906132a4565b81526020019081526020016000206007018054611ff690613329565b9050146123fb5760006006600060018461201091906132a4565b815260200190815260200160002060000154905060006006600083815260200190815260200160002090508060405180610140016040529081600082015481526020016001820160009054906101000a900473ffffffffffffffffffffffffffffffffffffffff1673ffffffffffffffffffffffffffffffffffffffff1673ffffffffffffffffffffffffffffffffffffffff1681526020016002820160009054906101000a900473ffffffffffffffffffffffffffffffffffffffff1673ffffffffffffffffffffffffffffffffffffffff1673ffffffffffffffffffffffffffffffffffffffff1681526020016003820160009054906101000a900473ffffffffffffffffffffffffffffffffffffffff1673ffffffffffffffffffffffffffffffffffffffff1673ffffffffffffffffffffffffffffffffffffffff16815260200160048201548152602001600582015481526020016006820160009054906101000a900460ff161515151581526020016006820160019054906101000a900460ff161515151581526020016007820180546121ae90613329565b80601f01602080910402602001604051908101604052809291908181526020018280546121da90613329565b80156122275780601f106121fc57610100808354040283529160200191612227565b820191906000526020600020905b81548152906001019060200180831161220a57829003601f168201915b5050505050815260200160088201805480602002602001604051908101604052809291908181526020016000905b828210156123c5578382906000526020600020906003020160405180606001604052908160008201805461228890613329565b80601f01602080910402602001604051908101604052809291908181526020018280546122b490613329565b80156123015780601f106122d657610100808354040283529160200191612301565b820191906000526020600020905b8154815290600101906020018083116122e457829003601f168201915b505050505081526020016001820160009054906101000a900473ffffffffffffffffffffffffffffffffffffffff1673ffffffffffffffffffffffffffffffffffffffff1673ffffffffffffffffffffffffffffffffffffffff1681526020016002820160009054906101000a900473ffffffffffffffffffffffffffffffffffffffff1673ffffffffffffffffffffffffffffffffffffffff1673ffffffffffffffffffffffffffffffffffffffff168152505081526020019060010190612255565b50505050815250508486815181106123e0576123df61335a565b5b60200260200101819052506123f685600161292a565b945050505b808061240690613389565b915050611fbf565b5080935050505090565b60606000612426600261291c565b90506000808167ffffffffffffffff81111561244557612444613000565b5b60405190808252806020026020018201604052801561247e57816020015b61246b612a96565b8152602001906001900390816124635790505b50905060005b83811015612912573373ffffffffffffffffffffffffffffffffffffffff16600660006001846124b491906132a4565b815260200190815260200160002060020160009054906101000a900473ffffffffffffffffffffffffffffffffffffffff1673ffffffffffffffffffffffffffffffffffffffff16036128ff5760006006600060018461251491906132a4565b815260200190815260200160002060000154905060006006600083815260200190815260200160002090508060405180610140016040529081600082015481526020016001820160009054906101000a900473ffffffffffffffffffffffffffffffffffffffff1673ffffffffffffffffffffffffffffffffffffffff1673ffffffffffffffffffffffffffffffffffffffff1681526020016002820160009054906101000a900473ffffffffffffffffffffffffffffffffffffffff1673ffffffffffffffffffffffffffffffffffffffff1673ffffffffffffffffffffffffffffffffffffffff1681526020016003820160009054906101000a900473ffffffffffffffffffffffffffffffffffffffff1673ffffffffffffffffffffffffffffffffffffffff1673ffffffffffffffffffffffffffffffffffffffff16815260200160048201548152602001600582015481526020016006820160009054906101000a900460ff161515151581526020016006820160019054906101000a900460ff161515151581526020016007820180546126b290613329565b80601f01602080910402602001604051908101604052809291908181526020018280546126de90613329565b801561272b5780601f106127005761010080835404028352916020019161272b565b820191906000526020600020905b81548152906001019060200180831161270e57829003601f168201915b5050505050815260200160088201805480602002602001604051908101604052809291908181526020016000905b828210156128c9578382906000526020600020906003020160405180606001604052908160008201805461278c90613329565b80601f01602080910402602001604051908101604052809291908181526020018280546127b890613329565b80156128055780601f106127da57610100808354040283529160200191612805565b820191906000526020600020905b8154815290600101906020018083116127e857829003601f168201915b505050505081526020016001820160009054906101000a900473ffffffffffffffffffffffffffffffffffffffff1673ffffffffffffffffffffffffffffffffffffffff1673ffffffffffffffffffffffffffffffffffffffff1681526020016002820160009054906101000a900473ffffffffffffffffffffffffffffffffffffffff1673ffffffffffffffffffffffffffffffffffffffff1673ffffffffffffffffffffffffffffffffffffffff168152505081526020019060010190612759565b50505050815250508486815181106128e4576128e361335a565b5b60200260200101819052506128fa85600161292a565b945050505b808061290a90613389565b915050612484565b5080935050505090565b600081600001549050919050565b600080828461293991906132a4565b90508381101561297e576040517f08c379a000000000000000000000000000000000000000000000000000000000815260040161297590613c3c565b60405180910390fd5b8091505092915050565b6129906110ec565b156129d0576040517f08c379a00000000000000000000000000000000000000000000000000000000081526004016129c790613ca8565b60405180910390fd5b565b6001816000016000828254019250508190555050565b6000612a2a83836040518060400160405280601e81526020017f536166654d6174683a207375627472616374696f6e206f766572666c6f770000815250612a32565b905092915050565b6000838311158290612a7a576040517f08c379a0000000000000000000000000000000000000000000000000000000008152600401612a719190613cc8565b60405180910390fd5b5060008385612a899190613cea565b9050809150509392505050565b60405180610140016040528060008152602001600073ffffffffffffffffffffffffffffffffffffffff168152602001600073ffffffffffffffffffffffffffffffffffffffff168152602001600073ffffffffffffffffffffffffffffffffffffffff168152602001600081526020016000815260200160001515815260200160001515815260200160608152602001606081525090565b600081519050919050565b600082825260208201905092915050565b6000819050602082019050919050565b6000819050919050565b612b6e81612b5b565b82525050565b600073ffffffffffffffffffffffffffffffffffffffff82169050919050565b6000612b9f82612b74565b9050919050565b612baf81612b94565b82525050565b6000612bc082612b74565b9050919050565b612bd081612bb5565b82525050565b60008115159050919050565b612beb81612bd6565b82525050565b600081519050919050565b600082825260208201905092915050565b60005b83811015612c2b578082015181840152602081019050612c10565b83811115612c3a576000848401525b50505050565b6000601f19601f8301169050919050565b6000612c5c82612bf1565b612c668185612bfc565b9350612c76818560208601612c0d565b612c7f81612c40565b840191505092915050565b600081519050919050565b600082825260208201905092915050565b6000819050602082019050919050565b60006060830160008301518482036000860152612cd38282612c51565b9150506020830151612ce86020860182612ba6565b506040830151612cfb6040860182612ba6565b508091505092915050565b6000612d128383612cb6565b905092915050565b6000602082019050919050565b6000612d3282612c8a565b612d3c8185612c95565b935083602082028501612d4e85612ca6565b8060005b85811015612d8a5784840389528151612d6b8582612d06565b9450612d7683612d1a565b925060208a01995050600181019050612d52565b50829750879550505050505092915050565b600061014083016000830151612db56000860182612b65565b506020830151612dc86020860182612ba6565b506040830151612ddb6040860182612bc7565b506060830151612dee6060860182612bc7565b506080830151612e016080860182612b65565b5060a0830151612e1460a0860182612b65565b5060c0830151612e2760c0860182612be2565b5060e0830151612e3a60e0860182612be2565b50610100830151848203610100860152612e548282612c51565b915050610120830151848203610120860152612e708282612d27565b9150508091505092915050565b6000612e898383612d9c565b905092915050565b6000602082019050919050565b6000612ea982612b2f565b612eb38185612b3a565b935083602082028501612ec585612b4b565b8060005b85811015612f015784840389528151612ee28582612e7d565b9450612eed83612e91565b925060208a01995050600181019050612ec9565b50829750879550505050505092915050565b60006020820190508181036000830152612f2d8184612e9e565b905092915050565b612f3e81612b5b565b82525050565b6000602082019050612f596000830184612f35565b92915050565b6000604051905090565b600080fd5b600080fd5b612f7c81612b5b565b8114612f8757600080fd5b50565b600081359050612f9981612f73565b92915050565b600060208284031215612fb557612fb4612f69565b5b6000612fc384828501612f8a565b91505092915050565b612fd581612bd6565b82525050565b6000602082019050612ff06000830184612fcc565b92915050565b600080fd5b600080fd5b7f4e487b7100000000000000000000000000000000000000000000000000000000600052604160045260246000fd5b61303882612c40565b810181811067ffffffffffffffff8211171561305757613056613000565b5b80604052505050565b600061306a612f5f565b9050613076828261302f565b919050565b600067ffffffffffffffff82111561309657613095613000565b5b61309f82612c40565b9050602081019050919050565b82818337600083830152505050565b60006130ce6130c98461307b565b613060565b9050828152602081018484840111156130ea576130e9612ffb565b5b6130f58482856130ac565b509392505050565b600082601f83011261311257613111612ff6565b5b81356131228482602086016130bb565b91505092915050565b60008060006060848603121561314457613143612f69565b5b600084013567ffffffffffffffff81111561316257613161612f6e565b5b61316e868287016130fd565b935050602084013567ffffffffffffffff81111561318f5761318e612f6e565b5b61319b868287016130fd565b92505060406131ac86828701612f8a565b9150509250925092565b6131bf81612b94565b81146131ca57600080fd5b50565b6000813590506131dc816131b6565b92915050565b600080604083850312156131f9576131f8612f69565b5b6000613207858286016131cd565b925050602061321885828601612f8a565b9150509250929050565b60008060006060848603121561323b5761323a612f69565b5b6000613249868287016131cd565b935050602061325a86828701612f8a565b925050604061326b86828701612f8a565b9150509250925092565b7f4e487b7100000000000000000000000000000000000000000000000000000000600052601160045260246000fd5b60006132af82612b5b565b91506132ba83612b5b565b9250827fffffffffffffffffffffffffffffffffffffffffffffffffffffffffffffffff038211156132ef576132ee613275565b5b828201905092915050565b7f4e487b7100000000000000000000000000000000000000000000000000000000600052602260045260246000fd5b6000600282049050600182168061334157607f821691505b602082108103613354576133536132fa565b5b50919050565b7f4e487b7100000000000000000000000000000000000000000000000000000000600052603260045260246000fd5b600061339482612b5b565b91507fffffffffffffffffffffffffffffffffffffffffffffffffffffffffffffffff82036133c6576133c5613275565b5b600182019050919050565b600082825260208201905092915050565b7f5265656e7472616e637947756172643a207265656e7472616e742063616c6c00600082015250565b6000613418601f836133d1565b9150613423826133e2565b602082019050919050565b600060208201905081810360008301526134478161340b565b9050919050565b7f4e6f7468696e6720746f20627579204e66742061742074686973204974656d4960008201527f6400000000000000000000000000000000000000000000000000000000000000602082015250565b60006134aa6021836133d1565b91506134b58261344e565b604082019050919050565b600060208201905081810360008301526134d98161349d565b9050919050565b7f706c65617365207375626d6974207468652061736b696e67207072696365206960008201527f6e206f7264657220746f20636f6d706c65746520746865207075726368617365602082015250565b600061353c6040836133d1565b9150613547826134e0565b604082019050919050565b6000602082019050818103600083015261356b8161352f565b9050919050565b60008190508160005260206000209050919050565b60006020601f8301049050919050565b600082821b905092915050565b6000600883026135d47fffffffffffffffffffffffffffffffffffffffffffffffffffffffffffffffff82613597565b6135de8683613597565b95508019841693508086168417925050509392505050565b6000819050919050565b600061361b61361661361184612b5b565b6135f6565b612b5b565b9050919050565b6000819050919050565b61363583613600565b61364961364182613622565b8484546135a4565b825550505050565b600090565b61365e613651565b61366981848461362c565b505050565b5b8181101561368d57613682600082613656565b60018101905061366f565b5050565b601f8211156136d2576136a381613572565b6136ac84613587565b810160208510156136bb578190505b6136cf6136c785613587565b83018261366e565b50505b505050565b600082821c905092915050565b60006136f5600019846008026136d7565b1980831691505092915050565b600061370e83836136e4565b9150826002028217905092915050565b61372782612bf1565b67ffffffffffffffff8111156137405761373f613000565b5b61374a8254613329565b613755828285613691565b600060209050601f8311600181146137885760008415613776578287015190505b6137808582613702565b8655506137e8565b601f19841661379686613572565b60005b828110156137be57848901518255600182019150602085019450602081019050613799565b868310156137db57848901516137d7601f8916826136e4565b8355505b6001600288020188555050505b505050505050565b6000815190506137ff816131b6565b92915050565b60006020828403121561381b5761381a612f69565b5b6000613829848285016137f0565b91505092915050565b61383b81612b94565b82525050565b60006060820190506138566000830186613832565b6138636020830185613832565b6138706040830184612f35565b949350505050565b600081905092915050565b50565b6000613893600083613878565b915061389e82613883565b600082019050919050565b60006138b482613886565b9150819050919050565b7f4661696c656420746f2073656e6420457468657220746f2070726576696f757360008201527f204f776e6572206f6620204e6674000000000000000000000000000000000000602082015250565b600061391a602e836133d1565b9150613925826138be565b604082019050919050565b600060208201905081810360008301526139498161390d565b9050919050565b7f4f6e6c79204f776e65722063616e207369676e6564206f6e204e465427730000600082015250565b6000613986601e836133d1565b915061399182613950565b602082019050919050565b600060208201905081810360008301526139b581613979565b9050919050565b60006139c782612bf1565b6139d181856133d1565b93506139e1818560208601612c0d565b6139ea81612c40565b840191505092915050565b60006060820190508181036000830152613a0f81866139bc565b90508181036020830152613a2381856139bc565b9050613a326040830184612f35565b949350505050565b7f4e465473206973206e6f74207369676e617475726564206469676974616c6c7960008201527f2e00000000000000000000000000000000000000000000000000000000000000602082015250565b6000613a966021836133d1565b9150613aa182613a3a565b604082019050919050565b60006020820190508181036000830152613ac581613a89565b9050919050565b7f73656c6c696e67207072696365206d757374206265206772656174657220746860008201527f616e205a45524f20776569000000000000000000000000000000000000000000602082015250565b6000613b28602b836133d1565b9150613b3382613acc565b604082019050919050565b60006020820190508181036000830152613b5781613b1b565b9050919050565b7f5072696365206d75737420626520657175616c20746f206c697374696e67207060008201527f7269636500000000000000000000000000000000000000000000000000000000602082015250565b6000613bba6024836133d1565b9150613bc582613b5e565b604082019050919050565b60006020820190508181036000830152613be981613bad565b9050919050565b7f536166654d6174683a206164646974696f6e206f766572666c6f770000000000600082015250565b6000613c26601b836133d1565b9150613c3182613bf0565b602082019050919050565b60006020820190508181036000830152613c5581613c19565b9050919050565b7f5061757361626c653a2070617573656400000000000000000000000000000000600082015250565b6000613c926010836133d1565b9150613c9d82613c5c565b602082019050919050565b60006020820190508181036000830152613cc181613c85565b9050919050565b60006020820190508181036000830152613ce281846139bc565b905092915050565b6000613cf582612b5b565b9150613d0083612b5b565b925082821015613d1357613d12613275565b5b82820390509291505056fea2646970667358221220d0d650796fa722e29281e9b509933a602991bf625a3e093d17c1a65ed3ffd08364736f6c634300080f0033",
  "immutableReferences": {},
  "source": "//SPDX-License-Identifier: Unlicense\r\npragma solidity ^0.8.9;\r\nimport \"@openzeppelin/contracts/token/ERC721/ERC721.sol\";\r\nimport \"@openzeppelin/contracts/utils/Counters.sol\";\r\nimport \"@openzeppelin/contracts/security/Pausable.sol\";\r\nlibrary SafeMath {\r\n    function add(uint256 a, uint256 b) internal pure returns (uint256) {\r\n        uint256 c = a + b;\r\n        require(c >= a, \"SafeMath: addition overflow\");\r\n\r\n        return c;\r\n    }\r\n\r\n    function sub(uint256 a, uint256 b) internal pure returns (uint256) {\r\n        return sub(a, b, \"SafeMath: subtraction overflow\");\r\n    }\r\n\r\n    function sub(\r\n        uint256 a,\r\n        uint256 b,\r\n        string memory errorMessage\r\n    ) internal pure returns (uint256) {\r\n        require(b <= a, errorMessage);\r\n        uint256 c = a - b;\r\n\r\n        return c;\r\n    }\r\n\r\n    function mul(uint256 a, uint256 b) internal pure returns (uint256) {\r\n        // Gas optimization: this is cheaper than requiring 'a' not being zero, but the\r\n        // benefit is lost if 'b' is also tested.\r\n        if (a == 0) {\r\n            return 0;\r\n        }\r\n\r\n        uint256 c = a * b;\r\n        require(c / a == b, \"SafeMath: multiplication overflow\");\r\n\r\n        return c;\r\n    }\r\n}\r\n\r\n    // ReentrancyGuard proctect smartcontract from reentrancy attack \r\ncontract ReentrancyGuard {\r\n    uint256 private constant _NOT_ENTERED = 1;\r\n    uint256 private constant _ENTERED = 2;\r\n\r\n    uint256 private _status;\r\n\r\n    constructor() {\r\n        _status = _NOT_ENTERED;\r\n    }\r\n\r\n    modifier nonReentrant() {\r\n        require(_status != _ENTERED, \"ReentrancyGuard: reentrant call\");\r\n        _status = _ENTERED;\r\n        _;\r\n        _status = _NOT_ENTERED;\r\n    }\r\n}\r\n\r\n    // contract should be pausable for prevent from attacker\r\ncontract NftMarket is ReentrancyGuard, Pausable {\r\n    using Counters for Counters.Counter;\r\n\r\n    // _ItemsID= Total n. of items of Nfts on this market place.\r\n    Counters.Counter private _ItemsId;\r\n\r\n    // _Itemsold= Total n. of Nfts sold at least one times  on this market place.\r\n    Counters.Counter private _Itemsold;\r\n\r\n    // Owner of deployer (of smart contract)\r\n    address payable Owner;\r\n    string private constant NULL = \"\";\r\n\r\n    /////// planning to remove listing price later\r\n    uint256 listingPrice = 1 ether;\r\n\r\n    constructor() {\r\n        Owner = payable(msg.sender);\r\n    }\r\n\r\n    // data of  users history (from ---> to )and its types of events (like-buy, sell, gift ) \r\n    struct Transaction_Part {\r\n        string Event;\r\n        address _from;\r\n        address _to;\r\n    }\r\n\r\n    // all information of nft \r\n    struct MarketItem {\r\n        // Item n. of current Nft on this market place\r\n        uint256 itemId;\r\n\r\n        // Contract address of current nft\r\n        address nftContract;\r\n\r\n        // Creater of current nft\r\n        address payable creater;\r\n\r\n        // Owner of current nft\r\n        address payable Owner;\r\n\r\n        // Token Id of current nft\r\n        uint256 TokenId;\r\n\r\n        // price of current nft\r\n        uint256 Price;\r\n        // current nft has sold or not atleaft one times\r\n        bool Sold;\r\n        // nft has giftes or not\r\n        bool Gifted;\r\n        // nft has signatured or not by faculty\r\n        string Signature;\r\n\r\n        // tracking history of Owner of current nft\r\n        Transaction_Part[] Transaction_History;\r\n    }\r\n    // mapping all Nfts of this market (items n. => history of nft)  \r\n    mapping(uint256 => MarketItem) private IdtoMarketItem;\r\n\r\n    // notify at each transaction of nft \r\n    event MarketCreated(\r\n        address indexed nftContract,\r\n        address indexed Seller,\r\n        address indexed Owner\r\n    );\r\n\r\n    // notify when nft has signatured and verify by faculty \r\n    event Sig_Verified(string Faculty_Name, string e_mail, uint256 Token_Id);\r\n\r\n    // planning to remove listing price charge of market and this function too\r\n    function getListingPrice() public view returns (uint256) {\r\n        return listingPrice;\r\n    }\r\n\r\n    // Users can create their first Nft on this market\r\n    function CreatMarketItem(\r\n        // address of Nft contract\r\n        address nftContract,\r\n        uint256 Price,\r\n        uint256 tokenId\r\n    ) public payable nonReentrant whenNotPaused {       // function runs when not paused by owner , pausable for security purpose\r\n        require(msg.value > 0, \"selling price must be greater than ZERO wei\");\r\n\r\n        // planning to remove this below condition \r\n        require(\r\n            msg.value == listingPrice,\r\n            \"Price must be equal to listing price\"\r\n        );\r\n\r\n        // N. of Items increse when any Users creat nft first time\r\n        _ItemsId.increment();\r\n        uint256 ItemId = _ItemsId.current();                //return current n. of total nft items\r\n        MarketItem storage temp = IdtoMarketItem[ItemId];\r\n        // update history of current nft\r\n        temp.itemId = ItemId;\r\n        temp.nftContract = nftContract;\r\n        temp.creater = payable(msg.sender);\r\n        temp.Owner = payable(msg.sender);\r\n        temp.Price = Price;\r\n        temp.TokenId = tokenId;\r\n        temp.Signature = NULL;\r\n\r\n        // Transaction history of current history\r\n        temp.Transaction_History.push(\r\n            Transaction_Part(\"Created\", (msg.sender), msg.sender)\r\n        );\r\n\r\n        // pop out notification of successfully created nft on market place, in notification include nft contract , Owner and creater of nft\r\n        emit MarketCreated(nftContract, msg.sender, msg.sender);\r\n    }\r\n\r\n    // only Owner of current nft can acess this function\r\n    modifier OnlyOwner(address nftContract, uint256 tokenId) {\r\n        require(\r\n            msg.sender == IERC721(nftContract).ownerOf(tokenId),\r\n            \"Only Owner can signed on NFT's\"\r\n        );\r\n        _;\r\n    }\r\n\r\n        // function for buying nft that listed over market place \r\n    function creatMarketSale(uint256 ItemId) public payable nonReentrant whenNotPaused {\r\n        // Given Items Id should listed on marketplace\r\n        require(\r\n            _ItemsId.current() >= ItemId,\r\n            \"Nothing to buy Nft at this ItemId\"\r\n        );\r\n        // acess all information of given ItemId of nfts\r\n        MarketItem storage temp = IdtoMarketItem[ItemId];\r\n        uint256 Price = temp.Price;\r\n        uint256 tokenId = temp.TokenId;\r\n        address nftContract = temp.nftContract;\r\n\r\n        // User must have enough money to purchase current nft----cheaking\r\n        require(\r\n            msg.value == Price,\r\n            \"please submit the asking price in order to complete the purchase\"\r\n        );\r\n        //previous Owner of NFT\r\n        address From = temp.Owner; \r\n\r\n        // Update Owner of current nft\r\n        temp.Owner = payable(msg.sender);\r\n        temp.Sold = true;\r\n\r\n        // Update history of transation of nft(traking history of transaction)\r\n        temp.Transaction_History.push(\r\n            Transaction_Part(\"sell/Buy\", payable(From), msg.sender)\r\n        );\r\n        // count n. of at least sold nft on market\r\n        _Itemsold.increment();\r\n        // transfer ownership of nft's from previous_owner to current_owner\r\n        IERC721(nftContract).transferFrom(\r\n            IERC721(nftContract).ownerOf(tokenId),\r\n            msg.sender,\r\n            tokenId\r\n        );\r\n        // required ETH transfer from current owner(buyer) to previous owner(seller)\r\n        (bool sent, ) = payable(From).call{value: msg.value}(\"\");\r\n        require(sent, \"Failed to send Ether to previous Owner of  Nft\");\r\n    }\r\n\r\n    function AddSingnature(\r\n        string memory Faculty_Name,\r\n        string memory _Signature,\r\n        uint256 ItemId\r\n    )\r\n        public\r\n        nonReentrant\r\n        OnlyOwner(\r\n            IdtoMarketItem[ItemId].nftContract,\r\n            IdtoMarketItem[ItemId].TokenId\r\n        )\r\n    {\r\n        MarketItem storage temp = IdtoMarketItem[ItemId];\r\n        temp.Signature = _Signature;\r\n        emit Sig_Verified(Faculty_Name, _Signature, ItemId);\r\n    }\r\n\r\n    function GiftNft(address _to, uint256 ItemId) public nonReentrant whenNotPaused {\r\n        MarketItem storage temp = IdtoMarketItem[ItemId];\r\n        require(\r\n            bytes(temp.Signature).length != 0,\r\n            \"NFTs is not signatured digitally.\"\r\n        );\r\n        uint256 tokenId = temp.TokenId;\r\n        address nftContract = temp.nftContract;\r\n\r\n        temp.Owner = payable(_to);\r\n        temp.Gifted = true;\r\n        temp.Transaction_History.push(\r\n            Transaction_Part(\"Gifted\", msg.sender, _to)\r\n        );\r\n\r\n        IERC721(nftContract).transferFrom(\r\n            IERC721(nftContract).ownerOf(tokenId),\r\n            msg.sender,\r\n            tokenId\r\n        );\r\n    }\r\n\r\n    // Owner of SmartContract\r\n    modifier Deployer_OnlyOwner(){\r\n        require(msg.sender==Owner,\"You're not actual owner of smartcontract, ACCESS DENIED \");\r\n        _;\r\n    }\r\n\r\n    // In case of attaking , Owner can prevent all contract and data by pausing all function by calling this function\r\n    function Pause() private view Deployer_OnlyOwner {\r\n        Pausable.paused();\r\n    }\r\n\r\n    function fetchUnsoldMarketItems()\r\n        public\r\n        view\r\n        returns (MarketItem[] memory)\r\n    {\r\n        uint256 ItemCount = _ItemsId.current();\r\n        uint256 UnsoldItemCount = SafeMath.sub(\r\n            _ItemsId.current(),\r\n            _Itemsold.current()\r\n        );\r\n        uint256 CurrentIndex = 0;\r\n        MarketItem[] memory Items = new MarketItem[](UnsoldItemCount);\r\n        for (uint256 i = 0; i < ItemCount; i++) {\r\n            if (!IdtoMarketItem[i + 1].Sold) {\r\n                uint256 currentId = IdtoMarketItem[i + 1].itemId;\r\n                MarketItem storage currentItem = IdtoMarketItem[currentId];\r\n                Items[CurrentIndex] = currentItem;\r\n                CurrentIndex = SafeMath.add(CurrentIndex, 1);\r\n            }\r\n        }\r\n        return Items;\r\n    }\r\n\r\n    function fetchMyNfts() public view returns (MarketItem[] memory) {\r\n        uint256 ItemCount = _ItemsId.current();\r\n        uint256 CurrentIndex = 0;\r\n        MarketItem[] memory Items = new MarketItem[](CurrentIndex);\r\n        for (uint256 i = 0; i < ItemCount; i++) {\r\n            if (IdtoMarketItem[i + 1].Owner == msg.sender) {\r\n                uint256 currentId = IdtoMarketItem[i + 1].itemId;\r\n                MarketItem storage currentItem = IdtoMarketItem[currentId];\r\n                Items[CurrentIndex] = currentItem;\r\n                CurrentIndex = SafeMath.add(CurrentIndex, 1);\r\n            }\r\n        }\r\n        return Items;\r\n    }\r\n\r\n    function fetchItemsCreated() public view returns (MarketItem[] memory) {\r\n        uint256 ItemCount = _ItemsId.current();\r\n        uint256 CurrentIndex = 0;\r\n        MarketItem[] memory Items = new MarketItem[](CurrentIndex);\r\n        for (uint256 i = 0; i < ItemCount; i++) {\r\n            if (IdtoMarketItem[i + 1].creater == msg.sender) {\r\n                uint256 currentId = IdtoMarketItem[i + 1].itemId;\r\n                MarketItem storage currentItem = IdtoMarketItem[currentId];\r\n                Items[CurrentIndex] = currentItem;\r\n                CurrentIndex = SafeMath.add(CurrentIndex, 1);\r\n            }\r\n        }\r\n        return Items;\r\n    }\r\n\r\n    function fetchNftsGift() public view returns (MarketItem[] memory) {\r\n        uint256 ItemCount = _ItemsId.current();\r\n        uint256 CurrentIndex = 0;\r\n        MarketItem[] memory Items = new MarketItem[](CurrentIndex);\r\n        for (uint256 i = 0; i < ItemCount; i++) {\r\n            if (IdtoMarketItem[i + 1].Gifted == true) {\r\n                uint256 currentId = IdtoMarketItem[i + 1].itemId;\r\n                MarketItem storage currentItem = IdtoMarketItem[currentId];\r\n                Items[CurrentIndex] = currentItem;\r\n                CurrentIndex = SafeMath.add(CurrentIndex, 1);\r\n            }\r\n        }\r\n        return Items;\r\n    }\r\n\r\n    function fetchSignNfts() public view returns (MarketItem[] memory) {\r\n        uint256 ItemCount = _ItemsId.current();\r\n        uint256 CurrentIndex = 0;\r\n        MarketItem[] memory Items = new MarketItem[](CurrentIndex);\r\n        for (uint256 i = 0; i < ItemCount; i++) {\r\n            if (bytes(IdtoMarketItem[i + 1].Signature).length != 0) {\r\n                uint256 currentId = IdtoMarketItem[i + 1].itemId;\r\n                MarketItem storage currentItem = IdtoMarketItem[currentId];\r\n                Items[CurrentIndex] = currentItem;\r\n                CurrentIndex = SafeMath.add(CurrentIndex, 1);\r\n            }\r\n        }\r\n        return Items;\r\n    }\r\n}\r\n",
  "sourcePath": "C:\\Users\\Anandkumar\\OneDrive\\Desktop\\solidity\\ERC721\\contracts\\NftMarket.sol",
  "compiler": {
    "name": "solc",
    "version": "0.8.15+commit.e14f2714.Emscripten.clang"
  },
  "schemaVersion": "3.4.8",
  "updatedAt": "2022-09-12T14:17:06.729Z",
  "networkType": "ethereum",
  "devdoc": {
    "kind": "dev",
    "methods": {
      "paused()": {
        "details": "Returns true if the contract is paused, and false otherwise."
      }
    },
    "version": 1
  },
  "userdoc": {
    "kind": "user",
    "methods": {},
    "version": 1
  }
}