{
  "contractName": "NftMarket",
  "abi": [
    {
      "inputs": [],
      "stateMutability": "nonpayable",
      "type": "constructor"
    },
    {
      "anonymous": false,
      "inputs": [
        {
          "indexed": true,
          "internalType": "address",
          "name": "nftContract",
          "type": "address"
        },
        {
          "indexed": true,
          "internalType": "address",
          "name": "Seller",
          "type": "address"
        },
        {
          "indexed": true,
          "internalType": "address",
          "name": "Owner",
          "type": "address"
        }
      ],
      "name": "MarketCreated",
      "type": "event"
    },
    {
      "anonymous": false,
      "inputs": [
        {
          "indexed": false,
          "internalType": "string",
          "name": "Faculty_Name",
          "type": "string"
        },
        {
          "indexed": false,
          "internalType": "string",
          "name": "e_mail",
          "type": "string"
        },
        {
          "indexed": false,
          "internalType": "uint256",
          "name": "Token_Id",
          "type": "uint256"
        }
      ],
      "name": "Sig_Verified",
      "type": "event"
    },
    {
      "inputs": [],
      "name": "getListingPrice",
      "outputs": [
        {
          "internalType": "uint256",
          "name": "",
          "type": "uint256"
        }
      ],
      "stateMutability": "view",
      "type": "function"
    },
    {
      "inputs": [
        {
          "internalType": "address",
          "name": "nftContract",
          "type": "address"
        },
        {
          "internalType": "uint256",
          "name": "Price",
          "type": "uint256"
        },
        {
          "internalType": "uint256",
          "name": "tokenId",
          "type": "uint256"
        }
      ],
      "name": "CreatMarketItem",
      "outputs": [],
      "stateMutability": "payable",
      "type": "function"
    },
    {
      "inputs": [
        {
          "internalType": "uint256",
          "name": "ItemId",
          "type": "uint256"
        }
      ],
      "name": "creatMarketSale",
      "outputs": [],
      "stateMutability": "payable",
      "type": "function"
    },
    {
      "inputs": [
        {
          "internalType": "string",
          "name": "Faculty_Name",
          "type": "string"
        },
        {
          "internalType": "string",
          "name": "_Signature",
          "type": "string"
        },
        {
          "internalType": "uint256",
          "name": "ItemId",
          "type": "uint256"
        }
      ],
      "name": "AddSingnature",
      "outputs": [],
      "stateMutability": "nonpayable",
      "type": "function"
    },
    {
      "inputs": [
        {
          "internalType": "address",
          "name": "_to",
          "type": "address"
        },
        {
          "internalType": "uint256",
          "name": "ItemId",
          "type": "uint256"
        }
      ],
      "name": "GiftNft",
      "outputs": [],
      "stateMutability": "nonpayable",
      "type": "function"
    },
    {
      "inputs": [],
      "name": "fetchUnsoldMarketItems",
      "outputs": [
        {
          "components": [
            {
              "internalType": "uint256",
              "name": "itemId",
              "type": "uint256"
            },
            {
              "internalType": "address",
              "name": "nftContract",
              "type": "address"
            },
            {
              "internalType": "address payable",
              "name": "creater",
              "type": "address"
            },
            {
              "internalType": "address payable",
              "name": "Owner",
              "type": "address"
            },
            {
              "internalType": "uint256",
              "name": "TokenId",
              "type": "uint256"
            },
            {
              "internalType": "uint256",
              "name": "Price",
              "type": "uint256"
            },
            {
              "internalType": "bool",
              "name": "Sold",
              "type": "bool"
            },
            {
              "internalType": "bool",
              "name": "Gifted",
              "type": "bool"
            },
            {
              "internalType": "string",
              "name": "Signature",
              "type": "string"
            },
            {
              "components": [
                {
                  "internalType": "string",
                  "name": "Event",
                  "type": "string"
                },
                {
                  "internalType": "address",
                  "name": "_from",
                  "type": "address"
                },
                {
                  "internalType": "address",
                  "name": "_to",
                  "type": "address"
                }
              ],
              "internalType": "struct NftMarket.Transaction_Part[]",
              "name": "Transaction_History",
              "type": "tuple[]"
            }
          ],
          "internalType": "struct NftMarket.MarketItem[]",
          "name": "",
          "type": "tuple[]"
        }
      ],
      "stateMutability": "view",
      "type": "function"
    },
    {
      "inputs": [],
      "name": "fetchMyNfts",
      "outputs": [
        {
          "components": [
            {
              "internalType": "uint256",
              "name": "itemId",
              "type": "uint256"
            },
            {
              "internalType": "address",
              "name": "nftContract",
              "type": "address"
            },
            {
              "internalType": "address payable",
              "name": "creater",
              "type": "address"
            },
            {
              "internalType": "address payable",
              "name": "Owner",
              "type": "address"
            },
            {
              "internalType": "uint256",
              "name": "TokenId",
              "type": "uint256"
            },
            {
              "internalType": "uint256",
              "name": "Price",
              "type": "uint256"
            },
            {
              "internalType": "bool",
              "name": "Sold",
              "type": "bool"
            },
            {
              "internalType": "bool",
              "name": "Gifted",
              "type": "bool"
            },
            {
              "internalType": "string",
              "name": "Signature",
              "type": "string"
            },
            {
              "components": [
                {
                  "internalType": "string",
                  "name": "Event",
                  "type": "string"
                },
                {
                  "internalType": "address",
                  "name": "_from",
                  "type": "address"
                },
                {
                  "internalType": "address",
                  "name": "_to",
                  "type": "address"
                }
              ],
              "internalType": "struct NftMarket.Transaction_Part[]",
              "name": "Transaction_History",
              "type": "tuple[]"
            }
          ],
          "internalType": "struct NftMarket.MarketItem[]",
          "name": "",
          "type": "tuple[]"
        }
      ],
      "stateMutability": "view",
      "type": "function"
    },
    {
      "inputs": [],
      "name": "fetchItemsCreated",
      "outputs": [
        {
          "components": [
            {
              "internalType": "uint256",
              "name": "itemId",
              "type": "uint256"
            },
            {
              "internalType": "address",
              "name": "nftContract",
              "type": "address"
            },
            {
              "internalType": "address payable",
              "name": "creater",
              "type": "address"
            },
            {
              "internalType": "address payable",
              "name": "Owner",
              "type": "address"
            },
            {
              "internalType": "uint256",
              "name": "TokenId",
              "type": "uint256"
            },
            {
              "internalType": "uint256",
              "name": "Price",
              "type": "uint256"
            },
            {
              "internalType": "bool",
              "name": "Sold",
              "type": "bool"
            },
            {
              "internalType": "bool",
              "name": "Gifted",
              "type": "bool"
            },
            {
              "internalType": "string",
              "name": "Signature",
              "type": "string"
            },
            {
              "components": [
                {
                  "internalType": "string",
                  "name": "Event",
                  "type": "string"
                },
                {
                  "internalType": "address",
                  "name": "_from",
                  "type": "address"
                },
                {
                  "internalType": "address",
                  "name": "_to",
                  "type": "address"
                }
              ],
              "internalType": "struct NftMarket.Transaction_Part[]",
              "name": "Transaction_History",
              "type": "tuple[]"
            }
          ],
          "internalType": "struct NftMarket.MarketItem[]",
          "name": "",
          "type": "tuple[]"
        }
      ],
      "stateMutability": "view",
      "type": "function"
    },
    {
      "inputs": [],
      "name": "fetchNftsGift",
      "outputs": [
        {
          "components": [
            {
              "internalType": "uint256",
              "name": "itemId",
              "type": "uint256"
            },
            {
              "internalType": "address",
              "name": "nftContract",
              "type": "address"
            },
            {
              "internalType": "address payable",
              "name": "creater",
              "type": "address"
            },
            {
              "internalType": "address payable",
              "name": "Owner",
              "type": "address"
            },
            {
              "internalType": "uint256",
              "name": "TokenId",
              "type": "uint256"
            },
            {
              "internalType": "uint256",
              "name": "Price",
              "type": "uint256"
            },
            {
              "internalType": "bool",
              "name": "Sold",
              "type": "bool"
            },
            {
              "internalType": "bool",
              "name": "Gifted",
              "type": "bool"
            },
            {
              "internalType": "string",
              "name": "Signature",
              "type": "string"
            },
            {
              "components": [
                {
                  "internalType": "string",
                  "name": "Event",
                  "type": "string"
                },
                {
                  "internalType": "address",
                  "name": "_from",
                  "type": "address"
                },
                {
                  "internalType": "address",
                  "name": "_to",
                  "type": "address"
                }
              ],
              "internalType": "struct NftMarket.Transaction_Part[]",
              "name": "Transaction_History",
              "type": "tuple[]"
            }
          ],
          "internalType": "struct NftMarket.MarketItem[]",
          "name": "",
          "type": "tuple[]"
        }
      ],
      "stateMutability": "view",
      "type": "function"
    },
    {
      "inputs": [],
      "name": "fetchSignNfts",
      "outputs": [
        {
          "components": [
            {
              "internalType": "uint256",
              "name": "itemId",
              "type": "uint256"
            },
            {
              "internalType": "address",
              "name": "nftContract",
              "type": "address"
            },
            {
              "internalType": "address payable",
              "name": "creater",
              "type": "address"
            },
            {
              "internalType": "address payable",
              "name": "Owner",
              "type": "address"
            },
            {
              "internalType": "uint256",
              "name": "TokenId",
              "type": "uint256"
            },
            {
              "internalType": "uint256",
              "name": "Price",
              "type": "uint256"
            },
            {
              "internalType": "bool",
              "name": "Sold",
              "type": "bool"
            },
            {
              "internalType": "bool",
              "name": "Gifted",
              "type": "bool"
            },
            {
              "internalType": "string",
              "name": "Signature",
              "type": "string"
            },
            {
              "components": [
                {
                  "internalType": "string",
                  "name": "Event",
                  "type": "string"
                },
                {
                  "internalType": "address",
                  "name": "_from",
                  "type": "address"
                },
                {
                  "internalType": "address",
                  "name": "_to",
                  "type": "address"
                }
              ],
              "internalType": "struct NftMarket.Transaction_Part[]",
              "name": "Transaction_History",
              "type": "tuple[]"
            }
          ],
          "internalType": "struct NftMarket.MarketItem[]",
          "name": "",
          "type": "tuple[]"
        }
      ],
      "stateMutability": "view",
      "type": "function"
    }
  ],
  "bytecode": "0x6080604052670de0b6b3a764000060045534801561001c57600080fd5b50600160008190555033600360006101000a81548173ffffffffffffffffffffffffffffffffffffffff021916908373ffffffffffffffffffffffffffffffffffffffff160217905550613c0f806100756000396000f3fe6080604052600436106100915760003560e01c80637628ff55116100595780637628ff551461015c57806384ddf88c146101875780638be8dda4146101b0578063cfab5038146101cc578063f064c32e146101f757610091565b8063128ae7121461009657806312e85585146100c1578063189c5e8b146100ec5780634f5465d91461011757806372b5a1ce14610133575b600080fd5b3480156100a257600080fd5b506100ab610222565b6040516100b89190612e64565b60405180910390f35b3480156100cd57600080fd5b506100d6610726565b6040516100e39190612e95565b60405180910390f35b3480156100f857600080fd5b50610101610730565b60405161010e9190612e64565b60405180910390f35b610131600480360381019061012c9190612ef0565b610bfa565b005b34801561013f57600080fd5b5061015a60048036038101906101559190613052565b6110ae565b005b34801561016857600080fd5b506101716112a4565b60405161017e9190612e64565b60405180910390f35b34801561019357600080fd5b506101ae60048036038101906101a99190613109565b611788565b005b6101ca60048036038101906101c59190613149565b611b17565b005b3480156101d857600080fd5b506101e1611eee565b6040516101ee9190612e64565b60405180910390f35b34801561020357600080fd5b5061020c6123b3565b6040516102199190612e64565b60405180910390f35b6060600061023060016128b7565b90506000808167ffffffffffffffff81111561024f5761024e612f27565b5b60405190808252806020026020018201604052801561028857816020015b6102756129e7565b81526020019060019003908161026d5790505b50905060005b8381101561071c573373ffffffffffffffffffffffffffffffffffffffff16600560006001846102be91906131cb565b815260200190815260200160002060030160009054906101000a900473ffffffffffffffffffffffffffffffffffffffff1673ffffffffffffffffffffffffffffffffffffffff16036107095760006005600060018461031e91906131cb565b815260200190815260200160002060000154905060006005600083815260200190815260200160002090508060405180610140016040529081600082015481526020016001820160009054906101000a900473ffffffffffffffffffffffffffffffffffffffff1673ffffffffffffffffffffffffffffffffffffffff1673ffffffffffffffffffffffffffffffffffffffff1681526020016002820160009054906101000a900473ffffffffffffffffffffffffffffffffffffffff1673ffffffffffffffffffffffffffffffffffffffff1673ffffffffffffffffffffffffffffffffffffffff1681526020016003820160009054906101000a900473ffffffffffffffffffffffffffffffffffffffff1673ffffffffffffffffffffffffffffffffffffffff1673ffffffffffffffffffffffffffffffffffffffff16815260200160048201548152602001600582015481526020016006820160009054906101000a900460ff161515151581526020016006820160019054906101000a900460ff161515151581526020016007820180546104bc90613250565b80601f01602080910402602001604051908101604052809291908181526020018280546104e890613250565b80156105355780601f1061050a57610100808354040283529160200191610535565b820191906000526020600020905b81548152906001019060200180831161051857829003601f168201915b5050505050815260200160088201805480602002602001604051908101604052809291908181526020016000905b828210156106d3578382906000526020600020906003020160405180606001604052908160008201805461059690613250565b80601f01602080910402602001604051908101604052809291908181526020018280546105c290613250565b801561060f5780601f106105e45761010080835404028352916020019161060f565b820191906000526020600020905b8154815290600101906020018083116105f257829003601f168201915b505050505081526020016001820160009054906101000a900473ffffffffffffffffffffffffffffffffffffffff1673ffffffffffffffffffffffffffffffffffffffff1673ffffffffffffffffffffffffffffffffffffffff1681526020016002820160009054906101000a900473ffffffffffffffffffffffffffffffffffffffff1673ffffffffffffffffffffffffffffffffffffffff1673ffffffffffffffffffffffffffffffffffffffff168152505081526020019060010190610563565b50505050815250508486815181106106ee576106ed613281565b5b60200260200101819052506107048560016128c5565b945050505b8080610714906132b0565b91505061028e565b5080935050505090565b6000600454905090565b6060600061073e60016128b7565b90506000808167ffffffffffffffff81111561075d5761075c612f27565b5b60405190808252806020026020018201604052801561079657816020015b6107836129e7565b81526020019060019003908161077b5790505b50905060005b83811015610bf05760011515600560006001846107b991906131cb565b815260200190815260200160002060060160019054906101000a900460ff16151503610bdd576000600560006001846107f291906131cb565b815260200190815260200160002060000154905060006005600083815260200190815260200160002090508060405180610140016040529081600082015481526020016001820160009054906101000a900473ffffffffffffffffffffffffffffffffffffffff1673ffffffffffffffffffffffffffffffffffffffff1673ffffffffffffffffffffffffffffffffffffffff1681526020016002820160009054906101000a900473ffffffffffffffffffffffffffffffffffffffff1673ffffffffffffffffffffffffffffffffffffffff1673ffffffffffffffffffffffffffffffffffffffff1681526020016003820160009054906101000a900473ffffffffffffffffffffffffffffffffffffffff1673ffffffffffffffffffffffffffffffffffffffff1673ffffffffffffffffffffffffffffffffffffffff16815260200160048201548152602001600582015481526020016006820160009054906101000a900460ff161515151581526020016006820160019054906101000a900460ff1615151515815260200160078201805461099090613250565b80601f01602080910402602001604051908101604052809291908181526020018280546109bc90613250565b8015610a095780601f106109de57610100808354040283529160200191610a09565b820191906000526020600020905b8154815290600101906020018083116109ec57829003601f168201915b5050505050815260200160088201805480602002602001604051908101604052809291908181526020016000905b82821015610ba75783829060005260206000209060030201604051806060016040529081600082018054610a6a90613250565b80601f0160208091040260200160405190810160405280929190818152602001828054610a9690613250565b8015610ae35780601f10610ab857610100808354040283529160200191610ae3565b820191906000526020600020905b815481529060010190602001808311610ac657829003601f168201915b505050505081526020016001820160009054906101000a900473ffffffffffffffffffffffffffffffffffffffff1673ffffffffffffffffffffffffffffffffffffffff1673ffffffffffffffffffffffffffffffffffffffff1681526020016002820160009054906101000a900473ffffffffffffffffffffffffffffffffffffffff1673ffffffffffffffffffffffffffffffffffffffff1673ffffffffffffffffffffffffffffffffffffffff168152505081526020019060010190610a37565b5050505081525050848681518110610bc257610bc1613281565b5b6020026020010181905250610bd88560016128c5565b945050505b8080610be8906132b0565b91505061079c565b5080935050505090565b600260005403610c3f576040517f08c379a0000000000000000000000000000000000000000000000000000000008152600401610c3690613355565b60405180910390fd5b600260008190555080610c5260016128b7565b1015610c93576040517f08c379a0000000000000000000000000000000000000000000000000000000008152600401610c8a906133e7565b60405180910390fd5b600060056000838152602001908152602001600020905060008160050154905060008260040154905060008360010160009054906101000a900473ffffffffffffffffffffffffffffffffffffffff169050823414610d27576040517f08c379a0000000000000000000000000000000000000000000000000000000008152600401610d1e90613479565b60405180910390fd5b60008460030160009054906101000a900473ffffffffffffffffffffffffffffffffffffffff169050338560030160006101000a81548173ffffffffffffffffffffffffffffffffffffffff021916908373ffffffffffffffffffffffffffffffffffffffff16021790555060018560060160006101000a81548160ff0219169083151502179055508460080160405180606001604052806040518060400160405280600881526020017f73656c6c2f42757900000000000000000000000000000000000000000000000081525081526020018373ffffffffffffffffffffffffffffffffffffffff1681526020013373ffffffffffffffffffffffffffffffffffffffff1681525090806001815401808255809150506001900390600052602060002090600302016000909190919091506000820151816000019081610e6e9190613645565b5060208201518160010160006101000a81548173ffffffffffffffffffffffffffffffffffffffff021916908373ffffffffffffffffffffffffffffffffffffffff16021790555060408201518160020160006101000a81548173ffffffffffffffffffffffffffffffffffffffff021916908373ffffffffffffffffffffffffffffffffffffffff1602179055505050610f096002612923565b8173ffffffffffffffffffffffffffffffffffffffff166323b872dd8373ffffffffffffffffffffffffffffffffffffffff16636352211e866040518263ffffffff1660e01b8152600401610f5e9190612e95565b602060405180830381865afa158015610f7b573d6000803e3d6000fd5b505050506040513d601f19601f82011682018060405250810190610f9f919061372c565b33866040518463ffffffff1660e01b8152600401610fbf93929190613768565b600060405180830381600087803b158015610fd957600080fd5b505af1158015610fed573d6000803e3d6000fd5b5050505060008173ffffffffffffffffffffffffffffffffffffffff1634604051611017906137d0565b60006040518083038185875af1925050503d8060008114611054576040519150601f19603f3d011682016040523d82523d6000602084013e611059565b606091505b505090508061109d576040517f08c379a000000000000000000000000000000000000000000000000000000000815260040161109490613857565b60405180910390fd5b505050505050600160008190555050565b6002600054036110f3576040517f08c379a00000000000000000000000000000000000000000000000000000000081526004016110ea90613355565b60405180910390fd5b60026000819055506005600082815260200190815260200160002060010160009054906101000a900473ffffffffffffffffffffffffffffffffffffffff1660056000838152602001908152602001600020600401548173ffffffffffffffffffffffffffffffffffffffff16636352211e826040518263ffffffff1660e01b81526004016111829190612e95565b602060405180830381865afa15801561119f573d6000803e3d6000fd5b505050506040513d601f19601f820116820180604052508101906111c3919061372c565b73ffffffffffffffffffffffffffffffffffffffff163373ffffffffffffffffffffffffffffffffffffffff1614611230576040517f08c379a0000000000000000000000000000000000000000000000000000000008152600401611227906138c3565b60405180910390fd5b6000600560008581526020019081526020016000209050848160070190816112589190613645565b507f1a0923a4d84ecf9a541f86d8590689ead46730c692317a27addb8fa94685957e86868660405161128c9392919061391c565b60405180910390a15050506001600081905550505050565b606060006112b260016128b7565b905060006112d26112c360016128b7565b6112cd60026128b7565b612939565b90506000808267ffffffffffffffff8111156112f1576112f0612f27565b5b60405190808252806020026020018201604052801561132a57816020015b6113176129e7565b81526020019060019003908161130f5790505b50905060005b8481101561177d576005600060018361134991906131cb565b815260200190815260200160002060060160009054906101000a900460ff1661176a5760006005600060018461137f91906131cb565b815260200190815260200160002060000154905060006005600083815260200190815260200160002090508060405180610140016040529081600082015481526020016001820160009054906101000a900473ffffffffffffffffffffffffffffffffffffffff1673ffffffffffffffffffffffffffffffffffffffff1673ffffffffffffffffffffffffffffffffffffffff1681526020016002820160009054906101000a900473ffffffffffffffffffffffffffffffffffffffff1673ffffffffffffffffffffffffffffffffffffffff1673ffffffffffffffffffffffffffffffffffffffff1681526020016003820160009054906101000a900473ffffffffffffffffffffffffffffffffffffffff1673ffffffffffffffffffffffffffffffffffffffff1673ffffffffffffffffffffffffffffffffffffffff16815260200160048201548152602001600582015481526020016006820160009054906101000a900460ff161515151581526020016006820160019054906101000a900460ff1615151515815260200160078201805461151d90613250565b80601f016020809104026020016040519081016040528092919081815260200182805461154990613250565b80156115965780601f1061156b57610100808354040283529160200191611596565b820191906000526020600020905b81548152906001019060200180831161157957829003601f168201915b5050505050815260200160088201805480602002602001604051908101604052809291908181526020016000905b8282101561173457838290600052602060002090600302016040518060600160405290816000820180546115f790613250565b80601f016020809104026020016040519081016040528092919081815260200182805461162390613250565b80156116705780601f1061164557610100808354040283529160200191611670565b820191906000526020600020905b81548152906001019060200180831161165357829003601f168201915b505050505081526020016001820160009054906101000a900473ffffffffffffffffffffffffffffffffffffffff1673ffffffffffffffffffffffffffffffffffffffff1673ffffffffffffffffffffffffffffffffffffffff1681526020016002820160009054906101000a900473ffffffffffffffffffffffffffffffffffffffff1673ffffffffffffffffffffffffffffffffffffffff1673ffffffffffffffffffffffffffffffffffffffff1681525050815260200190600101906115c4565b505050508152505084868151811061174f5761174e613281565b5b60200260200101819052506117658560016128c5565b945050505b8080611775906132b0565b915050611330565b508094505050505090565b6002600054036117cd576040517f08c379a00000000000000000000000000000000000000000000000000000000081526004016117c490613355565b60405180910390fd5b6002600081905550600060056000838152602001908152602001600020905060008160070180546117fd90613250565b90500361183f576040517f08c379a0000000000000000000000000000000000000000000000000000000008152600401611836906139d3565b60405180910390fd5b60008160040154905060008260010160009054906101000a900473ffffffffffffffffffffffffffffffffffffffff169050848360030160006101000a81548173ffffffffffffffffffffffffffffffffffffffff021916908373ffffffffffffffffffffffffffffffffffffffff16021790555060018360060160016101000a81548160ff0219169083151502179055508260080160405180606001604052806040518060400160405280600681526020017f476966746564000000000000000000000000000000000000000000000000000081525081526020013373ffffffffffffffffffffffffffffffffffffffff1681526020018773ffffffffffffffffffffffffffffffffffffffff168152509080600181540180825580915050600190039060005260206000209060030201600090919091909150600082015181600001908161198f9190613645565b5060208201518160010160006101000a81548173ffffffffffffffffffffffffffffffffffffffff021916908373ffffffffffffffffffffffffffffffffffffffff16021790555060408201518160020160006101000a81548173ffffffffffffffffffffffffffffffffffffffff021916908373ffffffffffffffffffffffffffffffffffffffff16021790555050508073ffffffffffffffffffffffffffffffffffffffff166323b872dd8273ffffffffffffffffffffffffffffffffffffffff16636352211e856040518263ffffffff1660e01b8152600401611a759190612e95565b602060405180830381865afa158015611a92573d6000803e3d6000fd5b505050506040513d601f19601f82011682018060405250810190611ab6919061372c565b33856040518463ffffffff1660e01b8152600401611ad693929190613768565b600060405180830381600087803b158015611af057600080fd5b505af1158015611b04573d6000803e3d6000fd5b5050505050505060016000819055505050565b600260005403611b5c576040517f08c379a0000000000000000000000000000000000000000000000000000000008152600401611b5390613355565b60405180910390fd5b600260008190555060003411611ba7576040517f08c379a0000000000000000000000000000000000000000000000000000000008152600401611b9e90613a65565b60405180910390fd5b6004543414611beb576040517f08c379a0000000000000000000000000000000000000000000000000000000008152600401611be290613af7565b60405180910390fd5b611bf56001612923565b6000611c0160016128b7565b90506000600560008381526020019081526020016000209050818160000181905550848160010160006101000a81548173ffffffffffffffffffffffffffffffffffffffff021916908373ffffffffffffffffffffffffffffffffffffffff160217905550338160020160006101000a81548173ffffffffffffffffffffffffffffffffffffffff021916908373ffffffffffffffffffffffffffffffffffffffff160217905550338160030160006101000a81548173ffffffffffffffffffffffffffffffffffffffff021916908373ffffffffffffffffffffffffffffffffffffffff16021790555083816005018190555082816004018190555060405180602001604052806000815250816007019081611d1e9190613645565b508060080160405180606001604052806040518060400160405280600781526020017f437265617465640000000000000000000000000000000000000000000000000081525081526020013373ffffffffffffffffffffffffffffffffffffffff1681526020013373ffffffffffffffffffffffffffffffffffffffff1681525090806001815401808255809150506001900390600052602060002090600302016000909190919091506000820151816000019081611ddd9190613645565b5060208201518160010160006101000a81548173ffffffffffffffffffffffffffffffffffffffff021916908373ffffffffffffffffffffffffffffffffffffffff16021790555060408201518160020160006101000a81548173ffffffffffffffffffffffffffffffffffffffff021916908373ffffffffffffffffffffffffffffffffffffffff16021790555050503373ffffffffffffffffffffffffffffffffffffffff163373ffffffffffffffffffffffffffffffffffffffff168673ffffffffffffffffffffffffffffffffffffffff167fe63e6130091e2155004c4b5ac35e8fb9be704d6637ff3068a8f710ba36c9f41a60405160405180910390a450506001600081905550505050565b60606000611efc60016128b7565b90506000808167ffffffffffffffff811115611f1b57611f1a612f27565b5b604051908082528060200260200182016040528015611f5457816020015b611f416129e7565b815260200190600190039081611f395790505b50905060005b838110156123a957600060056000600184611f7591906131cb565b81526020019081526020016000206007018054611f9190613250565b90501461239657600060056000600184611fab91906131cb565b815260200190815260200160002060000154905060006005600083815260200190815260200160002090508060405180610140016040529081600082015481526020016001820160009054906101000a900473ffffffffffffffffffffffffffffffffffffffff1673ffffffffffffffffffffffffffffffffffffffff1673ffffffffffffffffffffffffffffffffffffffff1681526020016002820160009054906101000a900473ffffffffffffffffffffffffffffffffffffffff1673ffffffffffffffffffffffffffffffffffffffff1673ffffffffffffffffffffffffffffffffffffffff1681526020016003820160009054906101000a900473ffffffffffffffffffffffffffffffffffffffff1673ffffffffffffffffffffffffffffffffffffffff1673ffffffffffffffffffffffffffffffffffffffff16815260200160048201548152602001600582015481526020016006820160009054906101000a900460ff161515151581526020016006820160019054906101000a900460ff1615151515815260200160078201805461214990613250565b80601f016020809104026020016040519081016040528092919081815260200182805461217590613250565b80156121c25780601f10612197576101008083540402835291602001916121c2565b820191906000526020600020905b8154815290600101906020018083116121a557829003601f168201915b5050505050815260200160088201805480602002602001604051908101604052809291908181526020016000905b82821015612360578382906000526020600020906003020160405180606001604052908160008201805461222390613250565b80601f016020809104026020016040519081016040528092919081815260200182805461224f90613250565b801561229c5780601f106122715761010080835404028352916020019161229c565b820191906000526020600020905b81548152906001019060200180831161227f57829003601f168201915b505050505081526020016001820160009054906101000a900473ffffffffffffffffffffffffffffffffffffffff1673ffffffffffffffffffffffffffffffffffffffff1673ffffffffffffffffffffffffffffffffffffffff1681526020016002820160009054906101000a900473ffffffffffffffffffffffffffffffffffffffff1673ffffffffffffffffffffffffffffffffffffffff1673ffffffffffffffffffffffffffffffffffffffff1681525050815260200190600101906121f0565b505050508152505084868151811061237b5761237a613281565b5b60200260200101819052506123918560016128c5565b945050505b80806123a1906132b0565b915050611f5a565b5080935050505090565b606060006123c160016128b7565b90506000808167ffffffffffffffff8111156123e0576123df612f27565b5b60405190808252806020026020018201604052801561241957816020015b6124066129e7565b8152602001906001900390816123fe5790505b50905060005b838110156128ad573373ffffffffffffffffffffffffffffffffffffffff166005600060018461244f91906131cb565b815260200190815260200160002060020160009054906101000a900473ffffffffffffffffffffffffffffffffffffffff1673ffffffffffffffffffffffffffffffffffffffff160361289a576000600560006001846124af91906131cb565b815260200190815260200160002060000154905060006005600083815260200190815260200160002090508060405180610140016040529081600082015481526020016001820160009054906101000a900473ffffffffffffffffffffffffffffffffffffffff1673ffffffffffffffffffffffffffffffffffffffff1673ffffffffffffffffffffffffffffffffffffffff1681526020016002820160009054906101000a900473ffffffffffffffffffffffffffffffffffffffff1673ffffffffffffffffffffffffffffffffffffffff1673ffffffffffffffffffffffffffffffffffffffff1681526020016003820160009054906101000a900473ffffffffffffffffffffffffffffffffffffffff1673ffffffffffffffffffffffffffffffffffffffff1673ffffffffffffffffffffffffffffffffffffffff16815260200160048201548152602001600582015481526020016006820160009054906101000a900460ff161515151581526020016006820160019054906101000a900460ff1615151515815260200160078201805461264d90613250565b80601f016020809104026020016040519081016040528092919081815260200182805461267990613250565b80156126c65780601f1061269b576101008083540402835291602001916126c6565b820191906000526020600020905b8154815290600101906020018083116126a957829003601f168201915b5050505050815260200160088201805480602002602001604051908101604052809291908181526020016000905b82821015612864578382906000526020600020906003020160405180606001604052908160008201805461272790613250565b80601f016020809104026020016040519081016040528092919081815260200182805461275390613250565b80156127a05780601f10612775576101008083540402835291602001916127a0565b820191906000526020600020905b81548152906001019060200180831161278357829003601f168201915b505050505081526020016001820160009054906101000a900473ffffffffffffffffffffffffffffffffffffffff1673ffffffffffffffffffffffffffffffffffffffff1673ffffffffffffffffffffffffffffffffffffffff1681526020016002820160009054906101000a900473ffffffffffffffffffffffffffffffffffffffff1673ffffffffffffffffffffffffffffffffffffffff1673ffffffffffffffffffffffffffffffffffffffff1681525050815260200190600101906126f4565b505050508152505084868151811061287f5761287e613281565b5b60200260200101819052506128958560016128c5565b945050505b80806128a5906132b0565b91505061241f565b5080935050505090565b600081600001549050919050565b60008082846128d491906131cb565b905083811015612919576040517f08c379a000000000000000000000000000000000000000000000000000000000815260040161291090613b63565b60405180910390fd5b8091505092915050565b6001816000016000828254019250508190555050565b600061297b83836040518060400160405280601e81526020017f536166654d6174683a207375627472616374696f6e206f766572666c6f770000815250612983565b905092915050565b60008383111582906129cb576040517f08c379a00000000000000000000000000000000000000000000000000000000081526004016129c29190613b83565b60405180910390fd5b50600083856129da9190613ba5565b9050809150509392505050565b60405180610140016040528060008152602001600073ffffffffffffffffffffffffffffffffffffffff168152602001600073ffffffffffffffffffffffffffffffffffffffff168152602001600073ffffffffffffffffffffffffffffffffffffffff168152602001600081526020016000815260200160001515815260200160001515815260200160608152602001606081525090565b600081519050919050565b600082825260208201905092915050565b6000819050602082019050919050565b6000819050919050565b612abf81612aac565b82525050565b600073ffffffffffffffffffffffffffffffffffffffff82169050919050565b6000612af082612ac5565b9050919050565b612b0081612ae5565b82525050565b6000612b1182612ac5565b9050919050565b612b2181612b06565b82525050565b60008115159050919050565b612b3c81612b27565b82525050565b600081519050919050565b600082825260208201905092915050565b60005b83811015612b7c578082015181840152602081019050612b61565b83811115612b8b576000848401525b50505050565b6000601f19601f8301169050919050565b6000612bad82612b42565b612bb78185612b4d565b9350612bc7818560208601612b5e565b612bd081612b91565b840191505092915050565b600081519050919050565b600082825260208201905092915050565b6000819050602082019050919050565b60006060830160008301518482036000860152612c248282612ba2565b9150506020830151612c396020860182612af7565b506040830151612c4c6040860182612af7565b508091505092915050565b6000612c638383612c07565b905092915050565b6000602082019050919050565b6000612c8382612bdb565b612c8d8185612be6565b935083602082028501612c9f85612bf7565b8060005b85811015612cdb5784840389528151612cbc8582612c57565b9450612cc783612c6b565b925060208a01995050600181019050612ca3565b50829750879550505050505092915050565b600061014083016000830151612d066000860182612ab6565b506020830151612d196020860182612af7565b506040830151612d2c6040860182612b18565b506060830151612d3f6060860182612b18565b506080830151612d526080860182612ab6565b5060a0830151612d6560a0860182612ab6565b5060c0830151612d7860c0860182612b33565b5060e0830151612d8b60e0860182612b33565b50610100830151848203610100860152612da58282612ba2565b915050610120830151848203610120860152612dc18282612c78565b9150508091505092915050565b6000612dda8383612ced565b905092915050565b6000602082019050919050565b6000612dfa82612a80565b612e048185612a8b565b935083602082028501612e1685612a9c565b8060005b85811015612e525784840389528151612e338582612dce565b9450612e3e83612de2565b925060208a01995050600181019050612e1a565b50829750879550505050505092915050565b60006020820190508181036000830152612e7e8184612def565b905092915050565b612e8f81612aac565b82525050565b6000602082019050612eaa6000830184612e86565b92915050565b6000604051905090565b600080fd5b600080fd5b612ecd81612aac565b8114612ed857600080fd5b50565b600081359050612eea81612ec4565b92915050565b600060208284031215612f0657612f05612eba565b5b6000612f1484828501612edb565b91505092915050565b600080fd5b600080fd5b7f4e487b7100000000000000000000000000000000000000000000000000000000600052604160045260246000fd5b612f5f82612b91565b810181811067ffffffffffffffff82111715612f7e57612f7d612f27565b5b80604052505050565b6000612f91612eb0565b9050612f9d8282612f56565b919050565b600067ffffffffffffffff821115612fbd57612fbc612f27565b5b612fc682612b91565b9050602081019050919050565b82818337600083830152505050565b6000612ff5612ff084612fa2565b612f87565b90508281526020810184848401111561301157613010612f22565b5b61301c848285612fd3565b509392505050565b600082601f83011261303957613038612f1d565b5b8135613049848260208601612fe2565b91505092915050565b60008060006060848603121561306b5761306a612eba565b5b600084013567ffffffffffffffff81111561308957613088612ebf565b5b61309586828701613024565b935050602084013567ffffffffffffffff8111156130b6576130b5612ebf565b5b6130c286828701613024565b92505060406130d386828701612edb565b9150509250925092565b6130e681612ae5565b81146130f157600080fd5b50565b600081359050613103816130dd565b92915050565b600080604083850312156131205761311f612eba565b5b600061312e858286016130f4565b925050602061313f85828601612edb565b9150509250929050565b60008060006060848603121561316257613161612eba565b5b6000613170868287016130f4565b935050602061318186828701612edb565b925050604061319286828701612edb565b9150509250925092565b7f4e487b7100000000000000000000000000000000000000000000000000000000600052601160045260246000fd5b60006131d682612aac565b91506131e183612aac565b9250827fffffffffffffffffffffffffffffffffffffffffffffffffffffffffffffffff038211156132165761321561319c565b5b828201905092915050565b7f4e487b7100000000000000000000000000000000000000000000000000000000600052602260045260246000fd5b6000600282049050600182168061326857607f821691505b60208210810361327b5761327a613221565b5b50919050565b7f4e487b7100000000000000000000000000000000000000000000000000000000600052603260045260246000fd5b60006132bb82612aac565b91507fffffffffffffffffffffffffffffffffffffffffffffffffffffffffffffffff82036132ed576132ec61319c565b5b600182019050919050565b600082825260208201905092915050565b7f5265656e7472616e637947756172643a207265656e7472616e742063616c6c00600082015250565b600061333f601f836132f8565b915061334a82613309565b602082019050919050565b6000602082019050818103600083015261336e81613332565b9050919050565b7f4e6f7468696e6720746f20627579204e66742061742074686973204974656d4960008201527f6400000000000000000000000000000000000000000000000000000000000000602082015250565b60006133d16021836132f8565b91506133dc82613375565b604082019050919050565b60006020820190508181036000830152613400816133c4565b9050919050565b7f706c65617365207375626d6974207468652061736b696e67207072696365206960008201527f6e206f7264657220746f20636f6d706c65746520746865207075726368617365602082015250565b60006134636040836132f8565b915061346e82613407565b604082019050919050565b6000602082019050818103600083015261349281613456565b9050919050565b60008190508160005260206000209050919050565b60006020601f8301049050919050565b600082821b905092915050565b6000600883026134fb7fffffffffffffffffffffffffffffffffffffffffffffffffffffffffffffffff826134be565b61350586836134be565b95508019841693508086168417925050509392505050565b6000819050919050565b600061354261353d61353884612aac565b61351d565b612aac565b9050919050565b6000819050919050565b61355c83613527565b61357061356882613549565b8484546134cb565b825550505050565b600090565b613585613578565b613590818484613553565b505050565b5b818110156135b4576135a960008261357d565b600181019050613596565b5050565b601f8211156135f9576135ca81613499565b6135d3846134ae565b810160208510156135e2578190505b6135f66135ee856134ae565b830182613595565b50505b505050565b600082821c905092915050565b600061361c600019846008026135fe565b1980831691505092915050565b6000613635838361360b565b9150826002028217905092915050565b61364e82612b42565b67ffffffffffffffff81111561366757613666612f27565b5b6136718254613250565b61367c8282856135b8565b600060209050601f8311600181146136af576000841561369d578287015190505b6136a78582613629565b86555061370f565b601f1984166136bd86613499565b60005b828110156136e5578489015182556001820191506020850194506020810190506136c0565b8683101561370257848901516136fe601f89168261360b565b8355505b6001600288020188555050505b505050505050565b600081519050613726816130dd565b92915050565b60006020828403121561374257613741612eba565b5b600061375084828501613717565b91505092915050565b61376281612ae5565b82525050565b600060608201905061377d6000830186613759565b61378a6020830185613759565b6137976040830184612e86565b949350505050565b600081905092915050565b50565b60006137ba60008361379f565b91506137c5826137aa565b600082019050919050565b60006137db826137ad565b9150819050919050565b7f4661696c656420746f2073656e6420457468657220746f2070726576696f757360008201527f204f776e6572206f6620204e6674000000000000000000000000000000000000602082015250565b6000613841602e836132f8565b915061384c826137e5565b604082019050919050565b6000602082019050818103600083015261387081613834565b9050919050565b7f4f6e6c79204f776e65722063616e207369676e6564206f6e204e465427730000600082015250565b60006138ad601e836132f8565b91506138b882613877565b602082019050919050565b600060208201905081810360008301526138dc816138a0565b9050919050565b60006138ee82612b42565b6138f881856132f8565b9350613908818560208601612b5e565b61391181612b91565b840191505092915050565b6000606082019050818103600083015261393681866138e3565b9050818103602083015261394a81856138e3565b90506139596040830184612e86565b949350505050565b7f4e465473206973206e6f74207369676e617475726564206469676974616c6c7960008201527f2e00000000000000000000000000000000000000000000000000000000000000602082015250565b60006139bd6021836132f8565b91506139c882613961565b604082019050919050565b600060208201905081810360008301526139ec816139b0565b9050919050565b7f73656c6c696e67207072696365206d757374206265206772656174657220746860008201527f616e205a45524f20776569000000000000000000000000000000000000000000602082015250565b6000613a4f602b836132f8565b9150613a5a826139f3565b604082019050919050565b60006020820190508181036000830152613a7e81613a42565b9050919050565b7f5072696365206d75737420626520657175616c20746f206c697374696e67207060008201527f7269636500000000000000000000000000000000000000000000000000000000602082015250565b6000613ae16024836132f8565b9150613aec82613a85565b604082019050919050565b60006020820190508181036000830152613b1081613ad4565b9050919050565b7f536166654d6174683a206164646974696f6e206f766572666c6f770000000000600082015250565b6000613b4d601b836132f8565b9150613b5882613b17565b602082019050919050565b60006020820190508181036000830152613b7c81613b40565b9050919050565b60006020820190508181036000830152613b9d81846138e3565b905092915050565b6000613bb082612aac565b9150613bbb83612aac565b925082821015613bce57613bcd61319c565b5b82820390509291505056fea2646970667358221220606985632e1cdfedcb1bff8891e136b0365b6eb34e28ae7ce32c3b0335aad4fe64736f6c634300080f0033",
  "immutableReferences": {},
  "source": "//SPDX-License-Identifier: Unlicense\r\npragma solidity >=0.7.0 <0.9.0;\r\nimport \"@openzeppelin/contracts/token/ERC721/ERC721.sol\";\r\nimport \"@openzeppelin/contracts/utils/Counters.sol\";\r\n\r\nlibrary SafeMath {\r\n    function add(uint256 a, uint256 b) internal pure returns (uint256) {\r\n        uint256 c = a + b;\r\n        require(c >= a, \"SafeMath: addition overflow\");\r\n\r\n        return c;\r\n    }\r\n\r\n    function sub(uint256 a, uint256 b) internal pure returns (uint256) {\r\n        return sub(a, b, \"SafeMath: subtraction overflow\");\r\n    }\r\n\r\n    function sub(\r\n        uint256 a,\r\n        uint256 b,\r\n        string memory errorMessage\r\n    ) internal pure returns (uint256) {\r\n        require(b <= a, errorMessage);\r\n        uint256 c = a - b;\r\n\r\n        return c;\r\n    }\r\n\r\n    function mul(uint256 a, uint256 b) internal pure returns (uint256) {\r\n        // Gas optimization: this is cheaper than requiring 'a' not being zero, but the\r\n        // benefit is lost if 'b' is also tested.\r\n        if (a == 0) {\r\n            return 0;\r\n        }\r\n\r\n        uint256 c = a * b;\r\n        require(c / a == b, \"SafeMath: multiplication overflow\");\r\n\r\n        return c;\r\n    }\r\n}\r\n\r\ncontract ReentrancyGuard {\r\n    uint256 private constant _NOT_ENTERED = 1;\r\n    uint256 private constant _ENTERED = 2;\r\n\r\n    uint256 private _status;\r\n\r\n    constructor() {\r\n        _status = _NOT_ENTERED;\r\n    }\r\n\r\n    modifier nonReentrant() {\r\n        require(_status != _ENTERED, \"ReentrancyGuard: reentrant call\");\r\n        _status = _ENTERED;\r\n        _;\r\n        _status = _NOT_ENTERED;\r\n    }\r\n}\r\n\r\ncontract NftMarket is ReentrancyGuard {\r\n    using Counters for Counters.Counter;\r\n    Counters.Counter private _ItemsId;\r\n    Counters.Counter private _Itemsold;\r\n    address payable Owner;\r\n    string private constant NULL = \"\";\r\n    uint256 listingPrice = 1 ether;\r\n\r\n    constructor() {\r\n        Owner = payable(msg.sender);\r\n    }\r\n\r\n    struct Transaction_Part {\r\n        string Event;\r\n        address _from;\r\n        address _to;\r\n    }\r\n\r\n    struct MarketItem {\r\n        uint256 itemId;\r\n        address nftContract;\r\n        address payable creater;\r\n        address payable Owner;\r\n        uint256 TokenId;\r\n        uint256 Price;\r\n        bool Sold;\r\n        bool Gifted;\r\n        string Signature;\r\n        Transaction_Part[] Transaction_History;\r\n    }\r\n    mapping(uint256 => MarketItem) private IdtoMarketItem;\r\n\r\n    event MarketCreated(\r\n        address indexed nftContract,\r\n        address indexed Seller,\r\n        address indexed Owner\r\n    );\r\n\r\n    event Sig_Verified(string Faculty_Name, string e_mail, uint256 Token_Id);\r\n\r\n    function getListingPrice() public view returns (uint256) {\r\n        return listingPrice;\r\n    }\r\n\r\n    function CreatMarketItem(\r\n        address nftContract,\r\n        uint256 Price,\r\n        uint256 tokenId\r\n    ) public payable nonReentrant {\r\n        require(msg.value > 0, \"selling price must be greater than ZERO wei\");\r\n        require(\r\n            msg.value == listingPrice,\r\n            \"Price must be equal to listing price\"\r\n        );\r\n        _ItemsId.increment();\r\n        uint256 ItemId = _ItemsId.current();\r\n        MarketItem storage temp = IdtoMarketItem[ItemId];\r\n        temp.itemId = ItemId;\r\n        temp.nftContract = nftContract;\r\n        temp.creater = payable(msg.sender);\r\n        temp.Owner = payable(msg.sender);\r\n        temp.Price = Price;\r\n        temp.TokenId = tokenId;\r\n        temp.Signature = NULL;\r\n        temp.Transaction_History.push(\r\n            Transaction_Part(\"Created\", (msg.sender), msg.sender)\r\n        );\r\n\r\n        // IERC721(nftContract).transferFrom(msg.sender, address(this), tokenId);\r\n        //ERC721 is a standard for representing ownership of non-fungible tokens, that is, where each token is unique. ERC721 is a more complex standard than ERC20, with multiple optional extensions, and is split across a number of contracts.\r\n        emit MarketCreated(nftContract, msg.sender, msg.sender);\r\n    }\r\n\r\n    modifier OnlyOwner(address nftContract, uint256 tokenId) {\r\n        require(\r\n            msg.sender == IERC721(nftContract).ownerOf(tokenId),\r\n            \"Only Owner can signed on NFT's\"\r\n        );\r\n        _;\r\n    }\r\n\r\n    function creatMarketSale(uint256 ItemId) public payable nonReentrant {\r\n        require(\r\n            _ItemsId.current() >= ItemId,\r\n            \"Nothing to buy Nft at this ItemId\"\r\n        );\r\n        MarketItem storage temp = IdtoMarketItem[ItemId];\r\n        uint256 Price = temp.Price;\r\n        uint256 tokenId = temp.TokenId;\r\n        address nftContract = temp.nftContract;\r\n        require(\r\n            msg.value == Price,\r\n            \"please submit the asking price in order to complete the purchase\"\r\n        );\r\n        address From = temp.Owner; /////previous Owner of NFT\r\n\r\n        temp.Owner = payable(msg.sender);\r\n        temp.Sold = true;\r\n        temp.Transaction_History.push(\r\n            Transaction_Part(\"sell/Buy\", payable(From), msg.sender)\r\n        );\r\n        _Itemsold.increment();\r\n        // ownership of nft's transfer from previous_owner to current_owner\r\n        IERC721(nftContract).transferFrom(\r\n            IERC721(nftContract).ownerOf(tokenId),\r\n            msg.sender,\r\n            tokenId\r\n        );\r\n        (bool sent, ) = payable(From).call{value: msg.value}(\"\");\r\n        require(sent, \"Failed to send Ether to previous Owner of  Nft\");\r\n\r\n        //////price estimate for royality\r\n    }\r\n\r\n    function AddSingnature(\r\n        string memory Faculty_Name,\r\n        string memory _Signature,\r\n        uint256 ItemId\r\n    )\r\n        public\r\n        nonReentrant\r\n        OnlyOwner(\r\n            IdtoMarketItem[ItemId].nftContract,\r\n            IdtoMarketItem[ItemId].TokenId\r\n        )\r\n    {\r\n        MarketItem storage temp = IdtoMarketItem[ItemId];\r\n        temp.Signature = _Signature;\r\n        emit Sig_Verified(Faculty_Name, _Signature, ItemId);\r\n    }\r\n\r\n    function GiftNft(address _to, uint256 ItemId) public nonReentrant {\r\n        MarketItem storage temp = IdtoMarketItem[ItemId];\r\n        require(\r\n            bytes(temp.Signature).length != 0,\r\n            \"NFTs is not signatured digitally.\"\r\n        );\r\n        uint256 tokenId = temp.TokenId;\r\n        address nftContract = temp.nftContract;\r\n\r\n        temp.Owner = payable(_to);\r\n        temp.Gifted = true;\r\n        temp.Transaction_History.push(\r\n            Transaction_Part(\"Gifted\", msg.sender, _to)\r\n        );\r\n\r\n        IERC721(nftContract).transferFrom(\r\n            IERC721(nftContract).ownerOf(tokenId),\r\n            msg.sender,\r\n            tokenId\r\n        );\r\n    }\r\n\r\n    function fetchUnsoldMarketItems()\r\n        public\r\n        view\r\n        returns (MarketItem[] memory)\r\n    {\r\n        uint256 ItemCount = _ItemsId.current();\r\n        uint256 UnsoldItemCount = SafeMath.sub(\r\n            _ItemsId.current(),\r\n            _Itemsold.current()\r\n        );\r\n        uint256 CurrentIndex = 0;\r\n        MarketItem[] memory Items = new MarketItem[](UnsoldItemCount);\r\n        for (uint256 i = 0; i < ItemCount; i++) {\r\n            if (!IdtoMarketItem[i + 1].Sold) {\r\n                uint256 currentId = IdtoMarketItem[i + 1].itemId;\r\n                MarketItem storage currentItem = IdtoMarketItem[currentId];\r\n                Items[CurrentIndex] = currentItem;\r\n                CurrentIndex = SafeMath.add(CurrentIndex, 1);\r\n            }\r\n        }\r\n        return Items;\r\n    }\r\n\r\n    function fetchMyNfts() public view returns (MarketItem[] memory) {\r\n        uint256 ItemCount = _ItemsId.current();\r\n        uint256 CurrentIndex = 0;\r\n        MarketItem[] memory Items = new MarketItem[](CurrentIndex);\r\n        for (uint256 i = 0; i < ItemCount; i++) {\r\n            if (IdtoMarketItem[i + 1].Owner == msg.sender) {\r\n                uint256 currentId = IdtoMarketItem[i + 1].itemId;\r\n                MarketItem storage currentItem = IdtoMarketItem[currentId];\r\n                Items[CurrentIndex] = currentItem;\r\n                CurrentIndex = SafeMath.add(CurrentIndex, 1);\r\n            }\r\n        }\r\n        return Items;\r\n    }\r\n\r\n    function fetchItemsCreated() public view returns (MarketItem[] memory) {\r\n        uint256 ItemCount = _ItemsId.current();\r\n        uint256 CurrentIndex = 0;\r\n        MarketItem[] memory Items = new MarketItem[](CurrentIndex);\r\n        for (uint256 i = 0; i < ItemCount; i++) {\r\n            if (IdtoMarketItem[i + 1].creater == msg.sender) {\r\n                uint256 currentId = IdtoMarketItem[i + 1].itemId;\r\n                MarketItem storage currentItem = IdtoMarketItem[currentId];\r\n                Items[CurrentIndex] = currentItem;\r\n                CurrentIndex = SafeMath.add(CurrentIndex, 1);\r\n            }\r\n        }\r\n        return Items;\r\n    }\r\n\r\n    function fetchNftsGift() public view returns (MarketItem[] memory) {\r\n        uint256 ItemCount = _ItemsId.current();\r\n        uint256 CurrentIndex = 0;\r\n        MarketItem[] memory Items = new MarketItem[](CurrentIndex);\r\n        for (uint256 i = 0; i < ItemCount; i++) {\r\n            if (IdtoMarketItem[i + 1].Gifted == true) {\r\n                uint256 currentId = IdtoMarketItem[i + 1].itemId;\r\n                MarketItem storage currentItem = IdtoMarketItem[currentId];\r\n                Items[CurrentIndex] = currentItem;\r\n                CurrentIndex = SafeMath.add(CurrentIndex, 1);\r\n            }\r\n        }\r\n        return Items;\r\n    }\r\n\r\n    function fetchSignNfts() public view returns (MarketItem[] memory) {\r\n        uint256 ItemCount = _ItemsId.current();\r\n        uint256 CurrentIndex = 0;\r\n        MarketItem[] memory Items = new MarketItem[](CurrentIndex);\r\n        for (uint256 i = 0; i < ItemCount; i++) {\r\n            if (bytes(IdtoMarketItem[i + 1].Signature).length != 0) {\r\n                uint256 currentId = IdtoMarketItem[i + 1].itemId;\r\n                MarketItem storage currentItem = IdtoMarketItem[currentId];\r\n                Items[CurrentIndex] = currentItem;\r\n                CurrentIndex = SafeMath.add(CurrentIndex, 1);\r\n            }\r\n        }\r\n        return Items;\r\n    }\r\n}\r\n",
  "sourcePath": "C:\\Users\\Anandkumar\\OneDrive\\Desktop\\solidity\\ERC721\\contracts\\NftMarket.sol",
  "compiler": {
    "name": "solc",
    "version": "0.8.15+commit.e14f2714.Emscripten.clang"
  },
  "schemaVersion": "3.4.8",
  "updatedAt": "2022-09-11T09:17:03.064Z",
  "devdoc": {
    "kind": "dev",
    "methods": {},
    "version": 1
  },
  "userdoc": {
    "kind": "user",
    "methods": {},
    "version": 1
  }
}