{
  "contractName": "NftMarket",
  "abi": [
    {
      "inputs": [],
      "stateMutability": "nonpayable",
      "type": "constructor"
    },
    {
      "anonymous": false,
      "inputs": [
        {
          "indexed": true,
          "internalType": "address",
          "name": "nftContract",
          "type": "address"
        },
        {
          "indexed": true,
          "internalType": "address",
          "name": "Seller",
          "type": "address"
        },
        {
          "indexed": true,
          "internalType": "address",
          "name": "Owner",
          "type": "address"
        }
      ],
      "name": "MarketCreated",
      "type": "event"
    },
    {
      "anonymous": false,
      "inputs": [
        {
          "indexed": false,
          "internalType": "address",
          "name": "account",
          "type": "address"
        }
      ],
      "name": "Paused",
      "type": "event"
    },
    {
      "anonymous": false,
      "inputs": [
        {
          "indexed": false,
          "internalType": "string",
          "name": "Faculty_Name",
          "type": "string"
        },
        {
          "indexed": false,
          "internalType": "string",
          "name": "e_mail",
          "type": "string"
        },
        {
          "indexed": false,
          "internalType": "uint256",
          "name": "Token_Id",
          "type": "uint256"
        }
      ],
      "name": "Sig_Verified",
      "type": "event"
    },
    {
      "anonymous": false,
      "inputs": [
        {
          "indexed": false,
          "internalType": "address",
          "name": "account",
          "type": "address"
        }
      ],
      "name": "Unpaused",
      "type": "event"
    },
    {
      "inputs": [],
      "name": "paused",
      "outputs": [
        {
          "internalType": "bool",
          "name": "",
          "type": "bool"
        }
      ],
      "stateMutability": "view",
      "type": "function"
    },
    {
      "inputs": [],
      "name": "getListingPrice",
      "outputs": [
        {
          "internalType": "uint256",
          "name": "",
          "type": "uint256"
        }
      ],
      "stateMutability": "view",
      "type": "function"
    },
    {
      "inputs": [
        {
          "internalType": "address",
          "name": "nftContract",
          "type": "address"
        },
        {
          "internalType": "uint256",
          "name": "Price",
          "type": "uint256"
        },
        {
          "internalType": "uint256",
          "name": "tokenId",
          "type": "uint256"
        }
      ],
      "name": "CreatMarketItem",
      "outputs": [],
      "stateMutability": "payable",
      "type": "function"
    },
    {
      "inputs": [
        {
          "internalType": "uint256",
          "name": "ItemId",
          "type": "uint256"
        }
      ],
      "name": "creatMarketSale",
      "outputs": [],
      "stateMutability": "payable",
      "type": "function"
    },
    {
      "inputs": [
        {
          "internalType": "string",
          "name": "Faculty_Name",
          "type": "string"
        },
        {
          "internalType": "string",
          "name": "_Signature",
          "type": "string"
        },
        {
          "internalType": "uint256",
          "name": "ItemId",
          "type": "uint256"
        }
      ],
      "name": "AddSingnature",
      "outputs": [],
      "stateMutability": "nonpayable",
      "type": "function"
    },
    {
      "inputs": [
        {
          "internalType": "address",
          "name": "_to",
          "type": "address"
        },
        {
          "internalType": "uint256",
          "name": "ItemId",
          "type": "uint256"
        }
      ],
      "name": "GiftNft",
      "outputs": [],
      "stateMutability": "nonpayable",
      "type": "function"
    },
    {
      "inputs": [],
      "name": "Pause",
      "outputs": [],
      "stateMutability": "nonpayable",
      "type": "function"
    },
    {
      "inputs": [],
      "name": "Unpause",
      "outputs": [],
      "stateMutability": "nonpayable",
      "type": "function"
    },
    {
      "inputs": [],
      "name": "fetchUnsoldMarketItems",
      "outputs": [
        {
          "components": [
            {
              "internalType": "uint256",
              "name": "itemId",
              "type": "uint256"
            },
            {
              "internalType": "address",
              "name": "nftContract",
              "type": "address"
            },
            {
              "internalType": "address payable",
              "name": "creater",
              "type": "address"
            },
            {
              "internalType": "address payable",
              "name": "Owner",
              "type": "address"
            },
            {
              "internalType": "uint256",
              "name": "TokenId",
              "type": "uint256"
            },
            {
              "internalType": "uint256",
              "name": "Price",
              "type": "uint256"
            },
            {
              "internalType": "bool",
              "name": "Sold",
              "type": "bool"
            },
            {
              "internalType": "bool",
              "name": "Gifted",
              "type": "bool"
            },
            {
              "internalType": "string",
              "name": "Signature",
              "type": "string"
            },
            {
              "components": [
                {
                  "internalType": "string",
                  "name": "Event",
                  "type": "string"
                },
                {
                  "internalType": "address",
                  "name": "_from",
                  "type": "address"
                },
                {
                  "internalType": "address",
                  "name": "_to",
                  "type": "address"
                }
              ],
              "internalType": "struct NftMarket.Transaction_Part[]",
              "name": "Transaction_History",
              "type": "tuple[]"
            }
          ],
          "internalType": "struct NftMarket.MarketItem[]",
          "name": "",
          "type": "tuple[]"
        }
      ],
      "stateMutability": "view",
      "type": "function"
    },
    {
      "inputs": [],
      "name": "fetchMyNfts",
      "outputs": [
        {
          "components": [
            {
              "internalType": "uint256",
              "name": "itemId",
              "type": "uint256"
            },
            {
              "internalType": "address",
              "name": "nftContract",
              "type": "address"
            },
            {
              "internalType": "address payable",
              "name": "creater",
              "type": "address"
            },
            {
              "internalType": "address payable",
              "name": "Owner",
              "type": "address"
            },
            {
              "internalType": "uint256",
              "name": "TokenId",
              "type": "uint256"
            },
            {
              "internalType": "uint256",
              "name": "Price",
              "type": "uint256"
            },
            {
              "internalType": "bool",
              "name": "Sold",
              "type": "bool"
            },
            {
              "internalType": "bool",
              "name": "Gifted",
              "type": "bool"
            },
            {
              "internalType": "string",
              "name": "Signature",
              "type": "string"
            },
            {
              "components": [
                {
                  "internalType": "string",
                  "name": "Event",
                  "type": "string"
                },
                {
                  "internalType": "address",
                  "name": "_from",
                  "type": "address"
                },
                {
                  "internalType": "address",
                  "name": "_to",
                  "type": "address"
                }
              ],
              "internalType": "struct NftMarket.Transaction_Part[]",
              "name": "Transaction_History",
              "type": "tuple[]"
            }
          ],
          "internalType": "struct NftMarket.MarketItem[]",
          "name": "",
          "type": "tuple[]"
        }
      ],
      "stateMutability": "view",
      "type": "function"
    },
    {
      "inputs": [],
      "name": "fetchItemsCreated",
      "outputs": [
        {
          "components": [
            {
              "internalType": "uint256",
              "name": "itemId",
              "type": "uint256"
            },
            {
              "internalType": "address",
              "name": "nftContract",
              "type": "address"
            },
            {
              "internalType": "address payable",
              "name": "creater",
              "type": "address"
            },
            {
              "internalType": "address payable",
              "name": "Owner",
              "type": "address"
            },
            {
              "internalType": "uint256",
              "name": "TokenId",
              "type": "uint256"
            },
            {
              "internalType": "uint256",
              "name": "Price",
              "type": "uint256"
            },
            {
              "internalType": "bool",
              "name": "Sold",
              "type": "bool"
            },
            {
              "internalType": "bool",
              "name": "Gifted",
              "type": "bool"
            },
            {
              "internalType": "string",
              "name": "Signature",
              "type": "string"
            },
            {
              "components": [
                {
                  "internalType": "string",
                  "name": "Event",
                  "type": "string"
                },
                {
                  "internalType": "address",
                  "name": "_from",
                  "type": "address"
                },
                {
                  "internalType": "address",
                  "name": "_to",
                  "type": "address"
                }
              ],
              "internalType": "struct NftMarket.Transaction_Part[]",
              "name": "Transaction_History",
              "type": "tuple[]"
            }
          ],
          "internalType": "struct NftMarket.MarketItem[]",
          "name": "",
          "type": "tuple[]"
        }
      ],
      "stateMutability": "view",
      "type": "function"
    },
    {
      "inputs": [],
      "name": "fetchNftsGift",
      "outputs": [
        {
          "components": [
            {
              "internalType": "uint256",
              "name": "itemId",
              "type": "uint256"
            },
            {
              "internalType": "address",
              "name": "nftContract",
              "type": "address"
            },
            {
              "internalType": "address payable",
              "name": "creater",
              "type": "address"
            },
            {
              "internalType": "address payable",
              "name": "Owner",
              "type": "address"
            },
            {
              "internalType": "uint256",
              "name": "TokenId",
              "type": "uint256"
            },
            {
              "internalType": "uint256",
              "name": "Price",
              "type": "uint256"
            },
            {
              "internalType": "bool",
              "name": "Sold",
              "type": "bool"
            },
            {
              "internalType": "bool",
              "name": "Gifted",
              "type": "bool"
            },
            {
              "internalType": "string",
              "name": "Signature",
              "type": "string"
            },
            {
              "components": [
                {
                  "internalType": "string",
                  "name": "Event",
                  "type": "string"
                },
                {
                  "internalType": "address",
                  "name": "_from",
                  "type": "address"
                },
                {
                  "internalType": "address",
                  "name": "_to",
                  "type": "address"
                }
              ],
              "internalType": "struct NftMarket.Transaction_Part[]",
              "name": "Transaction_History",
              "type": "tuple[]"
            }
          ],
          "internalType": "struct NftMarket.MarketItem[]",
          "name": "",
          "type": "tuple[]"
        }
      ],
      "stateMutability": "view",
      "type": "function"
    },
    {
      "inputs": [],
      "name": "fetchSignNfts",
      "outputs": [
        {
          "components": [
            {
              "internalType": "uint256",
              "name": "itemId",
              "type": "uint256"
            },
            {
              "internalType": "address",
              "name": "nftContract",
              "type": "address"
            },
            {
              "internalType": "address payable",
              "name": "creater",
              "type": "address"
            },
            {
              "internalType": "address payable",
              "name": "Owner",
              "type": "address"
            },
            {
              "internalType": "uint256",
              "name": "TokenId",
              "type": "uint256"
            },
            {
              "internalType": "uint256",
              "name": "Price",
              "type": "uint256"
            },
            {
              "internalType": "bool",
              "name": "Sold",
              "type": "bool"
            },
            {
              "internalType": "bool",
              "name": "Gifted",
              "type": "bool"
            },
            {
              "internalType": "string",
              "name": "Signature",
              "type": "string"
            },
            {
              "components": [
                {
                  "internalType": "string",
                  "name": "Event",
                  "type": "string"
                },
                {
                  "internalType": "address",
                  "name": "_from",
                  "type": "address"
                },
                {
                  "internalType": "address",
                  "name": "_to",
                  "type": "address"
                }
              ],
              "internalType": "struct NftMarket.Transaction_Part[]",
              "name": "Transaction_History",
              "type": "tuple[]"
            }
          ],
          "internalType": "struct NftMarket.MarketItem[]",
          "name": "",
          "type": "tuple[]"
        }
      ],
      "stateMutability": "view",
      "type": "function"
    }
  ],
  "bytecode": "0x60a0604052670de0b6b3a764000060045534801561001c57600080fd5b5060016000819055506000600160006101000a81548160ff0219169083151502179055503373ffffffffffffffffffffffffffffffffffffffff1660808173ffffffffffffffffffffffffffffffffffffffff16815250506080516141076100966000396000818161115901526118cb01526141076000f3fe6080604052600436106100c25760003560e01c806372b5a1ce1161007f57806384ddf88c1161005957806384ddf88c146102115780638be8dda41461023a578063cfab503814610256578063f064c32e14610281576100c2565b806372b5a1ce146101a65780637628ff55146101cf5780637805862f146101fa576100c2565b8063128ae712146100c757806312e85585146100f2578063189c5e8b1461011d5780634f5465d9146101485780635c975abb146101645780636985a0221461018f575b600080fd5b3480156100d357600080fd5b506100dc6102ac565b6040516100e991906131ad565b60405180910390f35b3480156100fe57600080fd5b506101076107b0565b60405161011491906131de565b60405180910390f35b34801561012957600080fd5b506101326107ba565b60405161013f91906131ad565b60405180910390f35b610162600480360381019061015d9190613239565b610c84565b005b34801561017057600080fd5b50610179611140565b6040516101869190613275565b60405180910390f35b34801561019b57600080fd5b506101a4611157565b005b3480156101b257600080fd5b506101cd60048036038101906101c891906133c5565b6111ef565b005b3480156101db57600080fd5b506101e46113e5565b6040516101f191906131ad565b60405180910390f35b34801561020657600080fd5b5061020f6118c9565b005b34801561021d57600080fd5b506102386004803603810190610233919061347c565b611961565b005b610254600480360381019061024f91906134bc565b611cf8565b005b34801561026257600080fd5b5061026b6120d7565b60405161027891906131ad565b60405180910390f35b34801561028d57600080fd5b5061029661259c565b6040516102a391906131ad565b60405180910390f35b606060006102ba6002612aa0565b90506000808167ffffffffffffffff8111156102d9576102d861329a565b5b60405190808252806020026020018201604052801561031257816020015b6102ff612d30565b8152602001906001900390816102f75790505b50905060005b838110156107a6573373ffffffffffffffffffffffffffffffffffffffff1660056000600184610348919061353e565b815260200190815260200160002060030160009054906101000a900473ffffffffffffffffffffffffffffffffffffffff1673ffffffffffffffffffffffffffffffffffffffff1603610793576000600560006001846103a8919061353e565b815260200190815260200160002060000154905060006005600083815260200190815260200160002090508060405180610140016040529081600082015481526020016001820160009054906101000a900473ffffffffffffffffffffffffffffffffffffffff1673ffffffffffffffffffffffffffffffffffffffff1673ffffffffffffffffffffffffffffffffffffffff1681526020016002820160009054906101000a900473ffffffffffffffffffffffffffffffffffffffff1673ffffffffffffffffffffffffffffffffffffffff1673ffffffffffffffffffffffffffffffffffffffff1681526020016003820160009054906101000a900473ffffffffffffffffffffffffffffffffffffffff1673ffffffffffffffffffffffffffffffffffffffff1673ffffffffffffffffffffffffffffffffffffffff16815260200160048201548152602001600582015481526020016006820160009054906101000a900460ff161515151581526020016006820160019054906101000a900460ff16151515158152602001600782018054610546906135c3565b80601f0160208091040260200160405190810160405280929190818152602001828054610572906135c3565b80156105bf5780601f10610594576101008083540402835291602001916105bf565b820191906000526020600020905b8154815290600101906020018083116105a257829003601f168201915b5050505050815260200160088201805480602002602001604051908101604052809291908181526020016000905b8282101561075d5783829060005260206000209060030201604051806060016040529081600082018054610620906135c3565b80601f016020809104026020016040519081016040528092919081815260200182805461064c906135c3565b80156106995780601f1061066e57610100808354040283529160200191610699565b820191906000526020600020905b81548152906001019060200180831161067c57829003601f168201915b505050505081526020016001820160009054906101000a900473ffffffffffffffffffffffffffffffffffffffff1673ffffffffffffffffffffffffffffffffffffffff1673ffffffffffffffffffffffffffffffffffffffff1681526020016002820160009054906101000a900473ffffffffffffffffffffffffffffffffffffffff1673ffffffffffffffffffffffffffffffffffffffff1673ffffffffffffffffffffffffffffffffffffffff1681525050815260200190600101906105ed565b5050505081525050848681518110610778576107776135f4565b5b602002602001018190525061078e856001612aae565b945050505b808061079e90613623565b915050610318565b5080935050505090565b6000600454905090565b606060006107c86002612aa0565b90506000808167ffffffffffffffff8111156107e7576107e661329a565b5b60405190808252806020026020018201604052801561082057816020015b61080d612d30565b8152602001906001900390816108055790505b50905060005b83811015610c7a576001151560056000600184610843919061353e565b815260200190815260200160002060060160019054906101000a900460ff16151503610c675760006005600060018461087c919061353e565b815260200190815260200160002060000154905060006005600083815260200190815260200160002090508060405180610140016040529081600082015481526020016001820160009054906101000a900473ffffffffffffffffffffffffffffffffffffffff1673ffffffffffffffffffffffffffffffffffffffff1673ffffffffffffffffffffffffffffffffffffffff1681526020016002820160009054906101000a900473ffffffffffffffffffffffffffffffffffffffff1673ffffffffffffffffffffffffffffffffffffffff1673ffffffffffffffffffffffffffffffffffffffff1681526020016003820160009054906101000a900473ffffffffffffffffffffffffffffffffffffffff1673ffffffffffffffffffffffffffffffffffffffff1673ffffffffffffffffffffffffffffffffffffffff16815260200160048201548152602001600582015481526020016006820160009054906101000a900460ff161515151581526020016006820160019054906101000a900460ff16151515158152602001600782018054610a1a906135c3565b80601f0160208091040260200160405190810160405280929190818152602001828054610a46906135c3565b8015610a935780601f10610a6857610100808354040283529160200191610a93565b820191906000526020600020905b815481529060010190602001808311610a7657829003601f168201915b5050505050815260200160088201805480602002602001604051908101604052809291908181526020016000905b82821015610c315783829060005260206000209060030201604051806060016040529081600082018054610af4906135c3565b80601f0160208091040260200160405190810160405280929190818152602001828054610b20906135c3565b8015610b6d5780601f10610b4257610100808354040283529160200191610b6d565b820191906000526020600020905b815481529060010190602001808311610b5057829003601f168201915b505050505081526020016001820160009054906101000a900473ffffffffffffffffffffffffffffffffffffffff1673ffffffffffffffffffffffffffffffffffffffff1673ffffffffffffffffffffffffffffffffffffffff1681526020016002820160009054906101000a900473ffffffffffffffffffffffffffffffffffffffff1673ffffffffffffffffffffffffffffffffffffffff1673ffffffffffffffffffffffffffffffffffffffff168152505081526020019060010190610ac1565b5050505081525050848681518110610c4c57610c4b6135f4565b5b6020026020010181905250610c62856001612aae565b945050505b8080610c7290613623565b915050610826565b5080935050505090565b600260005403610cc9576040517f08c379a0000000000000000000000000000000000000000000000000000000008152600401610cc0906136c8565b60405180910390fd5b6002600081905550610cd9612b0c565b80610ce46002612aa0565b1015610d25576040517f08c379a0000000000000000000000000000000000000000000000000000000008152600401610d1c9061375a565b60405180910390fd5b600060056000838152602001908152602001600020905060008160050154905060008260040154905060008360010160009054906101000a900473ffffffffffffffffffffffffffffffffffffffff169050823414610db9576040517f08c379a0000000000000000000000000000000000000000000000000000000008152600401610db0906137ec565b60405180910390fd5b60008460030160009054906101000a900473ffffffffffffffffffffffffffffffffffffffff169050338560030160006101000a81548173ffffffffffffffffffffffffffffffffffffffff021916908373ffffffffffffffffffffffffffffffffffffffff16021790555060018560060160006101000a81548160ff0219169083151502179055508460080160405180606001604052806040518060400160405280600881526020017f73656c6c2f42757900000000000000000000000000000000000000000000000081525081526020018373ffffffffffffffffffffffffffffffffffffffff1681526020013373ffffffffffffffffffffffffffffffffffffffff1681525090806001815401808255809150506001900390600052602060002090600302016000909190919091506000820151816000019081610f0091906139b8565b5060208201518160010160006101000a81548173ffffffffffffffffffffffffffffffffffffffff021916908373ffffffffffffffffffffffffffffffffffffffff16021790555060408201518160020160006101000a81548173ffffffffffffffffffffffffffffffffffffffff021916908373ffffffffffffffffffffffffffffffffffffffff1602179055505050610f9b6003612b56565b8173ffffffffffffffffffffffffffffffffffffffff166323b872dd8373ffffffffffffffffffffffffffffffffffffffff16636352211e866040518263ffffffff1660e01b8152600401610ff091906131de565b602060405180830381865afa15801561100d573d6000803e3d6000fd5b505050506040513d601f19601f820116820180604052508101906110319190613a9f565b33866040518463ffffffff1660e01b815260040161105193929190613adb565b600060405180830381600087803b15801561106b57600080fd5b505af115801561107f573d6000803e3d6000fd5b5050505060008173ffffffffffffffffffffffffffffffffffffffff16346040516110a990613b43565b60006040518083038185875af1925050503d80600081146110e6576040519150601f19603f3d011682016040523d82523d6000602084013e6110eb565b606091505b505090508061112f576040517f08c379a000000000000000000000000000000000000000000000000000000000815260040161112690613bca565b60405180910390fd5b505050505050600160008190555050565b6000600160009054906101000a900460ff16905090565b7f000000000000000000000000000000000000000000000000000000000000000073ffffffffffffffffffffffffffffffffffffffff163373ffffffffffffffffffffffffffffffffffffffff16146111e5576040517f08c379a00000000000000000000000000000000000000000000000000000000081526004016111dc90613c5c565b60405180910390fd5b6111ed612b6c565b565b600260005403611234576040517f08c379a000000000000000000000000000000000000000000000000000000000815260040161122b906136c8565b60405180910390fd5b60026000819055506005600082815260200190815260200160002060010160009054906101000a900473ffffffffffffffffffffffffffffffffffffffff1660056000838152602001908152602001600020600401548173ffffffffffffffffffffffffffffffffffffffff16636352211e826040518263ffffffff1660e01b81526004016112c391906131de565b602060405180830381865afa1580156112e0573d6000803e3d6000fd5b505050506040513d601f19601f820116820180604052508101906113049190613a9f565b73ffffffffffffffffffffffffffffffffffffffff163373ffffffffffffffffffffffffffffffffffffffff1614611371576040517f08c379a000000000000000000000000000000000000000000000000000000000815260040161136890613cc8565b60405180910390fd5b60006005600085815260200190815260200160002090508481600701908161139991906139b8565b507f1a0923a4d84ecf9a541f86d8590689ead46730c692317a27addb8fa94685957e8686866040516113cd93929190613d21565b60405180910390a15050506001600081905550505050565b606060006113f36002612aa0565b905060006114136114046002612aa0565b61140e6003612aa0565b612bce565b90506000808267ffffffffffffffff8111156114325761143161329a565b5b60405190808252806020026020018201604052801561146b57816020015b611458612d30565b8152602001906001900390816114505790505b50905060005b848110156118be576005600060018361148a919061353e565b815260200190815260200160002060060160009054906101000a900460ff166118ab576000600560006001846114c0919061353e565b815260200190815260200160002060000154905060006005600083815260200190815260200160002090508060405180610140016040529081600082015481526020016001820160009054906101000a900473ffffffffffffffffffffffffffffffffffffffff1673ffffffffffffffffffffffffffffffffffffffff1673ffffffffffffffffffffffffffffffffffffffff1681526020016002820160009054906101000a900473ffffffffffffffffffffffffffffffffffffffff1673ffffffffffffffffffffffffffffffffffffffff1673ffffffffffffffffffffffffffffffffffffffff1681526020016003820160009054906101000a900473ffffffffffffffffffffffffffffffffffffffff1673ffffffffffffffffffffffffffffffffffffffff1673ffffffffffffffffffffffffffffffffffffffff16815260200160048201548152602001600582015481526020016006820160009054906101000a900460ff161515151581526020016006820160019054906101000a900460ff1615151515815260200160078201805461165e906135c3565b80601f016020809104026020016040519081016040528092919081815260200182805461168a906135c3565b80156116d75780601f106116ac576101008083540402835291602001916116d7565b820191906000526020600020905b8154815290600101906020018083116116ba57829003601f168201915b5050505050815260200160088201805480602002602001604051908101604052809291908181526020016000905b828210156118755783829060005260206000209060030201604051806060016040529081600082018054611738906135c3565b80601f0160208091040260200160405190810160405280929190818152602001828054611764906135c3565b80156117b15780601f10611786576101008083540402835291602001916117b1565b820191906000526020600020905b81548152906001019060200180831161179457829003601f168201915b505050505081526020016001820160009054906101000a900473ffffffffffffffffffffffffffffffffffffffff1673ffffffffffffffffffffffffffffffffffffffff1673ffffffffffffffffffffffffffffffffffffffff1681526020016002820160009054906101000a900473ffffffffffffffffffffffffffffffffffffffff1673ffffffffffffffffffffffffffffffffffffffff1673ffffffffffffffffffffffffffffffffffffffff168152505081526020019060010190611705565b50505050815250508486815181106118905761188f6135f4565b5b60200260200101819052506118a6856001612aae565b945050505b80806118b690613623565b915050611471565b508094505050505090565b7f000000000000000000000000000000000000000000000000000000000000000073ffffffffffffffffffffffffffffffffffffffff163373ffffffffffffffffffffffffffffffffffffffff1614611957576040517f08c379a000000000000000000000000000000000000000000000000000000000815260040161194e90613c5c565b60405180910390fd5b61195f612c18565b565b6002600054036119a6576040517f08c379a000000000000000000000000000000000000000000000000000000000815260040161199d906136c8565b60405180910390fd5b60026000819055506119b6612b0c565b600060056000838152602001908152602001600020905060008160070180546119de906135c3565b905003611a20576040517f08c379a0000000000000000000000000000000000000000000000000000000008152600401611a1790613dd8565b60405180910390fd5b60008160040154905060008260010160009054906101000a900473ffffffffffffffffffffffffffffffffffffffff169050848360030160006101000a81548173ffffffffffffffffffffffffffffffffffffffff021916908373ffffffffffffffffffffffffffffffffffffffff16021790555060018360060160016101000a81548160ff0219169083151502179055508260080160405180606001604052806040518060400160405280600681526020017f476966746564000000000000000000000000000000000000000000000000000081525081526020013373ffffffffffffffffffffffffffffffffffffffff1681526020018773ffffffffffffffffffffffffffffffffffffffff1681525090806001815401808255809150506001900390600052602060002090600302016000909190919091506000820151816000019081611b7091906139b8565b5060208201518160010160006101000a81548173ffffffffffffffffffffffffffffffffffffffff021916908373ffffffffffffffffffffffffffffffffffffffff16021790555060408201518160020160006101000a81548173ffffffffffffffffffffffffffffffffffffffff021916908373ffffffffffffffffffffffffffffffffffffffff16021790555050508073ffffffffffffffffffffffffffffffffffffffff166323b872dd8273ffffffffffffffffffffffffffffffffffffffff16636352211e856040518263ffffffff1660e01b8152600401611c5691906131de565b602060405180830381865afa158015611c73573d6000803e3d6000fd5b505050506040513d601f19601f82011682018060405250810190611c979190613a9f565b33856040518463ffffffff1660e01b8152600401611cb793929190613adb565b600060405180830381600087803b158015611cd157600080fd5b505af1158015611ce5573d6000803e3d6000fd5b5050505050505060016000819055505050565b600260005403611d3d576040517f08c379a0000000000000000000000000000000000000000000000000000000008152600401611d34906136c8565b60405180910390fd5b6002600081905550611d4d612b0c565b60003411611d90576040517f08c379a0000000000000000000000000000000000000000000000000000000008152600401611d8790613e6a565b60405180910390fd5b6004543414611dd4576040517f08c379a0000000000000000000000000000000000000000000000000000000008152600401611dcb90613efc565b60405180910390fd5b611dde6002612b56565b6000611dea6002612aa0565b90506000600560008381526020019081526020016000209050818160000181905550848160010160006101000a81548173ffffffffffffffffffffffffffffffffffffffff021916908373ffffffffffffffffffffffffffffffffffffffff160217905550338160020160006101000a81548173ffffffffffffffffffffffffffffffffffffffff021916908373ffffffffffffffffffffffffffffffffffffffff160217905550338160030160006101000a81548173ffffffffffffffffffffffffffffffffffffffff021916908373ffffffffffffffffffffffffffffffffffffffff16021790555083816005018190555082816004018190555060405180602001604052806000815250816007019081611f0791906139b8565b508060080160405180606001604052806040518060400160405280600781526020017f437265617465640000000000000000000000000000000000000000000000000081525081526020013373ffffffffffffffffffffffffffffffffffffffff1681526020013373ffffffffffffffffffffffffffffffffffffffff1681525090806001815401808255809150506001900390600052602060002090600302016000909190919091506000820151816000019081611fc691906139b8565b5060208201518160010160006101000a81548173ffffffffffffffffffffffffffffffffffffffff021916908373ffffffffffffffffffffffffffffffffffffffff16021790555060408201518160020160006101000a81548173ffffffffffffffffffffffffffffffffffffffff021916908373ffffffffffffffffffffffffffffffffffffffff16021790555050503373ffffffffffffffffffffffffffffffffffffffff163373ffffffffffffffffffffffffffffffffffffffff168673ffffffffffffffffffffffffffffffffffffffff167fe63e6130091e2155004c4b5ac35e8fb9be704d6637ff3068a8f710ba36c9f41a60405160405180910390a450506001600081905550505050565b606060006120e56002612aa0565b90506000808167ffffffffffffffff8111156121045761210361329a565b5b60405190808252806020026020018201604052801561213d57816020015b61212a612d30565b8152602001906001900390816121225790505b50905060005b838110156125925760006005600060018461215e919061353e565b8152602001908152602001600020600701805461217a906135c3565b90501461257f57600060056000600184612194919061353e565b815260200190815260200160002060000154905060006005600083815260200190815260200160002090508060405180610140016040529081600082015481526020016001820160009054906101000a900473ffffffffffffffffffffffffffffffffffffffff1673ffffffffffffffffffffffffffffffffffffffff1673ffffffffffffffffffffffffffffffffffffffff1681526020016002820160009054906101000a900473ffffffffffffffffffffffffffffffffffffffff1673ffffffffffffffffffffffffffffffffffffffff1673ffffffffffffffffffffffffffffffffffffffff1681526020016003820160009054906101000a900473ffffffffffffffffffffffffffffffffffffffff1673ffffffffffffffffffffffffffffffffffffffff1673ffffffffffffffffffffffffffffffffffffffff16815260200160048201548152602001600582015481526020016006820160009054906101000a900460ff161515151581526020016006820160019054906101000a900460ff16151515158152602001600782018054612332906135c3565b80601f016020809104026020016040519081016040528092919081815260200182805461235e906135c3565b80156123ab5780601f10612380576101008083540402835291602001916123ab565b820191906000526020600020905b81548152906001019060200180831161238e57829003601f168201915b5050505050815260200160088201805480602002602001604051908101604052809291908181526020016000905b82821015612549578382906000526020600020906003020160405180606001604052908160008201805461240c906135c3565b80601f0160208091040260200160405190810160405280929190818152602001828054612438906135c3565b80156124855780601f1061245a57610100808354040283529160200191612485565b820191906000526020600020905b81548152906001019060200180831161246857829003601f168201915b505050505081526020016001820160009054906101000a900473ffffffffffffffffffffffffffffffffffffffff1673ffffffffffffffffffffffffffffffffffffffff1673ffffffffffffffffffffffffffffffffffffffff1681526020016002820160009054906101000a900473ffffffffffffffffffffffffffffffffffffffff1673ffffffffffffffffffffffffffffffffffffffff1673ffffffffffffffffffffffffffffffffffffffff1681525050815260200190600101906123d9565b5050505081525050848681518110612564576125636135f4565b5b602002602001018190525061257a856001612aae565b945050505b808061258a90613623565b915050612143565b5080935050505090565b606060006125aa6002612aa0565b90506000808167ffffffffffffffff8111156125c9576125c861329a565b5b60405190808252806020026020018201604052801561260257816020015b6125ef612d30565b8152602001906001900390816125e75790505b50905060005b83811015612a96573373ffffffffffffffffffffffffffffffffffffffff1660056000600184612638919061353e565b815260200190815260200160002060020160009054906101000a900473ffffffffffffffffffffffffffffffffffffffff1673ffffffffffffffffffffffffffffffffffffffff1603612a8357600060056000600184612698919061353e565b815260200190815260200160002060000154905060006005600083815260200190815260200160002090508060405180610140016040529081600082015481526020016001820160009054906101000a900473ffffffffffffffffffffffffffffffffffffffff1673ffffffffffffffffffffffffffffffffffffffff1673ffffffffffffffffffffffffffffffffffffffff1681526020016002820160009054906101000a900473ffffffffffffffffffffffffffffffffffffffff1673ffffffffffffffffffffffffffffffffffffffff1673ffffffffffffffffffffffffffffffffffffffff1681526020016003820160009054906101000a900473ffffffffffffffffffffffffffffffffffffffff1673ffffffffffffffffffffffffffffffffffffffff1673ffffffffffffffffffffffffffffffffffffffff16815260200160048201548152602001600582015481526020016006820160009054906101000a900460ff161515151581526020016006820160019054906101000a900460ff16151515158152602001600782018054612836906135c3565b80601f0160208091040260200160405190810160405280929190818152602001828054612862906135c3565b80156128af5780601f10612884576101008083540402835291602001916128af565b820191906000526020600020905b81548152906001019060200180831161289257829003601f168201915b5050505050815260200160088201805480602002602001604051908101604052809291908181526020016000905b82821015612a4d5783829060005260206000209060030201604051806060016040529081600082018054612910906135c3565b80601f016020809104026020016040519081016040528092919081815260200182805461293c906135c3565b80156129895780601f1061295e57610100808354040283529160200191612989565b820191906000526020600020905b81548152906001019060200180831161296c57829003601f168201915b505050505081526020016001820160009054906101000a900473ffffffffffffffffffffffffffffffffffffffff1673ffffffffffffffffffffffffffffffffffffffff1673ffffffffffffffffffffffffffffffffffffffff1681526020016002820160009054906101000a900473ffffffffffffffffffffffffffffffffffffffff1673ffffffffffffffffffffffffffffffffffffffff1673ffffffffffffffffffffffffffffffffffffffff1681525050815260200190600101906128dd565b5050505081525050848681518110612a6857612a676135f4565b5b6020026020010181905250612a7e856001612aae565b945050505b8080612a8e90613623565b915050612608565b5080935050505090565b600081600001549050919050565b6000808284612abd919061353e565b905083811015612b02576040517f08c379a0000000000000000000000000000000000000000000000000000000008152600401612af990613f68565b60405180910390fd5b8091505092915050565b612b14611140565b15612b54576040517f08c379a0000000000000000000000000000000000000000000000000000000008152600401612b4b90613fd4565b60405180910390fd5b565b6001816000016000828254019250508190555050565b612b74612b0c565b60018060006101000a81548160ff0219169083151502179055507f62e78cea01bee320cd4e420270b5ea74000d11b0c9f74754ebdbfc544b05a258612bb7612c7b565b604051612bc49190613ff4565b60405180910390a1565b6000612c1083836040518060400160405280601e81526020017f536166654d6174683a207375627472616374696f6e206f766572666c6f770000815250612c83565b905092915050565b612c20612ce7565b6000600160006101000a81548160ff0219169083151502179055507f5db9ee0a495bf2e6ff9c91a7834c1ba4fdd244a5e8aa4e537bd38aeae4b073aa612c64612c7b565b604051612c719190613ff4565b60405180910390a1565b600033905090565b6000838311158290612ccb576040517f08c379a0000000000000000000000000000000000000000000000000000000008152600401612cc2919061400f565b60405180910390fd5b5060008385612cda9190614031565b9050809150509392505050565b612cef611140565b612d2e576040517f08c379a0000000000000000000000000000000000000000000000000000000008152600401612d25906140b1565b60405180910390fd5b565b60405180610140016040528060008152602001600073ffffffffffffffffffffffffffffffffffffffff168152602001600073ffffffffffffffffffffffffffffffffffffffff168152602001600073ffffffffffffffffffffffffffffffffffffffff168152602001600081526020016000815260200160001515815260200160001515815260200160608152602001606081525090565b600081519050919050565b600082825260208201905092915050565b6000819050602082019050919050565b6000819050919050565b612e0881612df5565b82525050565b600073ffffffffffffffffffffffffffffffffffffffff82169050919050565b6000612e3982612e0e565b9050919050565b612e4981612e2e565b82525050565b6000612e5a82612e0e565b9050919050565b612e6a81612e4f565b82525050565b60008115159050919050565b612e8581612e70565b82525050565b600081519050919050565b600082825260208201905092915050565b60005b83811015612ec5578082015181840152602081019050612eaa565b83811115612ed4576000848401525b50505050565b6000601f19601f8301169050919050565b6000612ef682612e8b565b612f008185612e96565b9350612f10818560208601612ea7565b612f1981612eda565b840191505092915050565b600081519050919050565b600082825260208201905092915050565b6000819050602082019050919050565b60006060830160008301518482036000860152612f6d8282612eeb565b9150506020830151612f826020860182612e40565b506040830151612f956040860182612e40565b508091505092915050565b6000612fac8383612f50565b905092915050565b6000602082019050919050565b6000612fcc82612f24565b612fd68185612f2f565b935083602082028501612fe885612f40565b8060005b8581101561302457848403895281516130058582612fa0565b945061301083612fb4565b925060208a01995050600181019050612fec565b50829750879550505050505092915050565b60006101408301600083015161304f6000860182612dff565b5060208301516130626020860182612e40565b5060408301516130756040860182612e61565b5060608301516130886060860182612e61565b50608083015161309b6080860182612dff565b5060a08301516130ae60a0860182612dff565b5060c08301516130c160c0860182612e7c565b5060e08301516130d460e0860182612e7c565b506101008301518482036101008601526130ee8282612eeb565b91505061012083015184820361012086015261310a8282612fc1565b9150508091505092915050565b60006131238383613036565b905092915050565b6000602082019050919050565b600061314382612dc9565b61314d8185612dd4565b93508360208202850161315f85612de5565b8060005b8581101561319b578484038952815161317c8582613117565b94506131878361312b565b925060208a01995050600181019050613163565b50829750879550505050505092915050565b600060208201905081810360008301526131c78184613138565b905092915050565b6131d881612df5565b82525050565b60006020820190506131f360008301846131cf565b92915050565b6000604051905090565b600080fd5b600080fd5b61321681612df5565b811461322157600080fd5b50565b6000813590506132338161320d565b92915050565b60006020828403121561324f5761324e613203565b5b600061325d84828501613224565b91505092915050565b61326f81612e70565b82525050565b600060208201905061328a6000830184613266565b92915050565b600080fd5b600080fd5b7f4e487b7100000000000000000000000000000000000000000000000000000000600052604160045260246000fd5b6132d282612eda565b810181811067ffffffffffffffff821117156132f1576132f061329a565b5b80604052505050565b60006133046131f9565b905061331082826132c9565b919050565b600067ffffffffffffffff8211156133305761332f61329a565b5b61333982612eda565b9050602081019050919050565b82818337600083830152505050565b600061336861336384613315565b6132fa565b90508281526020810184848401111561338457613383613295565b5b61338f848285613346565b509392505050565b600082601f8301126133ac576133ab613290565b5b81356133bc848260208601613355565b91505092915050565b6000806000606084860312156133de576133dd613203565b5b600084013567ffffffffffffffff8111156133fc576133fb613208565b5b61340886828701613397565b935050602084013567ffffffffffffffff81111561342957613428613208565b5b61343586828701613397565b925050604061344686828701613224565b9150509250925092565b61345981612e2e565b811461346457600080fd5b50565b60008135905061347681613450565b92915050565b6000806040838503121561349357613492613203565b5b60006134a185828601613467565b92505060206134b285828601613224565b9150509250929050565b6000806000606084860312156134d5576134d4613203565b5b60006134e386828701613467565b93505060206134f486828701613224565b925050604061350586828701613224565b9150509250925092565b7f4e487b7100000000000000000000000000000000000000000000000000000000600052601160045260246000fd5b600061354982612df5565b915061355483612df5565b9250827fffffffffffffffffffffffffffffffffffffffffffffffffffffffffffffffff038211156135895761358861350f565b5b828201905092915050565b7f4e487b7100000000000000000000000000000000000000000000000000000000600052602260045260246000fd5b600060028204905060018216806135db57607f821691505b6020821081036135ee576135ed613594565b5b50919050565b7f4e487b7100000000000000000000000000000000000000000000000000000000600052603260045260246000fd5b600061362e82612df5565b91507fffffffffffffffffffffffffffffffffffffffffffffffffffffffffffffffff82036136605761365f61350f565b5b600182019050919050565b600082825260208201905092915050565b7f5265656e7472616e637947756172643a207265656e7472616e742063616c6c00600082015250565b60006136b2601f8361366b565b91506136bd8261367c565b602082019050919050565b600060208201905081810360008301526136e1816136a5565b9050919050565b7f4e6f7468696e6720746f20627579204e66742061742074686973204974656d4960008201527f6400000000000000000000000000000000000000000000000000000000000000602082015250565b600061374460218361366b565b915061374f826136e8565b604082019050919050565b6000602082019050818103600083015261377381613737565b9050919050565b7f706c65617365207375626d6974207468652061736b696e67207072696365206960008201527f6e206f7264657220746f20636f6d706c65746520746865207075726368617365602082015250565b60006137d660408361366b565b91506137e18261377a565b604082019050919050565b60006020820190508181036000830152613805816137c9565b9050919050565b60008190508160005260206000209050919050565b60006020601f8301049050919050565b600082821b905092915050565b60006008830261386e7fffffffffffffffffffffffffffffffffffffffffffffffffffffffffffffffff82613831565b6138788683613831565b95508019841693508086168417925050509392505050565b6000819050919050565b60006138b56138b06138ab84612df5565b613890565b612df5565b9050919050565b6000819050919050565b6138cf8361389a565b6138e36138db826138bc565b84845461383e565b825550505050565b600090565b6138f86138eb565b6139038184846138c6565b505050565b5b818110156139275761391c6000826138f0565b600181019050613909565b5050565b601f82111561396c5761393d8161380c565b61394684613821565b81016020851015613955578190505b61396961396185613821565b830182613908565b50505b505050565b600082821c905092915050565b600061398f60001984600802613971565b1980831691505092915050565b60006139a8838361397e565b9150826002028217905092915050565b6139c182612e8b565b67ffffffffffffffff8111156139da576139d961329a565b5b6139e482546135c3565b6139ef82828561392b565b600060209050601f831160018114613a225760008415613a10578287015190505b613a1a858261399c565b865550613a82565b601f198416613a308661380c565b60005b82811015613a5857848901518255600182019150602085019450602081019050613a33565b86831015613a755784890151613a71601f89168261397e565b8355505b6001600288020188555050505b505050505050565b600081519050613a9981613450565b92915050565b600060208284031215613ab557613ab4613203565b5b6000613ac384828501613a8a565b91505092915050565b613ad581612e2e565b82525050565b6000606082019050613af06000830186613acc565b613afd6020830185613acc565b613b0a60408301846131cf565b949350505050565b600081905092915050565b50565b6000613b2d600083613b12565b9150613b3882613b1d565b600082019050919050565b6000613b4e82613b20565b9150819050919050565b7f4661696c656420746f2073656e6420457468657220746f2070726576696f757360008201527f204f776e6572206f6620204e6674000000000000000000000000000000000000602082015250565b6000613bb4602e8361366b565b9150613bbf82613b58565b604082019050919050565b60006020820190508181036000830152613be381613ba7565b9050919050565b7f596f75277265206e6f742061637475616c206f776e6572206f6620736d61727460008201527f636f6e74726163742c204143434553532044454e494544200000000000000000602082015250565b6000613c4660388361366b565b9150613c5182613bea565b604082019050919050565b60006020820190508181036000830152613c7581613c39565b9050919050565b7f4f6e6c79204f776e65722063616e207369676e6564206f6e204e465427730000600082015250565b6000613cb2601e8361366b565b9150613cbd82613c7c565b602082019050919050565b60006020820190508181036000830152613ce181613ca5565b9050919050565b6000613cf382612e8b565b613cfd818561366b565b9350613d0d818560208601612ea7565b613d1681612eda565b840191505092915050565b60006060820190508181036000830152613d3b8186613ce8565b90508181036020830152613d4f8185613ce8565b9050613d5e60408301846131cf565b949350505050565b7f4e465473206973206e6f74207369676e617475726564206469676974616c6c7960008201527f2e00000000000000000000000000000000000000000000000000000000000000602082015250565b6000613dc260218361366b565b9150613dcd82613d66565b604082019050919050565b60006020820190508181036000830152613df181613db5565b9050919050565b7f73656c6c696e67207072696365206d757374206265206772656174657220746860008201527f616e205a45524f20776569000000000000000000000000000000000000000000602082015250565b6000613e54602b8361366b565b9150613e5f82613df8565b604082019050919050565b60006020820190508181036000830152613e8381613e47565b9050919050565b7f5072696365206d75737420626520657175616c20746f206c697374696e67207060008201527f7269636500000000000000000000000000000000000000000000000000000000602082015250565b6000613ee660248361366b565b9150613ef182613e8a565b604082019050919050565b60006020820190508181036000830152613f1581613ed9565b9050919050565b7f536166654d6174683a206164646974696f6e206f766572666c6f770000000000600082015250565b6000613f52601b8361366b565b9150613f5d82613f1c565b602082019050919050565b60006020820190508181036000830152613f8181613f45565b9050919050565b7f5061757361626c653a2070617573656400000000000000000000000000000000600082015250565b6000613fbe60108361366b565b9150613fc982613f88565b602082019050919050565b60006020820190508181036000830152613fed81613fb1565b9050919050565b60006020820190506140096000830184613acc565b92915050565b600060208201905081810360008301526140298184613ce8565b905092915050565b600061403c82612df5565b915061404783612df5565b92508282101561405a5761405961350f565b5b828203905092915050565b7f5061757361626c653a206e6f7420706175736564000000000000000000000000600082015250565b600061409b60148361366b565b91506140a682614065565b602082019050919050565b600060208201905081810360008301526140ca8161408e565b905091905056fea264697066735822122084a417004782c451e508baee38dad2711dd24b13c0c1d26fec32d933f5af700564736f6c634300080f0033",
  "immutableReferences": {
    "2177": [
      {
        "length": 32,
        "start": 4441
      },
      {
        "length": 32,
        "start": 6347
      }
    ]
  },
  "source": "//SPDX-License-Identifier: Unlicense\r\npragma solidity ^0.8.9;\r\nimport \"@openzeppelin/contracts/token/ERC721/ERC721.sol\";\r\nimport \"@openzeppelin/contracts/utils/Counters.sol\";\r\nimport \"@openzeppelin/contracts/security/Pausable.sol\";\r\nlibrary SafeMath {\r\n    function add(uint256 a, uint256 b) internal pure returns (uint256) {\r\n        uint256 c = a + b;\r\n        require(c >= a, \"SafeMath: addition overflow\");\r\n\r\n        return c;\r\n    }\r\n\r\n    function sub(uint256 a, uint256 b) internal pure returns (uint256) {\r\n        return sub(a, b, \"SafeMath: subtraction overflow\");\r\n    }\r\n\r\n    function sub(\r\n        uint256 a,\r\n        uint256 b,\r\n        string memory errorMessage\r\n    ) internal pure returns (uint256) {\r\n        require(b <= a, errorMessage);\r\n        uint256 c = a - b;\r\n\r\n        return c;\r\n    }\r\n\r\n    function mul(uint256 a, uint256 b) internal pure returns (uint256) {\r\n        // Gas optimization: this is cheaper than requiring 'a' not being zero, but the\r\n        // benefit is lost if 'b' is also tested.\r\n        if (a == 0) {\r\n            return 0;\r\n        }\r\n\r\n        uint256 c = a * b;\r\n        require(c / a == b, \"SafeMath: multiplication overflow\");\r\n\r\n        return c;\r\n    }\r\n}\r\n\r\n    // ReentrancyGuard proctect smartcontract from reentrancy attack \r\ncontract ReentrancyGuard {\r\n    uint256 private constant _NOT_ENTERED = 1;\r\n    uint256 private constant _ENTERED = 2;\r\n\r\n    uint256 private _status;\r\n\r\n    constructor() {\r\n        _status = _NOT_ENTERED;\r\n    }\r\n\r\n    modifier nonReentrant() {\r\n        require(_status != _ENTERED, \"ReentrancyGuard: reentrant call\");\r\n        _status = _ENTERED;\r\n        _;\r\n        _status = _NOT_ENTERED;\r\n    }\r\n}\r\n\r\n    // contract should be pausable for prevent from attacker\r\ncontract NftMarket is ReentrancyGuard, Pausable {\r\n    using Counters for Counters.Counter;\r\n\r\n    // _ItemsID= Total n. of items of Nfts on this market place.\r\n    Counters.Counter private _ItemsId;\r\n\r\n    // _Itemsold= Total n. of Nfts sold at least one times  on this market place.\r\n    Counters.Counter private _Itemsold;\r\n\r\n    // Owner of deployer (of smart contract) should immutable\r\n    address private immutable Owner;\r\n    string private constant NULL = \"\";\r\n\r\n    /////// planning to remove listing price later\r\n    uint256 listingPrice = 1 ether;\r\n\r\n    constructor() {\r\n        Owner = payable(msg.sender);\r\n    }\r\n\r\n    // data of  users history (from ---> to )and its types of events (like-buy, sell, gift ) \r\n    struct Transaction_Part {\r\n        string Event;\r\n        address _from;\r\n        address _to;\r\n    }\r\n\r\n    // all information of nft \r\n    struct MarketItem {\r\n        // Item n. of current Nft on this market place\r\n        uint256 itemId;\r\n\r\n        // Contract address of current nft\r\n        address nftContract;\r\n\r\n        // Creater of current nft\r\n        address payable creater;\r\n\r\n        // Owner of current nft\r\n        address payable Owner;\r\n\r\n        // Token Id of current nft\r\n        uint256 TokenId;\r\n\r\n        // price of current nft\r\n        uint256 Price;\r\n        // current nft has sold or not atleaft one times\r\n        bool Sold;\r\n        // nft has giftes or not\r\n        bool Gifted;\r\n        // nft has signatured or not by faculty\r\n        string Signature;\r\n\r\n        // tracking history of Owner of current nft\r\n        Transaction_Part[] Transaction_History;\r\n    }\r\n    // mapping all Nfts of this market (items n. => history of nft)  \r\n    mapping(uint256 => MarketItem) private IdtoMarketItem;\r\n\r\n    // notify at each transaction of nft \r\n    event MarketCreated(\r\n        address indexed nftContract,\r\n        address indexed Seller,\r\n        address indexed Owner\r\n    );\r\n\r\n    // notify when nft has signatured and verify by faculty \r\n    event Sig_Verified(string Faculty_Name, string e_mail, uint256 Token_Id);\r\n\r\n    // planning to remove listing price charge of market and this function too\r\n    function getListingPrice() public view returns (uint256) {\r\n        return listingPrice;\r\n    }\r\n\r\n    // Users can create their first Nft on this market\r\n    function CreatMarketItem(\r\n        // address of Nft contract\r\n        address nftContract,\r\n        uint256 Price,\r\n        uint256 tokenId\r\n    ) public payable nonReentrant whenNotPaused {       // function runs when not paused by owner , pausable for security purpose\r\n        require(msg.value > 0, \"selling price must be greater than ZERO wei\");\r\n\r\n        // planning to remove this below condition \r\n        require(\r\n            msg.value == listingPrice,\r\n            \"Price must be equal to listing price\"\r\n        );\r\n\r\n        // N. of Items increse when any Users creat nft first time\r\n        _ItemsId.increment();\r\n        uint256 ItemId = _ItemsId.current();                //return current n. of total nft items\r\n        MarketItem storage temp = IdtoMarketItem[ItemId];\r\n        // update history of current nft\r\n        temp.itemId = ItemId;\r\n        temp.nftContract = nftContract;\r\n        temp.creater = payable(msg.sender);\r\n        temp.Owner = payable(msg.sender);\r\n        temp.Price = Price;\r\n        temp.TokenId = tokenId;\r\n        temp.Signature = NULL;\r\n\r\n        // Transaction history of current history\r\n        temp.Transaction_History.push(\r\n            Transaction_Part(\"Created\", (msg.sender), msg.sender)\r\n        );\r\n\r\n        // pop out notification of successfully created nft on market place, in notification include nft contract , Owner and creater of nft\r\n        emit MarketCreated(nftContract, msg.sender, msg.sender);\r\n    }\r\n\r\n    // only Owner of current nft can acess this function\r\n    modifier OnlyOwner(address nftContract, uint256 tokenId) {\r\n        require(\r\n            msg.sender == IERC721(nftContract).ownerOf(tokenId),\r\n            \"Only Owner can signed on NFT's\"\r\n        );\r\n        _;\r\n    }\r\n\r\n        // function for buying nft that listed over market place \r\n    function creatMarketSale(uint256 ItemId) public payable nonReentrant whenNotPaused {\r\n        // Given Items Id should listed on marketplace\r\n        require(\r\n            _ItemsId.current() >= ItemId,\r\n            \"Nothing to buy Nft at this ItemId\"\r\n        );\r\n        // acess all information of given ItemId of nfts\r\n        MarketItem storage temp = IdtoMarketItem[ItemId];\r\n        uint256 Price = temp.Price;\r\n        uint256 tokenId = temp.TokenId;\r\n        address nftContract = temp.nftContract;\r\n\r\n        // User must have enough money to purchase current nft----cheaking\r\n        require(\r\n            msg.value == Price,\r\n            \"please submit the asking price in order to complete the purchase\"\r\n        );\r\n        //previous Owner of NFT\r\n        address From = temp.Owner; \r\n\r\n        // Update Owner of current nft\r\n        temp.Owner = payable(msg.sender);\r\n        temp.Sold = true;\r\n\r\n        // Update history of transation of nft(traking history of transaction)\r\n        temp.Transaction_History.push(\r\n            Transaction_Part(\"sell/Buy\", payable(From), msg.sender)\r\n        );\r\n        // count n. of at least sold nft on market\r\n        _Itemsold.increment();\r\n        // transfer ownership of nft's from previous_owner to current_owner\r\n        IERC721(nftContract).transferFrom(\r\n            IERC721(nftContract).ownerOf(tokenId),\r\n            msg.sender,\r\n            tokenId\r\n        );\r\n        // required ETH transfer from current owner(buyer) to previous owner(seller)\r\n        (bool sent, ) = payable(From).call{value: msg.value}(\"\");\r\n        require(sent, \"Failed to send Ether to previous Owner of  Nft\");\r\n    }\r\n\r\n    function AddSingnature(\r\n        string memory Faculty_Name,\r\n        string memory _Signature,\r\n        uint256 ItemId\r\n    )\r\n        public\r\n        nonReentrant\r\n        OnlyOwner(\r\n            IdtoMarketItem[ItemId].nftContract,\r\n            IdtoMarketItem[ItemId].TokenId\r\n        )\r\n    {\r\n        MarketItem storage temp = IdtoMarketItem[ItemId];\r\n        temp.Signature = _Signature;\r\n        emit Sig_Verified(Faculty_Name, _Signature, ItemId);\r\n    }\r\n\r\n    function GiftNft(address _to, uint256 ItemId) public nonReentrant whenNotPaused {\r\n        MarketItem storage temp = IdtoMarketItem[ItemId];\r\n        require(\r\n            bytes(temp.Signature).length != 0,\r\n            \"NFTs is not signatured digitally.\"\r\n        );\r\n        uint256 tokenId = temp.TokenId;\r\n        address nftContract = temp.nftContract;\r\n\r\n        temp.Owner = payable(_to);\r\n        temp.Gifted = true;\r\n        temp.Transaction_History.push(\r\n            Transaction_Part(\"Gifted\", msg.sender, _to)\r\n        );\r\n\r\n        IERC721(nftContract).transferFrom(\r\n            IERC721(nftContract).ownerOf(tokenId),\r\n            msg.sender,\r\n            tokenId\r\n        );\r\n    }\r\n\r\n    // Owner of SmartContract\r\n    modifier Deployer_OnlyOwner(){\r\n        require(msg.sender==Owner,\"You're not actual owner of smartcontract, ACCESS DENIED \");\r\n        _;\r\n    }\r\n\r\n    // In case of attaking , Owner can prevent all contract and data by pausing all function by calling this function\r\n    //Triggers stopped state.\r\n    function Pause() public  Deployer_OnlyOwner {\r\n        _pause();\r\n    }\r\n\r\n    // after resolve issue , contract Owner can unpause all function\r\n    //Returns to normal state.\r\n    //condition-The contract must be paused.\r\n    function Unpause() public Deployer_OnlyOwner{\r\n        _unpause();\r\n    }\r\n\r\n    function fetchUnsoldMarketItems()\r\n        public\r\n        view\r\n        returns (MarketItem[] memory)\r\n    {\r\n        uint256 ItemCount = _ItemsId.current();\r\n        uint256 UnsoldItemCount = SafeMath.sub(\r\n            _ItemsId.current(),\r\n            _Itemsold.current()\r\n        );\r\n        uint256 CurrentIndex = 0;\r\n        MarketItem[] memory Items = new MarketItem[](UnsoldItemCount);\r\n        for (uint256 i = 0; i < ItemCount; i++) {\r\n            if (!IdtoMarketItem[i + 1].Sold) {\r\n                uint256 currentId = IdtoMarketItem[i + 1].itemId;\r\n                MarketItem storage currentItem = IdtoMarketItem[currentId];\r\n                Items[CurrentIndex] = currentItem;\r\n                CurrentIndex = SafeMath.add(CurrentIndex, 1);\r\n            }\r\n        }\r\n        return Items;\r\n    }\r\n\r\n    function fetchMyNfts() public view returns (MarketItem[] memory) {\r\n        uint256 ItemCount = _ItemsId.current();\r\n        uint256 CurrentIndex = 0;\r\n        MarketItem[] memory Items = new MarketItem[](CurrentIndex);\r\n        for (uint256 i = 0; i < ItemCount; i++) {\r\n            if (IdtoMarketItem[i + 1].Owner == msg.sender) {\r\n                uint256 currentId = IdtoMarketItem[i + 1].itemId;\r\n                MarketItem storage currentItem = IdtoMarketItem[currentId];\r\n                Items[CurrentIndex] = currentItem;\r\n                CurrentIndex = SafeMath.add(CurrentIndex, 1);\r\n            }\r\n        }\r\n        return Items;\r\n    }\r\n\r\n    function fetchItemsCreated() public view returns (MarketItem[] memory) {\r\n        uint256 ItemCount = _ItemsId.current();\r\n        uint256 CurrentIndex = 0;\r\n        MarketItem[] memory Items = new MarketItem[](CurrentIndex);\r\n        for (uint256 i = 0; i < ItemCount; i++) {\r\n            if (IdtoMarketItem[i + 1].creater == msg.sender) {\r\n                uint256 currentId = IdtoMarketItem[i + 1].itemId;\r\n                MarketItem storage currentItem = IdtoMarketItem[currentId];\r\n                Items[CurrentIndex] = currentItem;\r\n                CurrentIndex = SafeMath.add(CurrentIndex, 1);\r\n            }\r\n        }\r\n        return Items;\r\n    }\r\n\r\n    function fetchNftsGift() public view returns (MarketItem[] memory) {\r\n        uint256 ItemCount = _ItemsId.current();\r\n        uint256 CurrentIndex = 0;\r\n        MarketItem[] memory Items = new MarketItem[](CurrentIndex);\r\n        for (uint256 i = 0; i < ItemCount; i++) {\r\n            if (IdtoMarketItem[i + 1].Gifted == true) {\r\n                uint256 currentId = IdtoMarketItem[i + 1].itemId;\r\n                MarketItem storage currentItem = IdtoMarketItem[currentId];\r\n                Items[CurrentIndex] = currentItem;\r\n                CurrentIndex = SafeMath.add(CurrentIndex, 1);\r\n            }\r\n        }\r\n        return Items;\r\n    }\r\n\r\n    function fetchSignNfts() public view returns (MarketItem[] memory) {\r\n        uint256 ItemCount = _ItemsId.current();\r\n        uint256 CurrentIndex = 0;\r\n        MarketItem[] memory Items = new MarketItem[](CurrentIndex);\r\n        for (uint256 i = 0; i < ItemCount; i++) {\r\n            if (bytes(IdtoMarketItem[i + 1].Signature).length != 0) {\r\n                uint256 currentId = IdtoMarketItem[i + 1].itemId;\r\n                MarketItem storage currentItem = IdtoMarketItem[currentId];\r\n                Items[CurrentIndex] = currentItem;\r\n                CurrentIndex = SafeMath.add(CurrentIndex, 1);\r\n            }\r\n        }\r\n        return Items;\r\n    }\r\n}\r\n",
  "sourcePath": "C:\\Users\\Anandkumar\\OneDrive\\Desktop\\solidity\\ERC721\\contracts\\NftMarket.sol",
  "compiler": {
    "name": "solc",
    "version": "0.8.15+commit.e14f2714.Emscripten.clang"
  },
  "schemaVersion": "3.4.8",
  "updatedAt": "2022-09-17T18:24:52.675Z",
  "devdoc": {
    "kind": "dev",
    "methods": {
      "paused()": {
        "details": "Returns true if the contract is paused, and false otherwise."
      }
    },
    "version": 1
  },
  "userdoc": {
    "kind": "user",
    "methods": {},
    "version": 1
  }
}